:020000040800F2
:10000000000002204DB20008A5060008B306000853
:10001000B9060008BF060008C50600080000000079
:10002000000000000000000000000000356800082B
:10003000CB060008000000006D6A0008D76A0008BF
:1000400095B2000895B2000895B2000895B2000874
:1000500095B2000895B200085303000895B2000855
:1000600095B2000895B2000895B2000895B2000854
:1000700095B2000895B2000895B2000895B2000844
:1000800095B2000895B2000895B2000895B2000834
:1000900095B2000895B2000895B2000895B2000824
:1000A00095B2000895B2000895B2000895B2000814
:1000B00095B2000895B2000895B2000895B2000804
:1000C00095B2000895B2000895B2000895B20008F4
:1000D00095B2000895B2000895B2000895B20008E4
:1000E00095B2000895B20008D906000895B200083C
:1000F00095B2000895B2000895B2000895B20008C4
:1001000095B2000895B2000895B2000895B20008B3
:1001100095B2000895B2000895B2000895B20008A3
:1001200095B2000895B2000895B2000895B2000893
:1001300095B2000895B2000895B2000895B2000883
:1001400095B2000895B2000895B2000811070008A2
:1001500095B2000895B2000895B2000895B2000863
:1001600095B2000895B2000895B2000895B2000853
:1001700095B2000895B2000895B2000895B2000843
:0801800095B2000895B20008D9
:1001C00080B483B000AF03463960FB7197F9073004
:1001D000002B0BDA0D49FB7903F00F03043B3A685F
:1001E000D2B21201D2B20B441A7609E0084997F94B
:1001F00007303A68D2B21201D2B20B4483F800231E
:1002000000BF0C37BD465DF8047B704700ED00E091
:1002100000E100E080B582B000AF78607B68B3F1A8
:10022000807F01D3012311E00A4A7B6823F07F43DA
:10023000013B53600F214FF0FF30FFF7C1FF054B2B
:1002400000229A60034B07221A60002318460837E1
:10025000BD4680BD10E000E080B588B000AF2E4BF9
:100260001B682E4AA2FB03239B091846FFF7D2FF07
:100270000346002B00D0FEE70121082001F0DEFA42
:100280004FF47043BB6101233B770023BB7703230B
:100290007B770023FB7707F118031946204801F00C
:1002A000EBFE0121012001F0C9FA01214FF4804049
:1002B00001F044FB00233B750023BB7501233B6128
:1002C0000223FB7500237B7507F1100319461548BF
:1002D00001F0D2FE0021002002F0A4F80123BB604F
:1002E0000123BB7300233B7308237B7307F10803CF
:1002F000184601F039FD06233B710123FB710023F1
:100300007B710023BB713B1D184600F0EFFE00BF60
:100310002037BD4680BD00BFC4000020D34D621011
:10032000000C02400000024080B483B000AF78604F
:100330007B684FF47A7202FB03F37B607B685A1E82
:100340007A60002BFADC00BF0C37BD465DF8047BF9
:10035000704780B500AF012001F0CAFD0346002BB5
:100360000AD0064B01221A604FF48041044801F084
:100370009BFF012001F0E0FD00BF80BD2C0C0020A0
:10038000000C024080B500AF194B01221A70184BC7
:1003900000225A70164B0022DA70154B00221A7197
:1003A000134B00225A71124B00229A71104B0022FB
:1003B000DA710F4B00221A720D4B08225A700C4B47
:1003C0001522DA7009220A490A4800F059FE1E2057
:1003D00002F087F9064B00225A70054B0022DA70B2
:1003E00009220349034800F04BFE00BF80BD00BF57
:1003F000E8490020F449002080B500AF0A4B0222F2
:100400001A70094B00225A70074B0A229A70064B49
:10041000F622DA70044B00221A71052202490348C1
:1004200000F02EFE00BF80BDD8490020F449002016
:1004300080B500AF204B03221A701F4B00225A7068
:100440001D4B00229A701C4B0022DA701A4B0022BE
:100450001A71194B00225A71174B00229A71164BD0
:10046000FF225A71144B7F225A70134B7F229A70CD
:10047000114B7F22DA70104B7F221A7107220E492E
:100480000E4800F0FDFD642002F02BF90A4B00221B
:100490005A71094B00225A70074B00229A70064B82
:1004A0000022DA70044B00221A7107220249034825
:1004B00000F0E6FD00BF80BDE44F0020F4490020BD
:1004C00080B500AF204B04221A701F4B00225A70D7
:1004D0001D4B00229A701C4B0022DA701A4B00222E
:1004E0001A71194B00225A71174B00229A71164B40
:1004F000FF229A71144B81225A70134B81229A70F9
:10050000114B8122DA70104B81221A7107220E4999
:100510000E4800F0B5FD642002F0E3F80A4B00221B
:100520009A71094B00225A70074B00229A70064BB1
:100530000022DA70044B00221A7107220249034894
:1005400000F09EFD00BF80BDE0490020F44900207E
:1005500080B582B000AF7860084B1B68002B09D0D3
:10056000FFF74AFF054B00221A604FF48041044810
:1005700001F0A9FE142002F0B4F8EDE72C0C0020E5
:10058000000C024080B582B000AF78600A480AF0E3
:100590006BFF4FF48051094801F086FE4FF4FA706A
:1005A00002F09FF84FF48051044801F08CFE4FF4A4
:1005B000FA7002F096F8ECE72C0F0108000C0240EC
:1005C000B0B58EB002AF7860184B0093184B194A43
:1005D0000121194806F006FB184B07F11C041D46C3
:1005E0000FCD0FC42B68236007F11C0300211846B0
:1005F00001F0F7FF0246124B1A60124B07F1080494
:100600001D460FCD0FC42B68236007F1080300219E
:10061000184601F0E6FF02460B4B1A60002003F07B
:100620001BF800BF3037BD46B0BD00BFD80000206A
:10063000100200200C010020F4490020440F0108A2
:10064000300C0020680F0108340C0020B0B586B0D3
:1006500000AFFFF701FE0C4B1B689B68002118469A
:100660000AF00AFF094B3C1D1D460FCD0FC42B6835
:1006700023603B1D0021184601F0B3FF0246044BE6
:100680001A6001F08BFFFEE7800200208C0F01084A
:10069000380C002080B400AF00BFBD465DF8047B7D
:1006A000704700BF80B400AF00BFBD465DF8047B5B
:1006B000704780B400AFFEE780B400AFFEE780B4BF
:1006C00000AFFEE780B400AFFEE780B400AF00BF2C
:1006D000BD465DF8047B704780B500AF0A4B9B7A3E
:1006E000002B0AD0094A094B1B6823F0060313604C
:1006F00000F018F8044808F067FB4FF4802001F080
:100700001BFC00BF80BD00BFF449002010ED00E0DD
:1007100080B500AF024808F06FFF00BF80BD00BF8A
:10072000F449002080B500AF164A164BD3F8883044
:1007300043F47003C2F88830134A134B1B6843F02C
:1007400001031360104B00229A600F4A0E4B1B6886
:1007500023F0847323F4803313600B4B0B4A5A60ED
:10076000094A094B1B6823F480231360064B0022BF
:10077000DA6000F089F8034B4FF000629A6000BF26
:1007800080BD00BF00ED00E00038024010300024C2
:1007900080B487B000AF00233B6100237B6102235C
:1007A000FB600023BB6002237B60324B9B6803F03D
:1007B0000C033B613B69042B07D0082B09D0002BAD
:1007C0003DD12D4B2D4A1A603DE02B4B2C4A1A602F
:1007D00039E0284B5B689B0D03F00103BB60254BA0
:1007E0005B6803F03F037B60BB68002B0CD0244A9E
:1007F0007B68B2FBF3F31F4A52689209C2F3080206
:1008000002FB03F37B610BE01C4A7B68B2FBF3F352
:10081000184A52689209C2F3080202FB03F37B6193
:10082000144B5B681B0C03F0030301335B00FB609C
:100830007A69FB68B2FBF3F30F4A136003E00E4BD7
:100840000E4A1A6000BF0B4B9B681B0903F00F0395
:100850000C4AD35CDBB23B61074B1A683B6922FA56
:1008600003F3054A136000BF1C37BD465DF8047BE7
:10087000704700BF00380240C40000200024F4008C
:1008800040787D01C800002080B483B000AF002311
:100890007B6000233B60364A354B1B6843F4803352
:1008A0001360334B1B6803F400333B607B680133F8
:1008B0007B603B68002B03D17B68B3F5A06FF0D160
:1008C0002B4B1B6803F40033002B02D001233B6049
:1008D00001E000233B603B68012B42D1244A244BBA
:1008E0001B6C43F080531364224A224B1B6843F471
:1008F000804313601E4A1E4B9B6893601C4A1C4B2E
:100900009B6843F400439360194A194B9B6843F476
:10091000A0539360164B184A5A60154A144B1B6833
:1009200043F08073136000BF114B1B6803F000732A
:10093000002BF9D0114B40F205621A600C4A0C4BA7
:100940009B6823F003039360094A094B9B6843F0BB
:100950000203936000BF064B9B6803F00C03082B57
:10096000F9D100BF0C37BD465DF8047B704700BF6E
:10097000003802400070004008544007003C02402C
:1009800080B483B000AF7860134BDB6803F08073F2
:10099000002B1AD04FF06043D3F8803E03F00103E0
:1009A000002B12D04FF06043D3F8003E03F0010358
:1009B000002B0AD000BF4FF060431B68002BFAD019
:1009C0004FF060437A68D2B21A707B6818460C37D1
:1009D000BD465DF8047B7047F0ED00E080B483B065
:1009E00000AF7860002318460C37BD465DF8047BE5
:1009F000704780B483B000AF786039600023184638
:100A00000C37BD465DF8047B704780B483B000AFFF
:100A10007860012318460C37BD465DF8047B7047AB
:100A200080B485B000AFF860B9607A6000231846E2
:100A30001437BD465DF8047B704780B485B000AFC5
:100A4000F860B9607A604FF0FF3318461437BD463E
:100A50005DF8047B704780B485B000AF7860396082
:100A6000104B1B68002B02D10E4B0F4A1A600D4B26
:100A70001B68FB600B4B1A683B6813446A46934241
:100A800002D94FF0FF3306E0064B1A683B68134467
:100A9000044A1360FB6818461437BD465DF8047BB2
:100AA000704700BF3C0C00208C50002080B586B001
:100AB00000AFF860B9607A60FB68012B02D0FB6878
:100AC000022B10D100237B6109E07B695A1C7A61FB
:100AD0001A46BB6813441B781846FFF751FF7A6922
:100AE0007B689A42F1DB7B6818461837BD4680BDAB
:100AF00080B485B000AFF860B9607A600023184612
:100B00001437BD465DF8047B704700BF80B584B0E4
:100B100000AF78600121012000F090FE4FF4C8532F
:100B2000BB6003237B7302233B730023BB7300234F
:100B3000FB7307F108031946224801F09DFA0A22C7
:100B40000821204801F007FC0A220B211D4801F072
:100B500002FC0A220C211B4801F0FDFB4FF400733C
:100B6000BB6003237B7300233B730123BB73002310
:100B7000FB7307F108031946124801F07DFA0223BE
:100B80003B734FF48063BB600123BB730123FB7392
:100B900003237B7307F1080319460A4801F06CFA36
:100BA0000A220A21074801F0D6FB01214FF48040B8
:100BB00000F0C4FE0121802000F060FE00BF10376D
:100BC000BD4680BD0000024080B584B000AF7860B3
:100BD0004FF4C06000F076FA43233B7301237B732C
:100BE0000323BB730123FB7307F10C03184600F0CA
:100BF0007DFA00BF1037BD4680BD80B485B000AF20
:100C000078600023FB607A6813461B019B1ADB00A7
:100C10001A460B4BA3FB0213D21A520813449B082B
:100C2000BB60FB680133FB60FA68BB689A4200D87E
:100C3000F7E700BF1437BD465DF8047B704700BF7F
:100C40002549922480B582B000AF78607B684FF46C
:100C50007A7202FB03F31846FFF7CFFF00BF083795
:100C6000BD4680BD80B400AF00BFBD465DF8047BCB
:100C7000704780B483B000AF0346FB71FB79002B53
:100C800002D0012B02D002E000BF00E000BF00BF95
:100C90000C37BD465DF8047B704780B400AF00BFE1
:100CA000BD465DF8047B704780B400AF00BFBD4611
:100CB0005DF8047B704780B400AF00BFBD465DF8AF
:100CC000047B704780B400AF00BFBD465DF8047B75
:100CD000704780B400AF00BFBD465DF8047B70472D
:100CE00080B483B000AF03463960FB713B681222C9
:100CF0001A80034B18460C37BD465DF8047B7047DD
:100D0000F800002080B483B000AF03463960FB7167
:100D10003B6804221A80034B18460C37BD465DF829
:100D2000047B7047F400002080B582B000AF03461A
:100D30003960FB713A680449044806F032FE024B00
:100D400018460837BD4680BD30500020A00F01086E
:100D500080B582B000AF03463960FB713A68044940
:100D6000044806F01EFE024B18460837BD4680BDFB
:100D700030500020B40F010880B582B000AF0346A8
:100D80003960FB713A680449044806F00AFE024BD8
:100D900018460837BD4680BD30500020D40F0108EA
:100DA00080B582B000AF03463960FB713A680449F0
:100DB000044806F0F6FD024B18460837BD4680BDD4
:100DC00030500020E40F010880B582B000AF034628
:100DD0003960FB713A680449044806F0E2FD024BB1
:100DE00018460837BD4680BD30500020F00F01087E
:100DF00080B483B000AF03463960FB713B682222A8
:100E00001A80034B18460C37BD465DF8047B7047CB
:100E1000EC01002080B582B000AF78600B46FB701B
:100E200006480AF021FB032310228121786808F08C
:100E3000A2F9002318460837BD4680BD00100108FE
:100E400080B582B000AF78600B46FB708121786876
:100E500008F0E7F9002318460837BD4680BD80B585
:100E600082B000AF78600B46FB708121786808F093
:100E700004FB002318460837BD4680BD80B584B00A
:100E800000AF786039600023FB810023BB603B68C2
:100E90005B881B0A9BB2194614480AF083FA3B6828
:100EA0005B881B0A9BB2222B08D13B68DB88C12BD5
:100EB00028BFC123FB810E4BBB600DE03B685B8804
:100EC0001B0A9BB2212B07D10A4BBB603B68DB8816
:100ED000092B28BF0923FB81FB891A46B96878686A
:100EE00006F076F800BF1037BD4680BD101001082F
:100EF00028010020FE01002080B400AF00BFBD46E5
:100F00005DF8047B704780B582B000AF78603960CF
:100F10007B6893F8123119463B685B881A46134880
:100F20000AF040FA7B6893F81231023B012B14D887
:100F30003B685B88012B10D17B680022C3F8142129
:100F40003B681B7803F060013B685B781A460848F1
:100F50000AF028FA786806F0A3F83968786806F08D
:100F6000FDFC00BF00BF0837BD4680BD2C10010846
:100F70006C10010880B582B000AF786039603B68C2
:100F80001B7803F060013B685B781A4638480AF02A
:100F900009FA3B681B7803F06003002B38D0202B44
:100FA00060D13B685B78012B02D00A2B16D027E07A
:100FB0003B685B88DBB219462E480AF0F3F93B68C0
:100FC0005B88DBB2012B21D03B685B88DBB2022B54
:100FD0001CD03B685B88DBB2032B17E0264B00225A
:100FE0001A603B685B881B0A9BB2DBB21A46224B35
:100FF0001A60214B1B68194620480AF0D3F906E015
:101000003968786806F0AAFC02232CE000BF29E0CA
:101010003B685B78013B0A2B22D801A252F823F0EF
:1010200057100008611000086110000861100008E6
:10103000611000084D1000086110000861100008E0
:1010400061100008611000086110000839687868B4
:10105000FFF714FF05E039687868FFF754FF00E0F8
:1010600000BF00BF002318460837BD4680BD00BF43
:10107000AC100108FC100108400C002018110108F8
:1010800080B584B000AFF860B9601346FB80FB68A0
:1010900093F81231032B05D1FB88BA688121F868D7
:1010A00008F03AF9002318461037BD4680BD00BF4E
:1010B00020140108000000202C0C00202C0C002023
:1010C0008C50002080B483B000AF7860064A7B6803
:1010D00043F0BF6343F40033D36000BF0C37BD4619
:1010E0005DF8047B704700BF00ED00E080B485B080
:1010F00000AF78600023FB730023BB730F237B7367
:101100007B68DB78002B39D0274BDB68DB431B0A7D
:10111000DBB203F00703FB73FB7BC3F10403BB7378
:101120007A7BFB7B42FA03F37B737B685B781A461E
:10113000BB7B02FA03F3FB737B689A787B7B1340DB
:10114000DAB2FB7B1343FB73FB7B1B01FB73174A78
:101150007B681B781344FA7B83F80023134A7B686F
:101160001B785B09DBB218467B681B7803F01F0312
:10117000012101FA03F342F820300FE00B497B68AC
:101180001B785B09DBB218467B681B7803F01F03F2
:1011900001229A4000F1200341F8232000BF1437B8
:1011A000BD465DF8047B704700ED00E000E100E023
:1011B00080B483B000AF7860396007493B6823F0A2
:1011C000604323F07F037A6813438B6000BF0C37C2
:1011D000BD465DF8047B704700ED00E080B483B04D
:1011E00000AF03460A46FB711346BB71BB79002B67
:1011F00006D00A49094B1A69FB7913430B6106E0D3
:101200000649064B1A69FB79DB4313400B6100BFAB
:101210000C37BD465DF8047B704700BF00ED00E071
:1012200080B483B000AF78607B68042B06D1094A94
:10123000084B1B6843F00403136005E0054A054BA7
:101240001B6823F00403136000BF0C37BD465DF834
:10125000047B704710E000E080B400AF104A104BF0
:101260001B6843F0010313600D4B00229A600C4A87
:101270000B4B1B6823F0847323F480331360084BFB
:10128000084A5A60064A064B1B6823F48023136001
:10129000034B0022DA6000BFBD465DF8047B704757
:1012A000003802401030002480B483B000AF034601
:1012B000FB71064B00221A70044AFB79137000BFC1
:1012C0000C37BD465DF8047B704700BF0238024012
:1012D00080B582B000AF00233B600023FB71002388
:1012E000BB71312000F0B0FC0346BB713B68013399
:1012F0003B603B68B3F5A06F02D0BB79002BF0D008
:10130000312000F0A1FC0346002B02D00123FB7129
:1013100001E00023FB71FB7918460837BD4680BD0C
:1013200080B485B000AF0346FB710023FB600A4B1D
:101330001B68FB60FB6823F0F803FB60FB79DB00B4
:10134000FA681343FB60044AFB68136000BF14375C
:10135000BD465DF8047B70470038024080B483B01E
:1013600000AF0346FB71044AFB79136000BF0C37E2
:10137000BD465DF8047B70470000474280B483B0EF
:1013800000AF0346FB710D4B00221A700B4B00227D
:101390001A70FB79012B02D0042B04D007E0074B15
:1013A00001221A7003E0054B05221A7000BF00BF2E
:1013B0000C37BD465DF8047B704700BF70380240B3
:1013C00080B483B000AF0346FB71044AFB7913601D
:1013D00000BF0C37BD465DF8047B7047800E474266
:1013E00080B485B000AFF860B9607A603B600B49AB
:1013F0007B689A01BB681A433B685B08013B1B048E
:101400001A43FB681A43BB691B0613434B6000BFBA
:101410001437BD465DF8047B704700BF00380240BA
:1014200080B483B000AF0346FB71044AFB791360BC
:1014300000BF0C37BD465DF8047B70476000474233
:1014400080B483B000AF7860396007497B689A0147
:101450003B681B071343C1F8843000BF0C37BD46FF
:101460005DF8047B704700BF0038024080B483B051
:1014700000AF0346FB71044AFB79136000BF0C37D1
:10148000BD465DF8047B70476800474280B483B076
:1014900000AF0346FB71044AFB79136000BF0C37B1
:1014A000BD465DF8047B70474C00474280B485B070
:1014B00000AF786039600023FB600B4B9B68FB60DA
:1014C000FB6823F0EC63FB607A683B681343FA68BF
:1014D0001343FB60044AFB68936000BF1437BD46AA
:1014E0005DF8047B704700BF0038024080B485B0CF
:1014F00000AF786039600023FB600B4B9B68FB609A
:10150000FB6823F07843FB607A683B681343FA6812
:101510001343FB60044AFB68936000BF1437BD4669
:101520005DF8047B704700BF0038024080B485B08E
:1015300000AF78600023FB60094B9B68FB60FB6891
:1015400023F00303FB60FA687B681343FB60044AE3
:10155000FB68936000BF1437BD465DF8047B70479D
:101560000038024080B400AF054B9B68DBB203F04B
:101570000C03DBB21846BD465DF8047B704700BF24
:101580000038024080B485B000AF78600023FB6073
:10159000094B9B68FB60FB6823F0F003FB60FA6873
:1015A0007B681343FB60044AFB68936000BF1437F9
:1015B000BD465DF8047B70470038024080B485B0BA
:1015C00000AF78600023FB60094B9B68FB60FB6801
:1015D00023F4E053FB60FA687B681343FB60044A22
:1015E000FB68936000BF1437BD465DF8047B70470D
:1015F0000038024080B485B000AF78600023FB6003
:101600000A4B9B68FB60FB6823F46043FB607B68CC
:10161000DB00FA681343FB60044AFB68936000BF79
:101620001437BD465DF8047B704700BF00380240A8
:1016300080B489B000AF78600023BB6100237B6178
:101640000023FB6102233B610023FB600223BB609C
:10165000474B9B6803F00C03BB61BB69042B07D0AD
:10166000082B09D0002B3DD17B68424A1A603DE02F
:101670007B68414A1A6039E03D4B5B689B0D03F083
:101680000103FB603A4B5B6803F03F03BB60FB6800
:10169000002B0CD0384ABB68B2FBF3F3344A5268D3
:1016A0009209C2F3080202FB03F3FB610BE0314A2B
:1016B000BB68B2FBF3F32E4A52689209C2F30802E8
:1016C00002FB03F3FB612A4B5B681B0C03F0030373
:1016D00001335B003B61FA693B69B2FBF3F27B6863
:1016E0001A6003E07B68234A1A6000BF204B9B68A6
:1016F00003F0F003BB61BB691B09BB611F4ABB69F7
:1017000013441B78DBB27B617B681A687B69DA4023
:101710007B685A60164B9B6803F4E053BB61BB695E
:101720009B0ABB61154ABB6913441B78DBB27B6122
:101730007B685A687B69DA407B689A600C4B9B68CF
:1017400003F46043BB61BB695B0BBB610B4ABB69C4
:1017500013441B78DBB27B617B685A687B69DA4093
:101760007B68DA6000BF2437BD465DF8047B7047B4
:10177000003802400024F40040787D013C02002043
:1017800080B485B000AF78600023FB607B6803F411
:101790004073B3F5407F11D10F4B9B68FB60FB6832
:1017A00023F4F813FB607B6823F0704323F4407349
:1017B000FA681343FB60084AFB6893600649064BCE
:1017C0001A6F7B68C3F30B0313430B6700BF143717
:1017D000BD465DF8047B70470038024080B483B09A
:1017E00000AF0346FB71044AFB79136000BF0C375E
:1017F000BD465DF8047B70473C0E474280B483B021
:1018000000AF0346FB71044AFB79136000BF0C373D
:10181000BD465DF8047B7047400E474280B483B0FC
:1018200000AF7860044A7B68136000BF0C37BD4688
:101830005DF8047B704700BF5C01474280B483B011
:1018400000AF78600B46FB70FB78002B06D00A498E
:10185000094B1A6B7B6813430B6306E00649064B82
:101860001A6B7B68DB4313400B6300BF0C37BD462C
:101870005DF8047B704700BF0038024080B483B03D
:1018800000AF78600B46FB70FB78002B06D00A494E
:10189000094B5A6B7B6813434B6306E00649064BC2
:1018A0005A6B7B68DB4313404B6300BF0C37BD466C
:1018B0005DF8047B704700BF0038024080B483B0FD
:1018C00000AF78600B46FB70FB78002B06D00A490E
:1018D000094B9A6B7B6813438B6306E00649064B02
:1018E0009A6B7B68DB4313408B6300BF0C37BD46AC
:1018F0005DF8047B704700BF0038024080B483B0BD
:1019000000AF78600B46FB70FB78002B06D00A49CD
:10191000094B1A6C7B6813430B6406E00649064BBF
:101920001A6C7B68DB4313400B6400BF0C37BD4669
:101930005DF8047B704700BF0038024080B483B07C
:1019400000AF78600B46FB70FB78002B06D00A498D
:10195000094B5A6C7B6813434B6406E00649064BFF
:101960005A6C7B68DB4313404B6400BF0C37BD46A9
:101970005DF8047B704700BF0038024080B483B03C
:1019800000AF78600B46FB70FB78002B06D00A494D
:10199000094B1A697B6813430B6106E00649064B45
:1019A0001A697B68DB4313400B6100BF0C37BD46EF
:1019B0005DF8047B704700BF0038024080B483B0FC
:1019C00000AF78600B46FB70FB78002B06D00A490D
:1019D000094B5A697B6813434B6106E00649064B85
:1019E0005A697B68DB4313404B6100BF0C37BD462F
:1019F0005DF8047B704700BF0038024080B483B0BC
:101A000000AF78600B46FB70FB78002B06D00A49CC
:101A1000094B9A697B6813438B6106E00649064BC4
:101A20009A697B68DB4313408B6100BF0C37BD466E
:101A30005DF8047B704700BF0038024080B483B07B
:101A400000AF78600B46FB70FB78002B06D00A498C
:101A5000094B1A6A7B6813430B6206E00649064B82
:101A60001A6A7B68DB4313400B6200BF0C37BD462C
:101A70005DF8047B704700BF0038024080B483B03B
:101A800000AF78600B46FB70FB78002B06D00A494C
:101A9000094B5A6A7B6813434B6206E00649064BC2
:101AA0005A6A7B68DB4313404B6200BF0C37BD466C
:101AB0005DF8047B704700BF0038024080B483B0FB
:101AC00000AF78600B46FB70FB78002B06D00A490C
:101AD000094B1A6D7B6813430B6506E00649064BFC
:101AE0001A6D7B68DB4313400B6500BF0C37BD46A6
:101AF0005DF8047B704700BF0038024080B483B0BB
:101B000000AF78600B46FB70FB78002B06D00A49CB
:101B1000094B5A6D7B6813434B6506E00649064B3B
:101B20005A6D7B68DB4313404B6500BF0C37BD46E5
:101B30005DF8047B704700BF0038024080B483B07A
:101B400000AF78600B46FB70FB78002B06D00A498B
:101B5000094B9A6D7B6813438B6506E00649064B7B
:101B60009A6D7B68DB4313408B6500BF0C37BD4625
:101B70005DF8047B704700BF0038024080B483B03A
:101B800000AF78600B46FB70FB78002B06D00A494B
:101B9000094B1A6E7B6813430B6606E00649064B39
:101BA0001A6E7B68DB4313400B6600BF0C37BD46E3
:101BB0005DF8047B704700BF0038024080B483B0FA
:101BC00000AF78600B46FB70FB78002B06D00A490B
:101BD000094B5A6E7B6813434B6606E00649064B79
:101BE0005A6E7B68DB4313404B6600BF0C37BD4623
:101BF0005DF8047B704700BF0038024080B483B0BA
:101C000000AF03460A46FB711346BB71BB79002B3C
:101C100008D00C490B4B1B78DAB2FB791343DBB2CB
:101C20000B7009E00749074B1B78DAB2FB79DB43FD
:101C3000DBB21340DBB20B7000BF0C37BD465DF862
:101C4000047B70470D38024080B487B000AF034674
:101C5000FB710023FB6000237B610023FB74FB7995
:101C60005B09DBB2FB60FB68012B03D1124B1B68E5
:101C70007B6109E0FB68022B03D10F4B1B6F7B617B
:101C800002E00D4B5B6F7B61FB7903F01F03FB6090
:101C90007A69FB6822FA03F303F00103002B02D0F8
:101CA0000123FB7401E00023FB74FB7C18461C3706
:101CB000BD465DF8047B70470038024080B400AF39
:101CC000054A054B5B6F43F08073536700BFBD4609
:101CD0005DF8047B704700BF0038024080B485B0D7
:101CE00000AF0346FB710023FB73094BDA68FB79F5
:101CF0001340002B02D00123FB7301E00023FB7390
:101D0000FB7B18461437BD465DF8047B704700BF67
:101D10000038024080B483B000AF0346FB71044A30
:101D2000FB79137000BF0C37BD465DF8047B70472C
:101D30000E38024080B400AF094B00221A60084BF5
:101D400000225A60064B00229A60054B0022DA609E
:101D5000034B044A5A6100BFBD465DF8047B7047DF
:101D6000003C0140FFFF7F0080B485B000AF786089
:101D70000023FB60344BFB607B689B79002B4FD0CA
:101D80003149314B1A687B681B68DB4313400B6099
:101D90002D492D4B5A687B681B68DB4313404B6011
:101DA0007B681B791A46FB681344FB60FB68FA6882
:101DB00011687A6812680A431A602349224B9A68AC
:101DC0007B681B68DB4313408B601F491E4BDA683E
:101DD0007B681B68DB431340CB607B685B79102B0F
:101DE0000ED11949184B9A687B681B6813438B60A6
:101DF0001549154BDA687B681B681343CB601DE0FF
:101E0000114BFB607B685B791A46FB681344FB60EF
:101E1000FB68FA6811687A6812680A431A600DE074
:101E20007B681B791A46FB681344FB60FB68FA6801
:101E300011687A681268D2430A401A6000BF1437EA
:101E4000BD465DF8047B7047003C014080B483B020
:101E500000AF78607B6800221A607B6800221A71EC
:101E60007B680C225A717B6800229A7100BF0C3784
:101E7000BD465DF8047B704780B483B000AF7860E6
:101E80000549054B1A697B6813430B6100BF0C378A
:101E9000BD465DF8047B7047003C014080B485B0CE
:101EA00000AF78600023FB73084B5A697B681340CE
:101EB000002B02D00123FB7301E00023FB73FB7BAB
:101EC00018461437BD465DF8047B7047003C01405E
:101ED00080B483B000AF7860044A7B68536100BF70
:101EE0000C37BD465DF8047B704700BF003C0140E5
:101EF00080B485B000AF78600023FB730023BB6023
:101F00000C4B1A687B681340BB600A4B5A697B68AC
:101F10001340002B05D0BB68002B02D00123FB73BC
:101F200001E00023FB73FB7B18461437BD465DF8C8
:101F3000047B7047003C014080B483B000AF786000
:101F4000044A7B68536100BF0C37BD465DF8047BD3
:101F5000704700BF003C014080B582B000AF7860A0
:101F60007B683C4A934208D101210120FFF706FD1E
:101F700000210120FFF702FD68E07B68364A9342AA
:101F800008D101210220FFF7F9FC00210220FFF710
:101F9000F5FC5BE07B68314A934208D101210420C3
:101FA000FFF7ECFC00210420FFF7E8FC4EE07B6823
:101FB0002B4A934208D101210820FFF7DFFC0021C2
:101FC0000820FFF7DBFC41E07B68264A934208D1FA
:101FD00001211020FFF7D2FC00211020FFF7CEFCDA
:101FE00034E07B68204A934208D101212020FFF78A
:101FF000C5FC00212020FFF7C1FC27E07B681B4ABD
:10200000934208D101214020FFF7B8FC0021402075
:10201000FFF7B4FC1AE07B68154A934208D101210E
:102020008020FFF7ABFC00218020FFF7A7FC0DE02C
:102030007B68104A934209D101214FF48070FFF769
:102040009DFC00214FF48070FFF798FC00BF08371B
:10205000BD4680BD0000024000040240000802406E
:10206000000C024000100240001402400018024020
:10207000001C02400020024080B487B000AF7860AE
:10208000396000237B6100233B610023FB60002358
:102090007B6176E001227B6902FA03F33B613B68D6
:1020A0001A683B691340FB60FA683B699A4265D144
:1020B0007B681A687B695B00032101FA03F3DB4349
:1020C0001A407B681A607B681A683B681B7919465E
:1020D0007B695B0001FA03F31A437B681A603B6873
:1020E0001B79012B03D03B681B79022B2ED17B6817
:1020F0009A687B695B00032101FA03F3DB431A4012
:102100007B689A607B689A683B685B7919467B6953
:102110005B0001FA03F31A437B689A607B685A6894
:102120007B699BB2194601238B40DB431A407B68D5
:102130005A607B685B683A68927911467A6992B214
:1021400001FA02F292B21A437B685A607B68DA683D
:102150007B699BB25B00032101FA03F3DB431A4066
:102160007B68DA607B68DA683B68DB7919467B69F3
:102170005B0001FA03F31A437B68DA607B69013381
:102180007B617B690F2B85D900BF1C37BD465DF88D
:10219000047B704780B483B000AF78607B684FF6F3
:1021A000FF721A607B6800221A717B6800225A71E4
:1021B0007B6800229A717B680022DA7100BF0C37BD
:1021C000BD465DF8047B704780B485B000AF786091
:1021D0000B467B804FF48033FB607A88FB681343A7
:1021E000FB60FA687B68DA617A887B68DA61FA6892
:1021F0007B68DA617B68DB69FB607B68DB69FB60BD
:1022000000BF1437BD465DF8047B704780B485B0CD
:1022100000AF78600B467B800023FB737B681A69F4
:102220007B881340002B02D00123FB7301E00023C5
:10223000FB73FB7B18461437BD465DF8047B704783
:1022400080B483B000AF78607B681B699BB218468E
:102250000C37BD465DF8047B704780B485B000AF95
:1022600078600B467B800023FB737B685A697B8810
:102270001340002B02D00123FB7301E00023FB730A
:10228000FB7B18461437BD465DF8047B704780B46D
:1022900083B000AF78607B685B699BB218460C37EF
:1022A000BD465DF8047B704780B483B000AF7860B2
:1022B0000B467B807B687A881A8300BF0C37BD464B
:1022C0005DF8047B704780B483B000AF78600B4644
:1022D0007B807B687A885A8300BF0C37BD465DF8E7
:1022E000047B704780B483B000AF78600B467B807E
:1022F00013467B707B78002B03D07B687A881A8327
:1023000002E07B687A885A8300BF0C37BD465DF8CF
:10231000047B704780B483B000AF78600B467B804D
:102320007A887B685A6100BF0C37BD465DF8047B34
:10233000704780B483B000AF78600B467B807B68C9
:102340005A697B885A407B685A6100BF0C37BD468A
:102350005DF8047B704780B485B000AF78600B46B1
:102360007B8013467B700023FB600023BB607A7880
:102370007B8803F007039B0002FA03F3FB607B8872
:10238000DB089BB218467B88DB089BB21A467B6849
:10239000083253F822207B8803F007039B000F21AB
:1023A00001FA03F3DB4302EA03017B6800F1080250
:1023B00043F822107B88DB089BB21A467B68083200
:1023C00053F82220FB681343BB607B88DB089BB279
:1023D0001A467B680832B96843F8221000BF1437E8
:1023E000BD465DF8047B704780B500AF01214FF416
:1023F0008040FFF743FB00214FF48040FFF73EFB96
:1024000000BF80BD80B483B000AF0346FB71044AB7
:10241000FB79136000BF0C37BD465DF8047B704745
:102420000038014090B484B000AF03460A46FB7107
:102430001346BB710023FB60BB7903F003039B00D1
:102440000F2202FA03F3FB601649BB799B08DBB24B
:102450001846144ABB799B08DBB2023352F823209A
:10246000FB68DB431A40831C41F823200D48BB79ED
:102470009B08DBB21C460B4ABB799B08DBB20233DC
:1024800052F82320F979BB7903F003039B0001FA8A
:1024900003F31A43A31C40F8232000BF1037BD46A6
:1024A00090BC70470038014080B483B000AF7860C2
:1024B000044A7B68136000BF0C37BD465DF8047B9F
:1024C000704700BFDC00274280B483B000AF0346F2
:1024D000FB71044AFB79136000BF0C37BD465DF801
:1024E000047B70470004274280B483B000AF002310
:1024F000FB71094B1B6A03F48073002B02D001238C
:10250000FB7101E00023FB71FB7918460C37BD46D7
:102510005DF8047B704700BF0038014080B485B08F
:1025200000AF0346FB800023FB60B7F90630842B25
:1025300005D0B7F90620FB6813440333FB60FB6842
:1025400018461437BD465DF8047B704780B485B0EB
:1025500000AF78608423FB817B68062B04D87B68FE
:102560009BB2033B9BB2FB81B7F90E301846143780
:10257000BD465DF8047B704780B483B000AFEFF3D5
:1025800005837B607B68002B14BF01230023DBB233
:1025900018460C37BD465DF8047B704780B500AF28
:1025A00001F0F6FB0023184680BD80B500AF02F0B5
:1025B0006FFA0346012B01D1002300E001231846E6
:1025C00080BD80B500AFFFF7D7FF0346002B03D0D7
:1025D00001F0F6FC034602E001F0E2FC0346184677
:1025E00080BDF0B587B002AF786039607B685C6809
:1025F0007B681D687B681B699EB27B68B3F90830F5
:102600001846FFF78BFF024607F10C030193009277
:102610003B6832462946204600F0E8FE0346012B7F
:1026200001D0002300E0FB6818461437BD46F0BD1A
:1026300080B500AF02F01CFA0346184680BD80B595
:1026400082B000AF7860786801F006F80023184681
:102650000837BD4680BD80B400AF074B4FF08052B5
:102660001A60BFF34F8FBFF36F8F00231846BD462C
:102670005DF8047B704700BF04ED00E080B582B0D8
:1026800000AF78600B467B80B7F902301846FFF741
:1026900045FF03461946786801F03EF900231846C5
:1026A0000837BD4680BD80B582B000AF7860FFF7C7
:1026B00063FF0346002B08D0786801F001F9034658
:1026C0001846FFF743FF034607E0786801F0DEF89D
:1026D00003461846FFF73AFF034618460837BD463B
:1026E00080BD80B584B000AF78607B68FB60FB681C
:1026F000002B01D0FB6800E00123184601F03AF8F6
:10270000002318461037BD4680BD80B485B000AFA9
:10271000F8600B467A60FB72002318461437BD46FA
:102720005DF8047B704780B485B000AF7860396095
:102730000023FB60FF23FB60FB6818461437BD468F
:102740005DF8047B704780B485B000AF78600023EB
:10275000FB60FF23FB60FB6818461437BD465DF83D
:10276000047B704780B485B000AF78600023FB60C5
:10277000FF23FB60FB6818461437BD465DF8047BF9
:10278000704780B586B002AF786039600023FB6087
:102790000023BB60FFF7F0FE0346002B1CD0396816
:1027A00007F1080207F10C03009313460122786831
:1027B00002F0F4FB0346012B02D04FF0004319E076
:1027C000FB68002B15D00D4B4FF080521A60BFF301
:1027D0004F8FBFF36F8F0CE0396807F108030122B8
:1027E000786802F03BFB0346012B02D04FF0004318
:1027F00000E0BB6818461037BD4680BD04ED00E020
:1028000090B589B000AFF860B9607A6000237B6151
:102810000023FB617B68B3F1FF3F03D14FF0FF332F
:10282000FB6109E07B68002B06D07B68FB61FB69DC
:10283000002B01D10123FB61FFF79EFE0346002B15
:1028400002D082233B611BE0B96807F110031A1D17
:10285000FB69002002F0A8FA0346012B08D0FB69AF
:10286000002B02D100233B610AE040233B6107E0DB
:102870007B69002B02DA86233B6101E008233B6180
:10288000FB681C4607F1100393E8070084E8070083
:10289000F8682437BD4690BD80B582B000AF78603F
:1028A000012002F03BFE034618460837BD4680BDB6
:1028B00080B584B000AF786039600023BB607B686E
:1028C000002B01D180233CE00023FB603B68B3F187
:1028D000FF3F03D14FF0FF33FB6009E03B68002B63
:1028E00006D03B68FB60FB68002B01D10123FB6035
:1028F000FFF742FE0346002B17D007F108031A46E4
:102900000021786803F04CF90346012B01D0FF2326
:1029100017E0BB68002B13D00C4B4FF080521A60AD
:10292000BFF34F8FBFF36F8F0AE00023FA680021D7
:10293000786803F022F80346012B01D0FF2300E062
:10294000002318461037BD4680BD00BF04ED00E0EF
:1029500080B584B000AF78600023FB600023BB60CB
:10296000FFF70AFE0346002B16D007F108031946AD
:10297000786802F079FF0346012B01D0FF2317E0AE
:10298000BB68002B13D00C4B4FF080521A60BFF382
:102990004F8FBFF36F8F0AE0002300220021786879
:1029A00002F0D4FD0346012B01D0FF23FB60FB683E
:1029B00018461037BD4680BD04ED00E080B582B0FA
:1029C00000AF7860FFF7D8FD0346002B01D08223CB
:1029D00003E0786803F020FA002318460837BD4664
:1029E00080BD80B584B000AF786039603B68012B52
:1029F00010D103220021012002F01AFDF860FB68CB
:102A0000002B05D0002300220021F86802F09EFD73
:102A1000FB6800E0002318461037BD4680BD80B536
:102A200084B000AF786039600023BB607B68002B06
:102A300001D180233CE00023FB603B68B3F1FF3F02
:102A400003D14FF0FF33FB6009E03B68002B06D059
:102A50003B68FB60FB68002B01D10123FB60FFF7A3
:102A60008BFD0346002B17D007F108031A460021FF
:102A7000786803F095F80346012B01D0FF2317E097
:102A8000BB68002B13D00C4B4FF080521A60BFF381
:102A90004F8FBFF36F8F0AE00023FA680021786838
:102AA00002F06BFF0346012B01D0FF2300E000235F
:102AB00018461037BD4680BD04ED00E080B584B0F7
:102AC00000AF78600023FB600023BB60FFF754FD7C
:102AD0000346002B16D007F108031946786802F068
:102AE000C3FE0346012B01D0FF2317E0BB68002B78
:102AF00013D00C4B4FF080521A60BFF34F8FBFF3CF
:102B00006F8F0AE0002300220021786802F01EFD8A
:102B10000346012B01D0FF23FB60FB6818461037EA
:102B2000BD4680BD04ED00E080B582B000AF7860A6
:102B3000FFF722FD0346002B01D0822303E07868D3
:102B400003F06AF9002318460837BD4680BD80B5FA
:102B500086B000AF78607B685B68033323F00303C3
:102B6000FB60142003F01CFC78617B69002B46D0CD
:102B70007B681A687B699A60FA687B69DA607B69AE
:102B800000221A617B681B68184603F009FC0246A4
:102B90007B695A607B695B68002B2BD07B681B6864
:102BA000FA6802FB03F3184603F0FAFB02467B695E
:102BB0001A607B691B68002B11D000233B6108E081
:102BC0007B695A683B69134400221A703B690133E0
:102BD0003B617B681A683B699A42F1D80FE07B69D8
:102BE0005B68184603F09EFC786903F09BFC0023A9
:102BF0007B6104E0786903F095FC00237B617B69CD
:102C000018461837BD4680BD80B58AB000AF7860E1
:102C100000237B6200233B62FFF7AEFC0346002BE0
:102C20000ED0EFF311824FF0500383F31188BFF3FE
:102C30006F8FBFF34F8F7A613B617B697B6201E0ED
:102C400003F0BEFE0023FB6129E07B681A69FB6983
:102C50001344BB617B689A68BB699A4201D8002320
:102C6000BB617B685A68BB6913441B78002B13D186
:102C70007B685A68BB69134401221A707B681B6821
:102C800019467B68DB68BA6902FB03F30B443B62BD
:102C90007B68BA691A6107E0FB690133FB617B68F5
:102CA0009A68FB699A42D0D8FFF766FC0346002B6E
:102CB00005D07B6AFB60FB6883F3118801E003F0B9
:102CC000ADFE3B6A18462837BD4680BD80B584B04E
:102CD00000AF78607868FFF797FFF860FB68002B1B
:102CE00004D004220021F86808F0FEFAFB681846B8
:102CF0001037BD4680BD80B485B000AF78603960C4
:102D00007B68002B01D1802330E03B68002B01D190
:102D100080232BE07B681A683B689A4201D98023A4
:102D200024E03B687A6812689B1AFB607B68DA686B
:102D3000FB68B3FBF2F102FB01F29B1A002B01D0FE
:102D4000802313E07B68DB68FA68B2FBF3F3FB6077
:102D50007B689A68FB689A4201D8802306E07B680A
:102D60005A68FB68134400221A700023184614376F
:102D7000BD465DF8047B704780B582B000AF7860D7
:102D800039607B6818687B685B680022194602F02E
:102D90004FFB034618460837BD4680BD80B586B058
:102DA00000AFF860B9607A6000233B617B687B61AB
:102DB0007B69002B01D101237B61FFF7DDFB03461B
:102DC000002B18D007F1100207F108010023F86862
:102DD00002F0B6FC0346012B01D0FF2318E03B694B
:102DE000002B14D00C4B4FF080521A60BFF34F8F62
:102DF000BFF36F8F0BE007F1080100237A69F868D1
:102E000002F0A4FB0346012B01D0FF2300E00023C6
:102E100018461837BD4680BD04ED00E090B58BB074
:102E200000AFF860B9607A60BB68FB610023BB61EA
:102E3000BB68002B0AD180237B61FB681C4607F12D
:102E4000140393E8070084E8070054E000233B6282
:102E500000237B627B68B3F1FF3F03D14FF0FF3368
:102E60007B6209E07B68002B06D07B687B627B6A13
:102E7000002B01D101237B62FFF77EFB0346002B71
:102E80001CD007F1200207F1140304331946B86877
:102E900002F086FE0346012B02D110237B6101E084
:102EA00000237B613B6A002B1DD0154B4FF08052F5
:102EB0001A60BFF34F8FBFF36F8F14E007F1140355
:102EC000191D00237A6AB86802F057FD0346012BEA
:102ED00002D110237B6106E07B6A002B01D1002325
:102EE00000E040237B61FB681C4607F1140393E874
:102EF000070084E80700F8682C37BD4690BD00BF86
:102F000004ED00E090B587B000AF786039607B6871
:102F10001B68FB607B685B683B6100237B617B68AF
:102F20009C680C2003F03CFA034623607B689B6896
:102F30001B68002B01D1002339E07B689B681B686C
:102F40007A681A607B689B681C687B681B68002233
:102F50000421184602F06CFA034663607B689B68A4
:102F60001B685B68002B07D17B689B681B68184651
:102F700003F0D8FA00231AE07B689B681C6807F10D
:102F80000C031846FFF7E3FD0346A3607B689B68CC
:102F90001B689B68002B07D17B689B681B681846E1
:102FA00003F0C0FA002302E07B689B681B681846A8
:102FB0001C37BD4690BD80B584B000AF78603960E5
:102FC0007B68002B01D1002306E07B689B681846D4
:102FD000FFF71AFEF860FB6818461037BD4680BD43
:102FE00080B584B000AF7860396039687868FFF7E1
:102FF000E2FFB860BB68002B10D00023FB6007E045
:10300000BA68FB68134400221A70FB680133FB6046
:103010007B681B685A68FB689A42F1D8BB681846FF
:103020001037BD4680BD80B584B000AF7860396090
:103030007B68002B01D180232CE00023FB60FFF78D
:103040009BFA0346002B18D07B68586807F10C02E6
:103050003946002302F074FB0346012B01D0FF2305
:1030600018E0FB68002B14D00C4B4FF080521A6014
:10307000BFF34F8FBFF36F8F0BE07B685868394603
:103080000023002202F062FA0346012B01D0FF2345
:1030900000E0002318461037BD4680BD04ED00E077
:1030A00090B58BB000AFF860B9607A60BB68FB6127
:1030B000BB68002B0AD180237B61FB681C4607F1AB
:1030C000140393E8070084E8070056E000233B62FE
:1030D00000237B627B68B3F1FF3F03D14FF0FF33E6
:1030E0007B6209E07B68002B06D07B687B627B6A91
:1030F000002B01D101237B62FFF73EFA0346002B30
:103100001DD0BB68586807F1200207F1140304338F
:10311000194602F045FD0346012B02D120237B61B5
:1031200001E000237B613B6A002B1ED0154B4FF062
:1031300080521A60BFF34F8FBFF36F8F15E0BB68EB
:10314000586807F11403191D00237A6A02F015FC70
:103150000346012B02D120237B6106E07B6A002B12
:1031600001D1002300E040237B61FB681C4607F18E
:10317000140393E8070084E80700F8682C37BD467D
:1031800090BD00BF04ED00E080B582B000AF786074
:1031900039607B68002B01D1802306E07B689B6847
:1031A00039681846FFF7A7FD034618460837BD469D
:1031B00080BD80B500AF01F06BFC0346012B01D050
:1031C00003F089FC00BF80BD80B582B000AF78609D
:1031D000786800F04FFC002318460837BD4680BDD4
:1031E00080B582B000AF7860FFF7C6F90346002BC8
:1031F0000ED0786800F05CFD0346012B0BD1084B24
:103200004FF080521A60BFF34F8FBFF36F8F02E011
:10321000786800F0F1FC002318460837BD4680BDF1
:1032200004ED00E080B500AF00F010FE002318466A
:1032300080BD80B500AF00F017FE0346012B01D121
:10324000002300E0FF23184680BD80B483B000AFA8
:1032500078603960812318460C37BD465DF8047BE1
:10326000704780B483B000AF7860812318460C3774
:10327000BD465DF8047B704780B483B000AF7860D2
:10328000002318460C37BD465DF8047B704790B5A7
:1032900089B000AFF860B9607A60BB68BB61BB6899
:1032A000002B0AD180233B61FB681C4607F1100309
:1032B00093E8070084E8070030E00023FB617B68A7
:1032C000B3F1FF3F03D14FF0FF33FB6109E07B68AF
:1032D000002B06D07B68FB61FB69002B01D1012329
:1032E000FB6107F11003191D0123FA69B86802F0A8
:1032F00044FB0346012B02D110233B6106E0FB692E
:10330000002B01D1002300E040233B61FB681C46F9
:1033100007F1100393E8070084E80700F8682437F2
:10332000BD4690BD80B582B000AF7860FFF724F94C
:103330000346002B04D0786802F053FD034603E0F7
:10334000786802F00FFD034618460837BD4680BD79
:1033500080B582B000AF7860786802F020FD034647
:1033600018460837BD4680BD80B582B000AF786092
:10337000FFF702F90346002B01D0822303E07868AF
:1033800002F04AFD002318460837BD4680BD80B4D0
:1033900083B000AF7860002318460C37BD465DF857
:1033A000047B704780B483B000AF786081231846F7
:1033B0000C37BD465DF8047B704780B483B000AF26
:1033C00078603960812318460C37BD465DF8047B70
:1033D000704780B582B000AF7860786802F0C2FCB8
:1033E000034618460837BD4680BD00BF80B58CB087
:1033F00004AFF860B9603B601346FB80FB889B001C
:10340000184602F0CDFF78617B69002B0ED05C205E
:1034100002F0C6FFF861FB69002B03D0FB697A69F3
:103420001A6305E0786903F07DF801E00023FB6191
:10343000FB69002B13D0FA8800230393FB690293E6
:10344000FB6A0193BB6A00933B68B968F86800F0B7
:103450000EF8F86900F091F80123BB6102E04FF02B
:10346000FF33BB61BB6918462037BD4680BD80B5C0
:1034700088B000AFF860B9607A603B603B6B186B56
:103480007B689B001A46A52107F02EFF3B6B1A6B49
:103490007B6803F18043013B9B001344BB61BB6924
:1034A00023F00703BB61BB6903F00703002B09D0BE
:1034B0004FF0500383F31188BFF36F8FBFF34F8F2B
:1034C0007B61FEE70023FB6112E0BA68FB691344ED
:1034D00019783A6BFB69134434330A461A70BA6898
:1034E000FB6913441B78002B06D0FB690133FB6199
:1034F000FB690F2BE9D900E000BF3B6B002283F88A
:103500004320BB6A062B01D90623BB623B6BBA6A18
:10351000DA623B6BBA6ADA643B6B00221A653B6B7A
:103520000433184602F0A8FE3B6B1833184602F02D
:10353000A3FE3B6B3A6B1A61BB6AC3F107023B6B9C
:103540009A613B6B3A6B5A623B6B00225A653B6B4C
:10355000002283F858203A68F968B86903F018F92E
:1035600002463B6B1A60FB6A002B02D0FB6A3A6B87
:103570001A6000BF2037BD4680BD80B582B000AF65
:10358000786003F01DFA2D4B1B6801332B4A136042
:103590002B4B1B68002B09D1294A7B681360274BF2
:1035A0001B68012B10D101F0E5F80DE0254B1B68DD
:1035B000002B09D1224B1B68DA6A7B68DB6A9A42CE
:1035C00002D81F4A7B6813601F4B1B6801331E4AD9
:1035D00013601D4B1A687B685A647B68DB6A0122A2
:1035E0009A401A4B1B681343184A13607B68DA6AC7
:1035F00013469B0013449B00154A1A447B6804330E
:103600001946104602F045FE03F008FA0D4B1B6800
:10361000002B0ED00A4B1B68DA6A7B68DB6A9A4281
:1036200007D20C4B4FF080521A60BFF34F8FBFF39D
:103630006F8F00BF0837BD4680BD00BF440D00201E
:10364000440C0020500D0020600D00204C0D002087
:10365000480C002004ED00E080B584B000AF786035
:1036600003F0AEF97B68002B02D1384B1B6800E0F9
:103670007B68FB60FB680433184602F067FE034674
:10368000002B15D1FB68DA6A314913469B001344BD
:103690009B000B441B68002B0AD1FB68DB6A0122EC
:1036A00002FA03F3DA432B4B1B681340294A1360D9
:1036B000FB689B6A002B04D0FB681833184602F0A5
:1036C00045FE254B1B680133234A13601F4B1B68C3
:1036D000FA689A420BD1FB68043319461F4802F07E
:1036E000D8FD1F4B1B6801331D4A136009E01D4BB9
:1036F0001B68013B1B4A1360F86801F083F901F075
:1037000091F903F08BF9184B1B68002B1AD00F4B63
:103710001B68FA689A4215D1144B1B68002B09D01C
:103720004FF0500383F31188BFF36F8FBFF34F8FB8
:10373000BB60FEE70E4B4FF080521A60BFF34F8F15
:10374000BFF36F8F00BF1037BD4680BD440C002013
:10375000480C00204C0D0020600D0020180D0020AA
:103760002C0D0020440D0020500D00206C0D002079
:1037700004ED00E080B584B000AF78600023FB600A
:103780007B68002B16D0134B1B68002B09D04FF021
:10379000500383F31188BFF36F8FBFF34F8FBB606C
:1037A000FEE700F053FB0021786801F073FD00F0A4
:1037B0005BFBF860FB68002B07D1074B4FF0805292
:1037C0001A60BFF34F8FBFF36F8F00BF1037BD4636
:1037D00080BD00BF6C0D002004ED00E080B586B018
:1037E00000AF78607B683B613B69002B09D14FF0EB
:1037F000500383F31188BFF36F8FBFF34F8FBB600C
:10380000FEE71D4B1B683A699A4202D10023FB7503
:103810002DE003F0D5F83B695B69FB6003F0FEF82F
:10382000164B1B68FA689A4204D0154B1B68FA685D
:103830009A4202D10223FB7519E0FB68114A9342B8
:1038400009D13B699B6A002B02D10323FB750EE073
:103850000223FB750BE0FB680B4A934202D0FB6826
:10386000002B02D10423FB7501E00123FB75FB7DD6
:1038700018461837BD4680BD440C0020FC0C0020C3
:10388000000D0020300D0020180D002080B584B000
:1038900000AF786003F094F87B68002B02D1074BEF
:1038A0001B6800E07B68FB60FB68DB6ABB6003F0C1
:1038B000B5F8BB6818461037BD4680BD440C0020E3
:1038C00080B588B000AF786003F04AF9EFF3118259
:1038D0004FF0500383F31188BFF36F8FBFF34F8F07
:1038E0003A61FB603B69FB617B68002B02D1094BAD
:1038F0001B6800E07B68BB61BB69DB6A7B61FB69BD
:10390000BB60BB6883F311887B6918462037BD46CE
:1039100080BD00BF440C002080B588B000AF786047
:1039200039600023FB613B68062B09D94FF0500337
:1039300083F31188BFF36F8FBFF34F8FFB60FEE7F8
:103940003B68062B01D906233B6003F039F87B68FE
:10395000002B02D1434B1B6800E07B68BB61BB6955
:10396000DB6C7B617A693B689A4274D03A687B6908
:103970009A420DD93B4B1B68BA699A420FD0394B1A
:103980001B68DA6A3B689A4209D80123FB6106E0AA
:10399000344B1B68BA699A4201D10123FB61BB69B0
:1039A000DB6A3B61BB69DA6CBB69DB6A9A4202D1B4
:1039B000BB693A68DA62BB693A68DA64BB699B69D9
:1039C000002B04DB3B68C3F10702BB699A61BB694A
:1039D00059693A6913469B0013449B00224A1344D9
:1039E000994201D1012300E00023002B28D0BB69BC
:1039F0000433184602F0AAFC0346002B09D1012229
:103A00003B6902FA03F3DA43184B1B681340174A69
:103A10001360BB69DB6A01229A40144B1B68134395
:103A2000124A1360BB69DA6A13469B0013449B0079
:103A30000D4A1A44BB6904331946104602F029FCAA
:103A4000FB69002B07D00A4B4FF080521A60BFF37E
:103A50004F8FBFF36F8F02F0E1FF00BF2037BD46ED
:103A600080BD00BF440C0020480C00204C0D0020FD
:103A700004ED00E080B584B000AF786002F0A0FFF4
:103A80007B68002B02D1374B1B6800E07B68FB6032
:103A9000FB680433184602F059FC0346002B15D18D
:103AA000FB68DA6A304913469B0013449B000B44C1
:103AB0001B68002B0AD1FB68DB6A012202FA03F3C0
:103AC000DA432A4B1B681340284A1360FB689B6A41
:103AD000002B04D0FB681833184602F037FCFB6853
:103AE00004331946224802F0D4FB02F097FF214B21
:103AF0001B68002B05D002F063FF00F093FF02F07B
:103B00008DFF184B1B68FA689A4226D1194B1B6827
:103B1000002B16D0184B1B68002B09D04FF0500318
:103B200083F31188BFF36F8FBFF34F8FBB60FEE746
:103B3000124B4FF080521A60BFF34F8FBFF36F8F5D
:103B40000BE00B4B1A680E4B1B689A4203D1054BD6
:103B500000221A6001E000F0BFFB00BF1037BD4635
:103B600080BD00BF440C0020480C00204C0D0020FC
:103B7000300D0020500D00206C0D002004ED00E001
:103B8000440D002080B487B000AF786000237B61D3
:103B90007B683B617B68002B09D14FF0500383F3B6
:103BA0001188BFF36F8FBFF34F8FFB60FEE73B6958
:103BB0005B690F4A934201D1012300E00023002BEF
:103BC0000FD03B699B6A0B4A93420AD03B699B6AC0
:103BD000002B01D1012300E00023002B01D00123A1
:103BE0007B617B6918461C37BD465DF8047B7047D6
:103BF000300D0020040D002080B584B000AF786047
:103C00007B68FB607B68002B09D14FF0500383F386
:103C10001188BFF36F8FBFF34F8FBB60FEE7FB6868
:103C2000002B39D01E4B1B68FA689A4234D002F040
:103C3000C7FEF868FFF7A6FF0346002B2AD0FB68F3
:103C40000433184602F082FBFB68DB6A01229A40CB
:103C5000144B1B681343134A1360FB68DA6A13465C
:103C60009B0013449B00104A1A44FB680433194616
:103C7000104602F00EFBFB68DA6A094B1B68DB6A30
:103C80009A4207D3094B4FF080521A60BFF34F8F0F
:103C9000BFF36F8F02F0C2FE00BF1037BD4680BD7C
:103CA000440C00204C0D0020480C002004ED00E0E6
:103CB00080B58AB000AF786000237B627B683B628E
:103CC0007B68002B09D14FF0500383F31188BFF3B9
:103CD0006F8FBFF34F8FBB61FEE702F041FFEFF341
:103CE00011824FF0500383F31188BFF36F8FBFF33E
:103CF0004F8F7A613B617B69FB61386AFFF742FF56
:103D00000346002B2FD01D4B1B68002B25D13B6A8F
:103D1000DA6A1B4B1B68DB6A9A4201D301237B6280
:103D20003B6A0433184602F011FB3B6ADB6A01224E
:103D30009A40144B1B681343124A13603B6ADA6AB9
:103D400013469B0013449B000F4A1A443B6A0433FA
:103D50001946104602F09DFA05E03B6A18331946F1
:103D60000A4802F096FAFB69FB60FB6883F311884E
:103D70007B6A18462837BD4680BD00BF6C0D002009
:103D8000440C00204C0D0020480C0020040D0020A5
:103D900080B586B002AF1B4B019300230093002334
:103DA000802219491948FFF721FBF860FB68012BB5
:103DB00015D14FF0500383F31188BFF36F8FBFF31A
:103DC0004F8FBB60124B4FF0FF321A60114B012234
:103DD0001A60114B00221A6002F04BFD0DE0FB68E7
:103DE000B3F1FF3F09D14FF0500383F31188BFF3C4
:103DF0006F8FBFF34F8F7B60FEE700BF1037BD466C
:103E000080BD00BF680D0020301101084747000841
:103E1000640D0020500D0020480D002080B582B0B8
:103E200000AF4FF0500383F31188BFF36F8FBFF3E0
:103E30004F8F7B60044B00221A6002F0A7FD00BF89
:103E40000837BD4680BD00BF500D002080B400AFD4
:103E5000044B1B680133034A136000BFBD465DF885
:103E6000047B70476C0D002080B584B000AF002348
:103E7000FB600023BB60414B1B68002B09D14FF056
:103E8000500383F31188BFF36F8FBFF34F8F3B60F5
:103E9000FEE702F095FD394B1B68013B374A136082
:103EA000364B1B68002B61D1354B1B68002B5DD056
:103EB0002EE0344BDB68DB68FB60FB681833184688
:103EC00002F044FAFB680433184602F03FFAFB683C
:103ED000DB6A01229A402C4B1B6813432A4A136069
:103EE000FB68DA6A13469B0013449B00274A1A4476
:103EF000FB6804331946104602F0CBF9FB68DA6A16
:103F0000234B1B68DB6A9A4202D3224B01221A60C0
:103F10001C4B1B68002BCCD1FB68002B01D000F0A0
:103F200081FD1D4B1B687B607B68002B10D000F06F
:103F300017F90346002B02D0164B01221A607B684A
:103F4000013B7B607B68002BF1D1134B00221A6090
:103F5000104B1B68002B09D00123BB600F4B4FF0A7
:103F600080521A60BFF34F8FBFF36F8F02F056FD80
:103F7000BB6818461037BD4680BD00BF6C0D0020E1
:103F8000440D0020040D00204C0D0020480C0020A2
:103F9000440C0020580D0020540D002004ED00E0DA
:103FA00080B483B000AF054B1B687B607B6818460C
:103FB0000C37BD465DF8047B704700BF480D0020FC
:103FC00080B582B000AF02F0CBFD00237B60044BD4
:103FD0001B683B603B6818460837BD4680BD00BF84
:103FE000480D002080B400AF034B1B681846BD4647
:103FF0005DF8047B704700BF440D002080B485B09D
:1040000000AF78607B68002B02D10D4B1B6800E08D
:104010007B68FB60FB68002B09D14FF0500383F3F2
:104020001188BFF36F8FBFF34F8FBB60FEE7FB6854
:10403000343318461437BD465DF8047B704700BF23
:10404000440C002080B586B000AFF860B9607A609B
:1040500000237B6107233B61FFF7F8FE3A4B1B68A7
:10406000BA689A4268D33B69013B3B617A6913465F
:10407000DB0013449B001A46FB6898183A69134604
:104080009B0013449B00314A13440122194600F05F
:104090004BFC02467B6913447B613B69002BE2D1F8
:1040A0007A691346DB0013449B001A46FB68981894
:1040B000274B1B680222194600F036FC02467B693A
:1040C00013447B617A691346DB0013449B001A4654
:1040D000FB6898181F4B1B680222194600F024FC4D
:1040E00002467B6913447B617A691346DB00134403
:1040F0009B001A46FB68134404221749184600F037
:1041000013FC02467B6913447B617A691346DB002A
:1041100013449B001A46FB68134403220F491846B8
:1041200000F002FC02467B6913447B617B68002B34
:1041300002D07B6800221A60FFF796FE7B69184662
:104140001837BD4680BD00BF440D0020480C00203C
:10415000FC0C0020000D0020180D0020300D002068
:1041600080B586B000AF00237B61504B1B68002BED
:1041700040F08C804E4B1B6801333B614C4A3B69DD
:1041800013603B69002B1FD14A4B1B681B68002B37
:1041900009D04FF0500383F31188BFF36F8FBFF343
:1041A0004F8F3B60FEE7434B1B68FB60424B1B6835
:1041B000404A1360404AFB681360404B1B68013360
:1041C0003E4A136000F02EFC3D4B1B683A699A4250
:1041D0004DD3384B1B681B68002B01D1012300E035
:1041E0000023002B04D0364B4FF0FF321A603EE024
:1041F000304B1B68DB68DB68BB60BB685B687B605F
:104200003A697B689A4203D22D4A7B6813602EE09C
:10421000BB680433184602F099F8BB689B6A002B10
:1042200004D0BB681833184602F090F8BB68DB6A0C
:1042300001229A40234B1B681343224A1360BB6838
:10424000DA6A13469B0013449B001F4A1A44BB685A
:1042500004331946104602F01CF8BB68DA6A1B4B9F
:104260001B68DB6A9A42B4D301237B61B1E7174B29
:104270001B68DA6A144913469B0013449B000B44E5
:104280001B68012B07D901237B6104E0104B1B68DD
:1042900001330F4A13600F4B1B68002B01D0012321
:1042A0007B617B6918461837BD4680BD6C0D0020C8
:1042B000480D0020FC0C0020000D00205C0D0020AB
:1042C000640D00204C0D0020480C0020440C002000
:1042D000540D0020580D002080B487B000AF264B4D
:1042E0001B68002B03D0254B01221A603EE0234BB4
:1042F00000221A60224B1B68FB60FB68B3FA83F351
:10430000FB72FB7AC3F11F037B611E497A69134676
:104310009B0013449B000B441B68002B09D14FF0FA
:10432000500383F31188BFF36F8FBFF34F8F7B6010
:10433000FEE77A6913469B0013449B00114A13441D
:104340003B613B695B685A683B695A603B695A68E4
:104350003B6908339A4204D13B695B685A683B6900
:104360005A603B695B68DB68074A136000BF1C3713
:10437000BD465DF8047B70476C0D0020580D002091
:104380004C0D0020480C0020440C002080B584B067
:1043900000AF786039607B68002B09D14FF0500383
:1043A00083F31188BFF36F8FBFF34F8FFB60FEE77E
:1043B000074B1B6818331946786801F08EFF0121FE
:1043C000386800F067FF00BF1037BD4680BD00BFF2
:1043D000440C002080B586B000AFF860B9607A6008
:1043E000FB68002B09D14FF0500383F31188BFF312
:1043F0006F8FBFF34F8F7B61FEE7114B1B68002B64
:1044000009D14FF0500383F31188BFF36F8FBFF3CF
:104410004F8F3B61FEE70B4B1B68BA6842F00042CE
:104420009A61084B1B6818331946F86801F031FF90
:104430000121786800F02EFF00BF1837BD4680BD0F
:104440006C0D0020440C002080B586B000AF786071
:104450007B68DB68DB683B613B69002B09D14FF06F
:10446000500383F31188BFF36F8FBFF34F8FFB604F
:10447000FEE73B691833184601F068FF1D4B1B68C7
:10448000002B1CD13B690433184601F05FFF3B69E8
:10449000DB6A01229A40184B1B681343164A1360CB
:1044A0003B69DA6A13469B0013449B00134A1A4483
:1044B0003B6904331946104601F0EBFE05E03B6909
:1044C000183319460E4801F0E4FE3B69DA6A0D4BD9
:1044D0001B68DB6A9A4205D901237B610A4B0122E2
:1044E0001A6001E000237B617B6918461837BD46DE
:1044F00080BD00BF6C0D00204C0D0020480C00203A
:10450000040D0020440C0020580D002080B586B01A
:1045100000AF786039602B4B1B68002B09D14FF03E
:10452000500383F31188BFF36F8FBFF34F8FFB608E
:10453000FEE73B6843F000427B681A607B68DB68FB
:104540003B613B69002B09D14FF0500383F3118885
:10455000BFF36F8FBFF34F8FBB60FEE7786801F04A
:10456000F5FE3B690433184601F0F0FE3B69DB6A57
:1045700001229A40144B1B681343134A13603B6992
:10458000DA6A13469B0013449B00104A1A443B69A5
:1045900004331946104601F07CFE3B69DA6A0C4B85
:1045A0001B68DB6A9A4205D901237B61094B012212
:1045B0001A6001E000237B617B6918461837BD460D
:1045C00080BD00BF6C0D00204C0D0020480C002069
:1045D000440C0020580D002080B485B000AF7860F6
:1045E0007B68002B09D14FF0500383F31188BFF390
:1045F0006F8FBFF34F8FFB60FEE7074B1A687B6836
:104600001A60064B1A687B685A6000BF1437BD46B3
:104610005DF8047B704700BF5C0D0020480D002052
:1046200080B586B000AF786039607B68002B09D117
:104630004FF0500383F31188BFF36F8FBFF34F8F99
:10464000FB60FEE73B68002B09D14FF0500383F37A
:104650001188BFF36F8FBFF34F8FBB60FEE702F08F
:10466000AFF91C4B1B683B613B681B68B3F1FF3F14
:1046700002D100237B6126E07B681A68164B1B6819
:104680009A4207D07B685A683B699A4202D8012354
:104690007B6118E07B685B683A69D21A3B681B68EB
:1046A0009A420ED23B681A687B6859683B69CB1AFC
:1046B0001A443B681A607868FFF78EFF00237B611D
:1046C00001E001237B6102F0A9F97B6918461837E4
:1046D000BD4680BD480D00205C0D002080B400AFB9
:1046E000034B01221A6000BFBD465DF8047B704792
:1046F000580D002080B485B000AF78607B68002B37
:1047000005D07B68BB60BB689B6CFB6001E000234D
:10471000FB60FB6818461437BD465DF8047B7047A4
:1047200080B485B000AF786039607B68002B04D01E
:104730007B68FB60FB683A689A6400BF1437BD462B
:104740005DF8047B704780B582B000AF786000F000
:1047500051F8064B1B68012BF9D9054B4FF08052DD
:104760001A60BFF34F8FBFF36F8FF0E7480C002044
:1047700004ED00E080B582B000AF00237B600CE068
:104780007A6813469B0013449B00124A1344184650
:1047900001F052FD7B6801337B607B68062BEFD90B
:1047A0000D4801F049FD0D4801F046FD0C4801F0AF
:1047B00043FD0C4801F040FD0B4801F03DFD0B4B63
:1047C000054A1A600A4B054A1A6000BF0837BD4601
:1047D00080BD00BF480C0020D40C0020E80C002055
:1047E000040D0020180D0020300D0020FC0C0020CE
:1047F000000D002080B582B000AF28E0FFF726FB57
:10480000174B1B68002B0CBF01230023DBB27B601E
:10481000FFF72AFB7B68002B19D102F0D1F8104B6F
:10482000DB68DB683B603B680433184601F08EFDB3
:104830000C4B1B68013B0B4A13600B4B1B68013B85
:10484000094A136002F0EAF8386800F0DBF8064B1A
:104850001B68002BD2D100BF0837BD4680BD00BF0A
:10486000180D0020440D00202C0D002080B586B0CE
:1048700000AFF860B9607A60FB70FB68002B02D172
:10488000284B1B6800E0FB687B61BB687A691A6093
:104890007B6903F13402BB685A607B69DA6ABB68E2
:1048A0001A617B691A6BBB68DA617B695A6CBB68F9
:1048B0009A60BB681B7B032B0AD1FFF7C7FA7B69A1
:1048C0009B6A002B02D0BB6802221A73FFF7CCFA56
:1048D0007B69DA6CBB685A61BB6800229A61FB781D
:1048E000052B03D0BB68FA781A7306E0F868FEF768
:1048F00075FF03461A46BB681A737B68002B09D004
:104900007B691B6B184600F061F803461A46BB68CA
:104910001A8402E0BB6800221A8400BF1837BD4623
:1049200080BD00BF440C002080B58AB000AFF860A5
:10493000B9601346FB7100237B62BB681B68002BC8
:104940003FD0BB683B623B6A5B685A683B6A5A600F
:104950003B6A5A683B6A08339A4204D13B6A5B68F7
:104960005A683B6A5A603B6A5B68DB68FB61BB68FC
:10497000BB61BB695B685A68BB695A60BB695A68AE
:10498000BB6908339A4204D1BB695B685A68BB694A
:104990005A60BB695B68DB687B617A6A1346DB003F
:1049A00013449B001A46FB689918FB790122786929
:1049B000FFF75CFF7B6A01337B627A69FB699A428D
:1049C000D5D17B6A18462837BD4680BD80B485B0F6
:1049D00000AF78600023FB6005E07B6801337B60FB
:1049E000FB680133FB607B681B78A52BF5D0FB6867
:1049F0009B08FB60FB689BB218461437BD465DF808
:104A0000047B704780B582B000AF78607B681B6B19
:104A1000184601F087FD786801F084FD00BF083773
:104A2000BD4680BD80B483B000AF0F4B1B681B68D0
:104A3000002B01D1012300E00023002B04D00B4BFD
:104A40004FF0FF321A6008E0074B1B68DB68DB6839
:104A50007B607B685B68054A136000BF0C37BD460E
:104A60005DF8047B704700BFFC0C0020640D002043
:104A700080B483B000AF054B1B687B607B68184631
:104A80000C37BD465DF8047B704700BF440C002026
:104A900080B483B000AF0B4B1B68002B02D1012305
:104AA0007B6008E0084B1B68002B02D102237B606F
:104AB00001E000237B607B6818460C37BD465DF83B
:104AC000047B7047500D00206C0D002080B584B031
:104AD00000AF78607B68FB607B68002B62D0FB686E
:104AE000DA6A324B1B68DB6A9A425BD2FB689B69CD
:104AF000002B06DB2D4B1B68DB6AC3F10702FB684A
:104B00009A61FB685969FB68DA6A13469B00134493
:104B10009B00274A1344994201D1012300E000235E
:104B2000002B3AD0FB680433184601F00FFC034613
:104B3000002B15D1FB68DA6A1D4913469B0013440C
:104B40009B000B441B68002B0AD1FB68DB6A012227
:104B500002FA03F3DA43174B1B681340154A13603C
:104B6000124B1B68DA6AFB68DA62FB68DB6A0122B7
:104B70009A40104B1B6813430E4A1360FB68DA6AB5
:104B800013469B0013449B00094A1A44FB680433F4
:104B90001946104601F07DFB04E0044B1B68DA6AFD
:104BA000FB68DA6200BF1037BD4680BD440C0020B0
:104BB000480C00204C0D002080B586B000AF786016
:104BC0007B683B6100237B617B68002B6CD0394B99
:104BD0001B683A699A4209D04FF0500383F3118859
:104BE000BFF36F8FBFF34F8FFB60FEE73B691B6D19
:104BF000002B09D14FF0500383F31188BFF36F8F5F
:104C0000BFF34F8FBB60FEE73B691B6D5A1E3B69CC
:104C10001A653B69DA6A3B69DB6C9A4244D03B69AE
:104C20001B6D002B40D13B690433184601F08EFB0D
:104C30000346002B15D13B69DA6A1F4913469B00D6
:104C400013449B000B441B68002B0AD13B69DB6AB1
:104C5000012202FA03F3DA43184B1B681340174A88
:104C600013603B69DA6C3B69DA623B69DB6AC3F16A
:104C700007023B699A613B69DB6A01229A400F4B4C
:104C80001B6813430D4A13603B69DA6A13469B00A5
:104C900013449B00084A1A443B69043319461046E2
:104CA00001F0F7FA01237B617B6918461837BD468E
:104CB00080BD00BF440C0020480C00204C0D00209B
:104CC00080B483B000AF094B1B689B697B60074BC6
:104CD0001B68064A1268D26AC2F107029A617B68B1
:104CE00018460C37BD465DF8047B7047440C002025
:104CF00080B400AF074B1B68002B04D0054B1B682A
:104D00001A6D01321A65034B1B681846BD465DF8E3
:104D1000047B7047440C002080B584B000AF7860FD
:104D2000396001F04DFE1E4B1B685B6D002B13D1EB
:104D30001B4B1B68012283F858203B68002B0BD0CB
:104D40000121386800F0A6FA164B4FF080521A6025
:104D5000BFF34F8FBFF36F8F01F060FE01F030FEA5
:104D60000F4B1B685B6DFB60FB68002B0CD07B68F6
:104D7000002B04D00A4B1B6800225A6504E0084B44
:104D80001B68FA68013A5A65054B1B68002283F8D4
:104D9000582001F043FEFB6818461037BD4680BD21
:104DA000440C002004ED00E080B586B000AFF86050
:104DB000B9607A603B6001F003FE264B1B6893F8F4
:104DC0005830DBB2022B1AD0224B1B68596DFA689F
:104DD000D2430A405A651F4B1B68012283F85820B2
:104DE0003B68002B0BD00121386800F053FA1A4BB6
:104DF0004FF080521A60BFF34F8FBFF36F8F01F0F7
:104E00000DFE01F0DDFD7B68002B04D0114B1B680B
:104E10005A6D7B681A600F4B1B6893F85830DBB2F1
:104E2000012B02D100237B6108E00A4B1B68596DFE
:104E3000BA68D2430A405A6501237B61054B1B685F
:104E4000002283F8582001F0E9FD7B6918461837E5
:104E5000BD4680BD440C002004ED00E080B58AB062
:104E600000AFF860B9603B601346FB7101237B62C1
:104E7000FB68002B09D14FF0500383F31188BFF377
:104E80006F8FBFF34F8FBB61FEE7FB683B6201F0A2
:104E900097FD3B68002B03D03B6A5A6D3B681A6054
:104EA0003B6A93F85830FB773B6A022283F858201C
:104EB000FB79042B27D801A252F823F0074F0008F2
:104EC000D14E0008DF4E0008EB4E0008F34E0008FC
:104ED0003B6A5A6DBB681A433B6A5A6513E03B6AEA
:104EE0005B6D5A1C3B6A5A650DE03B6ABA685A65AD
:104EF00009E0FB7F022B03D03B6ABA685A6501E0E8
:104F000000237B6200BFFB7F012B38D13B6A043357
:104F1000184601F01BFA3B6ADB6A01229A401B4BE0
:104F20001B681343194A13603B6ADA6A13469B00F5
:104F300013449B00164A1A443B6A04331946104630
:104F400001F0A7F93B6A9B6A002B09D04FF0500390
:104F500083F31188BFF36F8FBFF34F8F7B61FEE741
:104F60003B6ADA6A0B4B1B68DB6A9A4207D90A4B29
:104F70004FF080521A60BFF34F8FBFF36F8F01F075
:104F80004DFD7B6A18462837BD4680BD4C0D00207C
:104F9000480C0020440C002004ED00E080B58EB0E9
:104FA00000AFF860B9603B601346FB7101237B637F
:104FB000FB68002B09D14FF0500383F31188BFF336
:104FC0006F8FBFF34F8F7B62FEE701F0C9FDFB6877
:104FD0003B63EFF311824FF0500383F31188BFF36B
:104FE0006F8FBFF34F8F3A62FB613B6AFB623B6896
:104FF000002B03D03B6B5A6D3B681A603B6B93F8F8
:10500000583087F82B303B6B022283F85820FB790D
:10501000042B29D801A252F823F000BF69500008E0
:10502000315000083F5000084B5000085350000812
:105030003B6B5A6DBB681A433B6B5A6514E03B6B84
:105040005B6D5A1C3B6B5A650EE03B6BBA685A6548
:105050000AE097F82B30022B03D03B6BBA685A65F5
:1050600001E000237B6300BF97F82B30012B45D173
:105070003B6B9B6A002B09D04FF0500383F31188E0
:10508000BFF36F8FBFF34F8FBB61FEE7204B1B68F1
:10509000002B1CD13B6B0433184601F057F93B6BD6
:1050A000DB6A01229A401B4B1B681343194A1360A9
:1050B0003B6BDA6A13469B0013449B00164A1A4462
:1050C0003B6B04331946104601F0E3F805E03B6BF7
:1050D00018331946114801F0DCF83B6BDA6A104BC3
:1050E0001B68DB6A9A4209D93B6C002B03D03B6CEE
:1050F00001221A6002E00B4B01221A60FB6A7B61FD
:105100007B6983F311887B6B18463837BD4680BDB9
:105110006C0D00204C0D0020480C0020040D0020D8
:10512000440C0020580D002080B58AB000AF786094
:1051300039607B68002B09D14FF0500383F311884D
:10514000BFF36F8FBFF34F8FBB61FEE701F008FD28
:105150007B687B62EFF311824FF0500383F3118879
:10516000BFF36F8FBFF34F8F7A613B617B693B6207
:105170007B6A93F85830FB777B6A022283F85820C9
:105180007B6A5B6D5A1C7B6A5A65FB7F012B45D19C
:105190007B6A9B6A002B09D04FF0500383F3118880
:1051A000BFF36F8FBFF34F8FFB60FEE7204B1B6891
:1051B000002B1CD17B6A0433184601F0C7F87B6AC8
:1051C000DB6A01229A401B4B1B681343194A136088
:1051D0007B6ADA6A13469B0013449B00164A1A4402
:1051E0007B6A04331946104601F053F805E07B6AE8
:1051F00018331946114801F04CF87B6ADA6A104BF3
:105200001B68DB6A9A4209D93B68002B03D03B68D4
:1052100001221A6002E00B4B01221A603B6ABB605C
:10522000BB6883F3118800BF2837BD4680BD00BF2F
:105230006C0D00204C0D0020480C0020040D0020B7
:10524000440C0020580D002080B584B000AF786079
:105250007B68002B02D10E4B1B6800E07B68BB60B3
:1052600001F0AEFBBB6893F85830DBB2022B06D1DD
:10527000BB68002283F858200123FB6001E0002373
:10528000FB6001F0CBFBFB6818461037BD4680BDC4
:10529000440C002080B584B000AF78603960294BA1
:1052A0001B68FB60284B1B680433184601F04EF85E
:1052B0000346002B0BD1244B1B68DB6A012202FA48
:1052C00003F3DA43214B1B681340204A13607B68C9
:1052D000B3F1FF3F0AD13B68002B07D01A4B1B6884
:1052E000043319461A4800F0D4FF26E0FA687B68B8
:1052F0001344BB60144B1B68BA685A60BA68FB68F9
:105300009A4209D2134B1A680F4B1B680433194693
:10531000104600F0E2FF10E00F4B1A680A4B1B68C2
:1053200004331946104600F0D8FF0C4B1B68BA68CE
:105330009A4202D2094ABB68136000BF1037BD46CB
:1053400080BD00BF480D0020440C00204C0D002003
:10535000300D0020000D0020FC0C0020640D00200A
:1053600080B584B000AF786039607B68FB60FB6813
:10537000002B09D14FF0500383F31188BFF36F8FD7
:10538000BFF34F8FBB60FEE701F01AFBFB681A68A2
:10539000FB68DB6BF968096C01FB03F31A44FB68DB
:1053A0005A60FB6800229A63FB681A68FB689A607F
:1053B000FB681A68FB68DB6B013BF968096C01FB51
:1053C00003F31A44FB68DA60FB68FF2283F8442089
:1053D000FB68FF2283F845203B68002B14D1FB6853
:1053E0001B69002B1AD0FB6810331846FFF72CF806
:1053F0000346002B12D00D4B4FF080521A60BFF3C2
:105400004F8FBFF36F8F09E0FB681033184600F031
:1054100013FFFB682433184600F00EFF01F0FEFA7C
:10542000012318461037BD4680BD00BF04ED00E0E3
:1054300080B58AB002AFF860B9601346FB71FB68B3
:10544000002B09D14FF0500383F31188BFF36F8F06
:10545000BFF34F8F3B61FEE7BB68002B02D10023F7
:10546000FB6104E0FB68BA6802FB03F3FB61FB69C4
:105470005033184600F094FFB861BB69002B0BD085
:10548000BB6950337B61FA79BB69009313467A6933
:10549000B968F86800F005F8BB6918462037BD46C2
:1054A00080BD80B584B000AFF860B9607A60FB70F1
:1054B000BB68002B03D1BB69BA691A6002E0BB6903
:1054C0007A681A60BB69FA68DA63BB69BA681A64F9
:1054D0000121B869FFF744FFBB69FA7883F84C20D3
:1054E00000BF1037BD4680BD80B582B000AF786088
:1054F0007B68002B0ED07B6800225A607B680022FC
:105500001A607B680022DA6000230022002178689C
:1055100000F01CF800BF0837BD4680BD80B586B0DE
:1055200000AF0346FB7101237B6100233B61FB79E4
:105530001A4639697869FFF77BFFF860F868FFF76A
:10554000D3FFFB6818461837BD4680BD80B58EB0C6
:1055500000AFF860B9607A603B6000237B63FB6852
:105560003B633B6B002B09D14FF0500383F3118851
:10557000BFF36F8FBFF34F8FBB62FEE7BB68002B9B
:1055800003D13B6B1B6C002B01D1012300E00023F6
:10559000002B09D14FF0500383F31188BFF36F8FB5
:1055A000BFF34F8F7B62FEE73B68022B03D13B6B5F
:1055B000DB6B012B01D1012300E00023002B09D17B
:1055C0004FF0500383F31188BFF36F8FBFF34F8FFA
:1055D0003B62FEE7FFF75CFA0346002B02D17B68D3
:1055E000002B01D1012300E00023002B09D14FF053
:1055F000500383F31188BFF36F8FBFF34F8FFB61AD
:10560000FEE701F0DDF93B6B9A6B3B6BDB6B9A427B
:1056100002D33B68022B29D13A68B968386B00F095
:105620003FFCF8623B6B5B6A002B10D03B6B243372
:105630001846FEF709FF0346002B13D03F4B4FF0EF
:1056400080521A60BFF34F8FBFF36F8F0AE0FB6A7F
:10565000002B07D0394B4FF080521A60BFF34F8FA9
:10566000BFF36F8F01F0DAF9012363E07B68002B51
:1056700003D101F0D3F900235CE07B6B002B06D152
:1056800007F114031846FEF7A7FF01237B6301F01F
:10569000C5F9FEF7DBFB01F093F93B6B93F844305F
:1056A0005BB2B3F1FF3F03D13B6B002283F8442090
:1056B0003B6B93F845305BB2B3F1FF3F03D13B6BDB
:1056C000002283F8452001F0A9F93A1D07F11403DF
:1056D00011461846FEF7A4FF0346002B24D1386B71
:1056E00000F0F7FC0346002B18D03B6B10337A68B0
:1056F00011461846FEF74AFE386B00F061FCFEF7D3
:10570000B3FB0346002B7FF47CAF0C4B4FF0805271
:105710001A60BFF34F8FBFF36F8F72E7386B00F0E3
:105720004FFCFEF7A1FB6CE7386B00F049FCFEF77D
:105730009BFB002318463837BD4680BD04ED00E0D2
:1057400080B58EB000AFF860B9607A603B60FB68EE
:105750003B633B6B002B09D14FF0500383F311885F
:10576000BFF36F8FBFF34F8F7B62FEE7BB68002BE9
:1057700003D13B6B1B6C002B01D1012300E0002304
:10578000002B09D14FF0500383F31188BFF36F8FC3
:10579000BFF34F8F3B62FEE73B68022B03D13B6BAD
:1057A000DB6B012B01D1012300E00023002B09D189
:1057B0004FF0500383F31188BFF36F8FBFF34F8F08
:1057C000FB61FEE701F0CCF9EFF311824FF05003DB
:1057D00083F31188BFF36F8FBFF34F8FBA617B6183
:1057E000BB69FB623B6B9A6B3B6BDB6B9A4202D3F0
:1057F0003B68022B2CD13B6B93F8453087F82B305C
:105800003A68B968386B00F04BFB97F92B30B3F16D
:10581000FF3F12D13B6B5B6A002B16D03B6B2433EE
:105820001846FEF711FE0346002B0ED07B68002BB6
:105830000BD07B6801221A6007E097F82B30013308
:10584000DBB25AB23B6B83F8452001237B6301E056
:1058500000237B63FB6A3B613B6983F311887B6BAD
:1058600018463837BD4680BD80B58EB000AF786031
:1058700039607B683B633B6B002B09D14FF05003D1
:1058800083F31188BFF36F8FBFF34F8F3B62FEE747
:105890003B6B1B6C002B09D04FF0500383F3118836
:1058A000BFF36F8FBFF34F8FFB61FEE73B6B1B684E
:1058B000002B03D13B6B5B68002B01D1012300E07F
:1058C0000023002B09D14FF0500383F31188BFF35D
:1058D0006F8FBFF34F8FBB61FEE701F041F9EFF32C
:1058E00011824FF0500383F31188BFF36F8FBFF322
:1058F0004F8F7A613B617B69FB623B6B9B6BBB6249
:105900003B6BDA6BBB6A9A422BD93B6B93F8453001
:1059100087F82730BB6A5A1C3B6B9A6397F927308C
:10592000B3F1FF3F12D13B6B5B6A002B16D03B6B90
:1059300024331846FEF788FD0346002B0ED03B6843
:10594000002B0BD03B6801221A6007E097F8273044
:105950000133DBB25AB23B6B83F8452001237B63F2
:1059600001E000237B63FB6AFB60FB6883F3118823
:105970007B6B18463837BD4680BD80B58EB000AF12
:10598000F860B9607A603B6000237B63FB683B632F
:105990003B6B002B09D14FF0500383F31188BFF309
:1059A0006F8FBFF34F8F7B62FEE7BB68002B03D185
:1059B0003B6B1B6C002B01D1012300E00023002B6B
:1059C00009D14FF0500383F31188BFF36F8FBFF3FA
:1059D0004F8F3B62FEE7FFF75BF80346002B02D1D7
:1059E0007B68002B01D1012300E00023002B09D1AB
:1059F0004FF0500383F31188BFF36F8FBFF34F8FC6
:105A0000FB61FEE700F0DCFF3B6B9B6BFB62FB6A1C
:105A1000002B46D03B6BDB68BB62B968386B00F08B
:105A2000A9FA3B68002B21D1FB6A5A1E3B6B9A6393
:105A30003B6B1B68002B04D1FFF75AF902463B6B06
:105A40005A603B6B1B69002B27D03B6B1033184609
:105A5000FEF7FAFC0346002B1FD0504B4FF080524C
:105A60001A60BFF34F8FBFF36F8F16E03B6BBA6ABC
:105A7000DA603B6B5B6A002B0FD03B6B243318461C
:105A8000FEF7E2FC0346002B07D0444B4FF0805258
:105A90001A60BFF34F8FBFF36F8F00F0BFFF01237A
:105AA00077E07B68002B03D100F0B8FF002370E0A3
:105AB0007B6B002B06D107F114031846FEF78CFD13
:105AC00001237B6300F0AAFFFEF7C0F900F078FF26
:105AD0003B6B93F844305BB2B3F1FF3F03D13B6BB8
:105AE000002283F844203B6B93F845305BB2B3F15E
:105AF000FF3F03D13B6B002283F8452000F08EFF6F
:105B00003A1D07F1140311461846FEF789FD0346B6
