:020000040800F2
:10000000000002208DD70008AD0C0008BB0C0008D2
:10001000C10C0008C70C0008CD0C0008000000004F
:10002000000000000000000000000000758D0008C6
:10003000D30C000800000000AD8F000817900008E6
:10004000D5D70008D5D70008D5D70008D5D70008E0
:10005000D5D70008D5D700086F060008D5D7000807
:10006000D5D70008D5D70008D5D70008D5D70008C0
:10007000D5D70008D5D70008D5D70008D5D70008B0
:10008000D5D70008D5D70008D5D70008D5D70008A0
:10009000D5D70008D5D70008D5D70008D5D7000890
:1000A000D5D70008D5D70008D5D70008D5D7000880
:1000B000D5D70008D5D70008D5D70008D5D7000870
:1000C000D5D70008D5D70008D5D70008D5D7000860
:1000D000D5D70008D5D70008D5D70008D5D7000850
:1000E000D5D70008D5D70008E10C0008D5D70008FF
:1000F000D5D70008D5D70008D5D70008D5D7000830
:10010000D5D70008D5D70008D5D70008D5D700081F
:10011000D5D70008D5D70008D5D70008D5D700080F
:10012000D5D70008D5D70008D5D70008D5D70008FF
:10013000D5D70008D5D70008D5D70008D5D70008EF
:10014000D5D70008D5D70008D5D70008190D000865
:10015000D5D70008D5D70008D5D70008D5D70008CF
:10016000D5D70008D5D70008D5D70008D5D70008BF
:10017000D5D70008D5D70008D5D70008D5D70008AF
:08018000D5D70008D5D700080F
:1001C00080B483B000AF03463960FB7197F9073004
:1001D000002B0BDA0D49FB7903F00F03043B3A685F
:1001E000D2B21201D2B20B441A7609E0084997F94B
:1001F00007303A68D2B21201D2B20B4483F800231E
:1002000000BF0C37BD465DF8047B704700ED00E091
:1002100000E100E080B582B000AF78607B68B3F1A8
:10022000807F01D3012311E00A4A7B6823F07F43DA
:10023000013B53600F214FF0FF30FFF7C1FF054B2B
:1002400000229A60034B07221A60002318460837E1
:10025000BD4680BD10E000E080B58AB000AF01214E
:10026000082001F07DFF4FF480533B62022387F8A2
:100270002430022387F8253007F1200319461F4850
:1002800002F08CFB0121042001F0CAFF49F6404333
:10029000BB820023FB824FF4FA73BB610023BB8354
:1002A0000023BB7707F114031946154802F0A8FE96
:1002B0000121134803F027F83B4600221A605A60D8
:1002C0009A60DA601A6160233B804FF4C873BB60A8
:1002D00001237B800023BB813B461946084803F07D
:1002E00032F80821064803F046FB02220C2103489D
:1002F00002F0C3FC00BF2837BD4680BD000C0240A1
:100300000008004080B58CB000AF0121022001F050
:10031000A7FF4FF400737B62022387F82930022382
:1003200087F8283007F124031946454802F036FBC8
:100330004FF400737B62022387F82930022387F889
:10034000283007F1240319463D4802F027FB4FF4FB
:1003500000737B62022387F82930022387F8283054
:1003600007F124031946364802F018FB4FF40073D6
:100370007B62022387F82930022387F8283007F1AF
:10038000240319462E4802F009FB0023FB620023D8
:100390003B8401233B8300237B83FB6AFB6107F1E2
:1003A00018031946274802F02BFE6023BB80012367
:1003B000FB800023FB6000233B8200237B824FF401
:1003C0008073BB820023FB823B1D19461D4802F04F
:1003D000BAFF0123FB800023FB603B1D194619482F
:1003E00003F02CF80123FB800023FB603B1D194622
:1003F000144803F0ABF80123FB800023FB603B1D96
:100400001946104803F028F901210E4802F07BFF3D
:1004100001210C4803F0E3FE00210A4803F029FA09
:100420000021084803F009FA0021064803F0F7F913
:100430000021044803F00FFA00BF3037BD4680BDED
:10044000000802400004014080B584B000AF0121E3
:10045000042001F0E5FE49F64043BB800023FB8009
:100460004FF4FA73BB600023BB810023BB733B1DB9
:100470001946054802F0C4FD0121034802F043FF7C
:1004800000BF1037BD4680BD0008004080B586B073
:1004900000AF3B1D00221A605A609A60DA601A6150
:1004A0006023BB804FF4C873FB600123FB800023F3
:1004B0003B823B1D1946084802F045FF08210648CB
:1004C00003F059FA02220C21044802F0D6FB00BFC7
:1004D0001837BD4680BD00BF00080040000C024038
:1004E00080B586B000AF3B1D00221A605A609A604A
:1004F000DA601A616023BB806423FB600123FB8008
:1005000000233B823B1D1946074802F097FF082154
:10051000054803F04CFA02220D21044802F0ADFB1D
:1005200000BF1837BD4680BD00080040000C0240E7
:1005300080B582B000AF0121082001F011FE4FF418
:1005400040533B6002233B7102237B713B461946BB
:10055000034802F023FA00BF0837BD4680BD00BF44
:10056000000C024080B588B000AF324B1B68324AA5
:10057000A2FB03239B091846FFF74CFE0346002B02
:1005800000D0FEE70121082001F0EAFD4FF470439E
:10059000BB6101233B770023BB7703237B770023D9
:1005A000FB7707F118031946244802F0F7F90121F7
:1005B000012001F0D5FD01214FF4804001F050FEF3
:1005C00000233B750023BB7501233B610223FB75B0
:1005D00000237B7507F110031946194802F0DEF974
:1005E0000021002002F0B0FB0123BB600123BB739C
:1005F00000233B7308237B7307F10803184602F0BE
:1006000045F806233B710123FB7100237B71002316
:10061000BB713B1D184601F0FBF9FFF789FFFFF79F
:1006200013FFFFF733FFFFF75BFF00BF2037BD4627
:1006300080BD00BF2C000020D34D6210000C024092
:100640000000024080B483B000AF78607B684FF454
:100650007A7202FB03F37B607B685A1E7A60002B80
:10066000FADC00BF0C37BD465DF8047B704780B5EF
:1006700000AF012002F0CEF80346002B0AD0064B53
:1006800001221A604FF48041044802F09FFA0120D1
:1006900002F0E4F800BF80BDEC0A0020000C02402C
:1006A00080B582B000AF78604FF400510D4802F081
:1006B0008DFAFA2004F0B3FA0B4B1B68002B07D01D
:1006C000094B00221A604FF48041064802F08DFA6F
:1006D0004FF40051034802F088FAFA2004F09FFA20
:1006E000E2E700BF000C0240EC0A002080B500AF3A
:1006F0000849094801F0C6F8064B1B68002B03D1D6
:10070000012004F08CFAF3E700BF024B1B689B78D2
:10071000184680BD100B0020B449002080B584B07D
:1007200000AF78603960FF23FB7202E0012004F023
:1007300076FAEA211B4801F0F1F80346002BF5D0C8
:10074000FB7A1633FB720023FB6017E0012004F0F4
:1007500066FA7A68FB6813441B781946114801F061
:10076000DDF80346002BF1D07A68FB6813441B7850
:10077000FA7AD31AFB72FB680133FB60FA683B68B4
:100780009A42E6D302E0012004F049FAFB7A1946C6
:10079000044801F0C3F80346002BF4D000BF103723
:1007A000BD4680BDD851002080B584B000AF7860D0
:1007B00007F10C0319460C4801F0DCF8FB68002B2C
:1007C00003D1012004F02BFAF2E700BFFB681A788E
:1007D000064B1A7001220549054800F0C1FF0120AF
:1007E00004F01DFAE4E700BFD8510020B049002012
:1007F0006452002084B080B586B000AF07F1200EAF
:100800008EE80F0025480DF0CFF801237B6102230D
:100810003B610323FB600423BB6005237B60204B0B
:1008200002221A701E4B0A225A707B69DAB21C4BE4
:100830009A707B691B12DAB2194BDA703B69DAB233
:10084000174B1A713B691B12DAB2154B5A71FB68D0
:10085000DAB2134B9A71FB681B12DAB2104BDA71E1
:10086000BB68DAB20E4B1A72BB681B12DAB20C4BC1
:100870005A727B68DAB20A4B9A727B681B12DAB240
:10088000074BDA720C210648FFF748FF00BF183704
:10089000BD46BDE8804004B0704700BF6C3401081D
:1008A000000B002084B080B500AF07F1080E8EE881
:1008B0000F0004480DF078F800BFBD46BDE8804049
:1008C00004B070478034010884B080B586B000AFB2
:1008D00007F1200E8EE80F0016480DF065F8012391
:1008E0007B6102233B610323FB6005233B710623ED
:1008F0007B717B69DBB2BB717B691B12DBB2FB7165
:100900003B69DBB23B723B691B12DBB27B72FB685B
:10091000DBB2BB72FB681B12DBB2FB723B1D082112
:100920001846FFF7FBFE00BF1837BD46BDE8804004
:1009300004B07047983401082DE9F043A3B01EAF0E
:1009400078600023BB600023BB6007F108031946F1
:100950001E4800F097FFBB68002B33D00023FB60DC
:1009600029E01B4AFB6812F83320BB689B789A4247
:100970001ED1174AFB68DB0013445C68BB681A6829
:100980004FF0000991465A684FF0000890469A6867
:1009900000261646DA68002515466846103372228E
:1009A00019460BF0F7FD4846414632462B46A04714
:1009B000FB680133FB60FB68022BD2D9012004F0F5
:1009C0002EF9C0E7012004F02AF9BCE754580020B2
:1009D0001400002080B5C4B01EAF7860FF2387F8F4
:1009E0009730FFF783FE0346EA2BFAD197F897304A
:1009F000163387F89730FFF779FE034687F88F3074
:100A000097F8972097F88F30D31A87F89730FFF729
:100A10006DFE034687F88E3097F8972097F88E3052
:100A2000D31A87F8973097F88E30102B06D997F89D
:100A30008E3019463E480CF055FF77E00023C7F88A
:100A4000903018E0FFF752FE03461946394AD7F8AE
:100A5000903013440A461A70364AD7F8903013443F
:100A60001B7897F89720D31A87F89730D7F89030EB
:100A70000133C7F8903097F88E20D7F890309A421B
:100A8000E0DCFFF733FE034687F88D3097F88D20C2
:100A900097F897309A420BD027480CF085FF97F8CB
:100AA0008D3097F89720194624480CF01BFF3DE045
:100AB00097F88F30BB720023C7F8903011E0D7F859
:100AC000903001331B49D7F890200A44127807F17F
:100AD00098010B4403F88E2CD7F890300133C7F8F7
:100AE000903097F88E20D7F890309A42E7DC97F84C
:100AF0008E309BB201339BB23B81684607F11403F1
:100B0000762219460BF046FD07F108030ECB0C4880
:100B100000F051FE0346002B7FF460AF09480CF053
:100B200043FF4FF48041084802F095F856E700BFB4
:100B3000AC340108B0480020E8340108043501084D
:100B40005458002024350108000C0240B0B598B07C
:100B500002AF7860294B0093294B2A4A01212A4889
:100B600008F0E0FA294B07F144041D460FCD0FC4ED
:100B70002B68236007F144030021184603F0CFFFE0
:100B80000246234B1A60234B07F130041D460FCD5C
:100B90000FC42B68236007F130030021184603F0CF
:100BA000BEFF02461C4B1A601C4B07F11C041D467D
:100BB0000FCD0FC42B68236007F11C0300211846DA
:100BC00003F0ADFF0246164B1A60164B07F10804FE
:100BD0001D460FCD0FC42B68236007F108030021C9
:100BE000184603F09CFF02460F4B1A60002004F0E9
:100BF000D1FF00BF5837BD46B0BD00BF4000002048
:100C0000D0000020740000206452002054350108F8
:100C1000F00A002084350108F40A0020B8350108E4
:100C2000F80A0020E8350108FC0A0020B0B586B0BB
:100C300000AFFFF797FC12480CF0B6FE114B1B6893
:100C40009B68002118460CF0B7FE0F4B3C1D1D465B
:100C50000FCD0FC42B6823603B1D0021184603F005
:100C60005EFF0246094B1A60094800F091FD0948F1
:100C700000F03EFE084800F08BFD03F02DFFFEE77C
:100C8000FC35010840010020143601080C0B00203F
:100C9000B4490020D85100205458002080B400AF3F
:100CA00000BFBD465DF8047B704700BF80B400AF55
:100CB00000BFBD465DF8047B704780B400AFFEE71F
:100CC00080B400AFFEE780B400AFFEE780B400AFB1
:100CD000FEE780B400AF00BFBD465DF8047B7047FF
:100CE00080B500AF0A4B9B7A002B0AD0094A094B0A
:100CF0001B6823F00603136000F018F804480AF09C
:100D000003FB4FF4802001F0A9FD00BF80BD00BFB0
:100D10006452002010ED00E080B500AF02480AF0F8
:100D20000BFF00BF80BD00BF6452002080B500AF44
:100D3000164A164BD3F8883043F47003C2F8883053
:100D4000134A134B1B6843F001031360104B00223E
:100D50009A600F4A0E4B1B6823F0847323F4803390
:100D600013600B4B0B4A5A60094A094B1B6823F46A
:100D700080231360064B0022DA6000F089F8034BF1
:100D80004FF000629A6000BF80BD00BF00ED00E040
:100D9000003802401030002480B487B000AF002338
:100DA0003B6100237B610223FB600023BB600223C5
:100DB0007B60324B9B6803F00C033B613B69042B67
:100DC00007D0082B09D0002B3DD12D4B2D4A1A609E
:100DD0003DE02B4B2C4A1A6039E0284B5B689B0D99
:100DE00003F00103BB60254B5B6803F03F037B60AE
:100DF000BB68002B0CD0244A7B68B2FBF3F31F4A7C
:100E000052689209C2F3080202FB03F37B610BE014
:100E10001C4A7B68B2FBF3F3184A52689209C2F38A
:100E2000080202FB03F37B61144B5B681B0C03F0AD
:100E3000030301335B00FB607A69FB68B2FBF3F3E9
:100E40000F4A136003E00E4B0E4A1A6000BF0B4BB3
:100E50009B681B0903F00F030C4AD35CDBB23B61B8
:100E6000074B1A683B6922FA03F3054A136000BF77
:100E70001C37BD465DF8047B704700BF0038024058
:100E80002C0000200024F40040787D013000002078
:100E900080B483B000AF00237B6000233B60364A00
:100EA000354B1B6843F480331360334B1B6803F4EA
:100EB00000333B607B6801337B603B68002B03D1D0
:100EC0007B68B3F5A06FF0D12B4B1B6803F40033A4
:100ED000002B02D001233B6001E000233B603B6814
:100EE000012B42D1244A244B1B6C43F080531364E2
:100EF000224A224B1B6843F4804313601E4A1E4B58
:100F00009B6893601C4A1C4B9B6843F400439360AE
:100F1000194A194B9B6843F4A0539360164B184A27
:100F20005A60154A144B1B6843F08073136000BF6E
:100F3000114B1B6803F00073002BF9D0114B40F2EA
:100F400005621A600C4A0C4B9B6823F00303936004
:100F5000094A094B9B6843F00203936000BF064BAC
:100F60009B6803F00C03082BF9D100BF0C37BD467A
:100F70005DF8047B704700BF0038024000700040FD
:100F800008544007003C024080B483B000AF786052
:100F9000134BDB6803F08073002B1AD04FF06043D3
:100FA000D3F8803E03F00103002B12D04FF06043D2
:100FB000D3F8003E03F00103002B0AD000BF4FF02E
:100FC00060431B68002BFAD04FF060437A68D2B2BE
:100FD0001A707B6818460C37BD465DF8047B704775
:100FE000F0ED00E080B483B000AF786000231846D5
:100FF0000C37BD465DF8047B704780B483B000AF0A
:1010000078603960002318460C37BD465DF8047BD4
:10101000704780B483B000AF7860012318460C3766
:10102000BD465DF8047B704780B485B000AFF860C2
:10103000B9607A60002318461437BD465DF8047B1A
:10104000704780B485B000AFF860B9607A604FF047
:10105000FF3318461437BD465DF8047B704780B4F3
:1010600085B000AF78603960104B1B68002B02D14F
:101070000E4B0F4A1A600D4B1B68FB600B4B1A6836
:101080003B6813446A46934202D94FF0FF3306E0AF
:10109000064B1A683B681344044A1360FB68184601
:1010A0001437BD465DF8047B704700BF140B002069
:1010B0001862002080B586B000AFF860B9607A6031
:1010C000FB68012B02D0FB68022B10D100237B614F
:1010D00009E07B695A1C7A611A46BB6813441B7885
:1010E0001846FFF751FF7A697B689A42F1DB7B680B
:1010F00018461837BD4680BD80B485B000AFF86093
:10110000B9607A60002318461437BD465DF8047B49
:10111000704700BF80B584B000AF78600121012026
:1011200001F01EF84FF4C853BB6003237B73022306
:101130003B730023BB730023FB7307F108031946BD
:10114000224801F02BFC0A220821204801F095FDDD
:101150000A220B211D4801F090FD0A220C211B4898
:1011600001F08BFD4FF40073BB6003237B730023FE
:101170003B730123BB730023FB7307F1080319467C
:10118000124801F00BFC02233B734FF48063BB60F9
:101190000123BB730123FB7303237B7307F1080354
:1011A00019460A4801F0FAFB0A220A21074801F011
:1011B00064FD01214FF4804001F052F801218020AC
:1011C00000F0EEFF00BF1037BD4680BD00000240BA
:1011D00080B584B000AF78604FF4C06000F004FCCC
:1011E00043233B7301237B730323BB730123FB73F3
:1011F00007F10C03184600F00BFC00BF1037BD468A
:1012000080BD80B485B000AF78600023FB607A6851
:1012100013461B019B1ADB001A460B4BA3FB021360
:10122000D21A520813449B08BB60FB680133FB6071
:10123000FA68BB689A4200D8F7E700BF1437BD468A
:101240005DF8047B704700BF2549922480B582B0C9
:1012500000AF78607B684FF47A7202FB03F31846A4
:10126000FFF7CFFF00BF0837BD4680BD80B400AF99
:1012700000BFBD465DF8047B704780B483B000AF0B
:101280000346FB71FB79002B02D0012B02D002E058
:1012900000BF00E000BF00BF0C37BD465DF8047B17
:1012A000704780B400AF00BFBD465DF8047B704757
:1012B00080B400AF00BFBD465DF8047B704780B4CA
:1012C00000AF00BFBD465DF8047B704780B400AF3F
:1012D00000BFBD465DF8047B704780B400AF00BF1F
:1012E000BD465DF8047B704780B483B000AF034611
:1012F0003960FB713B6812221A80034B18460C3789
:10130000BD465DF8047B70476000002080B483B068
:1013100000AF03463960FB713B6804221A80034B1F
:1013200018460C37BD465DF8047B70475C00002012
:1013300080B582B000AF03463960FB713A6804495A
:10134000044808F0CEFD024B18460837BD4680BD64
:10135000BC6100202836010880B582B000AF03468A
:101360003960FB713A680449044808F0BAFD024B41
:1013700018460837BD4680BDBC6100203C360108D8
:1013800080B582B000AF03463960FB713A6804490A
:10139000044808F0A6FD024B18460837BD4680BD3C
:1013A000BC6100205C36010880B582B000AF034606
:1013B0003960FB713A680449044808F092FD024B19
:1013C00018460837BD4680BDBC6100206C36010858
:1013D00080B582B000AF03463960FB713A680449BA
:1013E000044808F07EFD024B18460837BD4680BD14
:1013F000BC6100207836010880B483B000AF03469A
:101400003960FB713B6829221A80034B18460C3760
:10141000BD465DF8047B7047A400002080B582B013
:1014200000AF78600B46FB700C480CF0BDFA03234C
:101430001022812178680AF03EF90323102201214D
:1014400078680AF038F91023054A012178680AF013
:10145000C2F9002318460837BD4680BD883601080A
:101460007C60002080B582B000AF78600B46FB70D6
:10147000812178680AF075F9012178680AF071F91C
:10148000002318460837BD4680BD80B582B000AF46
:1014900078600B46FB70812178680AF08EFA002391
:1014A00018460837BD4680BD80B5C2B01EAF786013
:1014B0000B46FB70FB78012B4CD1FA787968134608
:1014C0009B001344DB000B4403F562731B68A7F811
:1014D0008A307B6893F81231032B32D10023C7F88E
:1014E0008C3010E01E4AD7F88C301344197807F17D
:1014F0000A02D7F88C3013440A461A70D7F88C3099
:101500000133C7F88C30B7F88A20D7F88C309A426C
:10151000E8DCB7F88A303B8102E0052003F07FFB6E
:10152000684607F11403762219460BF033F807F1E9
:1015300008030ECB0B4800F03EF90346002BECD01D
:1015400002E009480CF030FA1023054A01217868BE
:101550000AF041F9002318469037BD4680BD00BF10
:101560007C600020B44900209836010880B584B022
:1015700000AF786039600023FB810023BB603B68CB
:101580005B881B0A9BB2194614480CF0ABF93B6808
:101590005B881B0A9BB2222B08D13B68DB88132B8C
:1015A00028BF1323FB810E4BBB600DE03B685B88BB
:1015B0001B0A9BB2212B07D10A4BBB603B68DB881F
:1015C000092B28BF0923FB81FB891A46B968786873
:1015D00007F09EFF00BF1037BD4680BDC43601082E
:1015E00090000020B600002080B400AF00BFBD46D0
:1015F0005DF8047B704780B582B000AF78603960D9
:101600007B6893F8123119463B685B881A46134889
:101610000CF068F97B6893F81231023B012B14D867
:101620003B685B88012B10D17B680022C3F8142132
:101630003B681B7803F060013B685B781A460848FA
:101640000CF050F9786807F0CBFF3968786808F03B
:1016500025FC00BF00BF0837BD4680BDE03601084D
:101660002037010880B582B000AF786039603B68F0
:101670001B7803F060013B685B781A4635480CF034
:1016800031F93B681B7803F06003002B32D0202B2C
:101690005AD13B685B78012B02D00A2B16D021E08F
:1016A0003B685B88DBB219462B480CF01BF93B68A2
:1016B0005B88DBB2012B1BD03B685B88DBB2022B63
:1016C00016D03B685B88DBB2032B11E0234B002272
:1016D0001A603B685B881B0A9BB2DBB21A461F4B41
:1016E0001A6006E03968786808F0D8FB02232CE01D
:1016F00000BF29E03B685B78013B0A2B22D801A29E
:1017000052F823F03B17000845170008451700085A
:10171000451700084517000831170008451700084D
:101720004517000845170008451700084517000829
:1017300039687868FFF71AFF05E039687868FFF7BD
:101740005AFF00E000BF00BF002318460837BD461F
:1017500080BD00BF60370108B0370108180B0020BA
:1017600080B584B000AFF860B9601346FB80FB68B9
:1017700093F81231032B05D1FB88BA688121F868F0
:101780000AF06AF8002318461037BD4680BD00BF36
:1017900080B483B000AF78607B6800221A707B68E9
:1017A00000225A707B6800225A8000BF0C37BD4669
:1017B0005DF8047B704784B080B584B000AF78607A
:1017C00007F11C0080E80E007B68B3F90230102B93
:1017D00004D12B480CF0E8F8002349E07B681B7823
:1017E0001946B88B7A680B469B010B445B00134487
:1017F000043302461A800023FB6015E07B681B78E7
:10180000194607F11E02FB68134418787A680B46E4
:101810009B010B445B001A44FB68134406330246E9
:101820001A70FB680133FB607B681B7819467A6885
:101830000B469B010B445B00134404331B881A4680
:10184000FB689A42DADC7B681B780133DBB203F079
:101850000F03DAB27B681A707B68B3F902309BB26F
:1018600001339BB21AB27B685A807B68B3F90230AD
:1018700018461037BD46BDE8804004B0704700BF31
:10188000CC37010880B483B000AF786039607B68E2
:10189000B3F90230002B20DD7B685B781A461346D3
:1018A0009B0113445B007A6813441A1D3B681A605D
:1018B0007B685B780133DBB203F00F03DAB27B683D
:1018C0005A707B68B3F902309BB2013B9BB21AB2EB
:1018D0007B685A807B685B7804E03B6800221A6072
:1018E0004FF0FF3318460C37BD465DF8047B704758
:1018F00080B483B000AF78607B680022C3F880209A
:101900007B680022C3F884207B680022C3F888200B
:1019100000BF0C37BD465DF8047B704780B483B0D0
:1019200000AF78600B46FB707B68D3F88830802B63
:1019300001D1002318E07B68D3F880307A68F97809
:10194000D1547B68D3F88030013303F07F027B6889
:10195000C3F880207B68D3F888305A1C7B68C3F8B2
:1019600088207B68D3F8883018460C37BD465DF870
:10197000047B704780B483B000AF786039607B68C7
:10198000D3F88830002B1AD07B68D3F884307A687B
:101990001A443B681A607B68D3F88430013303F043
:1019A0007F027B68C3F884207B68D3F888305A1E96
:1019B0007B68C3F888207B68D3F8843004E03B68F8
:1019C00000221A604FF0FF3318460C37BD465DF811
:1019D000047B7047D83A010800000020EC0A002080
:1019E000EC0A00201862002080B483B000AF786059
:1019F000064A7B6843F0BF6343F40033D36000BF03
:101A00000C37BD465DF8047B704700BF00ED00E079
:101A100080B485B000AF78600023FB730023BB73F4
:101A20000F237B737B68DB78002B39D0274BDB6877
:101A3000DB431B0ADBB203F00703FB73FB7BC3F141
:101A40000403BB737A7BFB7B42FA03F37B737B68F3
:101A50005B781A46BB7B02FA03F3FB737B689A78C8
:101A60007B7B1340DAB2FB7B1343FB73FB7B1B01D5
:101A7000FB73174A7B681B781344FA7B83F80023B7
:101A8000134A7B681B785B09DBB218467B681B78BE
:101A900003F01F03012101FA03F342F820300FE0A5
:101AA0000B497B681B785B09DBB218467B681B78A7
:101AB00003F01F0301229A4000F1200341F8232084
:101AC00000BF1437BD465DF8047B704700ED00E0B1
:101AD00000E100E080B483B000AF7860396007496E
:101AE0003B6823F0604323F07F037A6813438B60E5
:101AF00000BF0C37BD465DF8047B704700ED00E089
:101B000080B483B000AF03460A46FB711346BB7135
:101B1000BB79002B06D00A49094B1A69FB7913439C
:101B20000B6106E00649064B1A69FB79DB4313405B
:101B30000B6100BF0C37BD465DF8047B704700BFEA
:101B400000ED00E080B483B000AF78607B68042BC8
:101B500006D1094A084B1B6843F00403136005E0F3
:101B6000054A054B1B6823F00403136000BF0C37C4
:101B7000BD465DF8047B704710E000E080B400AF24
:101B8000104A104B1B6843F0010313600D4B0022F9
:101B90009A600C4A0B4B1B6823F0847323F4803348
:101BA0001360084B084A5A60064A064B1B6823F428
:101BB00080231360034B0022DA6000BFBD465DF84E
:101BC000047B7047003802401030002480B483B09A
:101BD00000AF0346FB71064B00221A70044AFB79E2
:101BE000137000BF0C37BD465DF8047B704700BF23
:101BF0000238024080B582B000AF00233B60002372
:101C0000FB710023BB71312000F0B0FC0346BB71B7
:101C10003B6801333B603B68B3F5A06F02D0BB79F2
:101C2000002BF0D0312000F0A1FC0346002B02D0A5
:101C30000123FB7101E00023FB71FB791846083793
:101C4000BD4680BD80B485B000AF0346FB71002364
:101C5000FB600A4B1B68FB60FB6823F0F803FB602A
:101C6000FB79DB00FA681343FB60044AFB681360EE
:101C700000BF1437BD465DF8047B70470038024052
:101C800080B483B000AF0346FB71044AFB79136054
:101C900000BF0C37BD465DF8047B7047000047422B
:101CA00080B483B000AF0346FB710D4B00221A7065
:101CB0000B4B00221A70FB79012B02D0042B04D0AD
:101CC00007E0074B01221A7003E0054B05221A704A
:101CD00000BF00BF0C37BD465DF8047B704700BFF6
:101CE0007038024080B483B000AF0346FB71044AF1
:101CF000FB79136000BF0C37BD465DF8047B70476D
:101D0000800E474280B485B000AFF860B9607A6059
:101D10003B600B497B689A01BB681A433B685B08D0
:101D2000013B1B041A43FB681A43BB691B061343A0
:101D30004B6000BF1437BD465DF8047B704700BFA1
:101D40000038024080B483B000AF0346FB71044A00
:101D5000FB79136000BF0C37BD465DF8047B70470C
:101D60006000474280B483B000AF786039600749B3
:101D70007B689A013B681B071343C1F8843000BF9E
:101D80000C37BD465DF8047B704700BF0038024049
:101D900080B483B000AF0346FB71044AFB79136043
:101DA00000BF0C37BD465DF8047B704768004742B2
:101DB00080B483B000AF0346FB71044AFB79136023
:101DC00000BF0C37BD465DF8047B70474C004742AE
:101DD00080B485B000AF786039600023FB600B4BA6
:101DE0009B68FB60FB6823F0EC63FB607A683B68F0
:101DF0001343FA681343FB60044AFB68936000BF17
:101E00001437BD465DF8047B704700BF00380240C0
:101E100080B485B000AF786039600023FB600B4B65
:101E20009B68FB60FB6823F07843FB607A683B6843
:101E30001343FA681343FB60044AFB68936000BFD6
:101E40001437BD465DF8047B704700BF0038024080
:101E500080B485B000AF78600023FB60094B9B68BD
:101E6000FB60FB6823F00303FB60FA687B681343A5
:101E7000FB60044AFB68936000BF1437BD465DF801
:101E8000047B70470038024080B400AF054B9B686C
:101E9000DBB203F00C03DBB21846BD465DF8047BF1
:101EA000704700BF0038024080B485B000AF786052
:101EB0000023FB60094B9B68FB60FB6823F0F00389
:101EC000FB60FA687B681343FB60044AFB6893601D
:101ED00000BF1437BD465DF8047B704700380240F0
:101EE00080B485B000AF78600023FB60094B9B682D
:101EF000FB60FB6823F4E053FB60FA687B681343E4
:101F0000FB60044AFB68936000BF1437BD465DF870
:101F1000047B70470038024080B485B000AF786021
:101F20000023FB600A4B9B68FB60FB6823F4604363
:101F3000FB607B68DB00FA681343FB60044AFB68C4
:101F4000936000BF1437BD465DF8047B704700BF47
:101F50000038024080B489B000AF78600023BB61D4
:101F600000237B610023FB6102233B610023FB60B4
:101F70000223BB60474B9B6803F00C03BB61BB694A
:101F8000042B07D0082B09D0002B3DD17B68424A97
:101F90001A603DE07B68414A1A6039E03D4B5B685E
:101FA0009B0D03F00103FB603A4B5B6803F03F03BA
:101FB000BB60FB68002B0CD0384ABB68B2FBF3F364
:101FC000344A52689209C2F3080202FB03F3FB6130
:101FD0000BE0314ABB68B2FBF3F32E4A5268920918
:101FE000C2F3080202FB03F3FB612A4B5B681B0C84
:101FF00003F0030301335B003B61FA693B69B2FB09
:10200000F3F27B681A6003E07B68234A1A6000BF22
:10201000204B9B6803F0F003BB61BB691B09BB61EC
:102020001F4ABB6913441B78DBB27B617B681A686B
:102030007B69DA407B685A60164B9B6803F4E05377
:10204000BB61BB699B0ABB61154ABB6913441B7822
:10205000DBB27B617B685A687B69DA407B689A6097
:102060000C4B9B6803F46043BB61BB695B0BBB61BA
:102070000B4ABB6913441B78DBB27B617B685A68EF
:102080007B69DA407B68DA6000BF2437BD465DF8C3
:10209000047B7047003802400024F40040787D0142
:1020A000FC00002080B485B000AF78600023FB60A6
:1020B0007B6803F44073B3F5407F11D10F4B9B68ED
:1020C000FB60FB6823F4F813FB607B6823F070432C
:1020D00023F44073FA681343FB60084AFB6893607B
:1020E0000649064B1A6F7B68C3F30B0313430B6758
:1020F00000BF1437BD465DF8047B704700380240CE
:1021000080B483B000AF0346FB71044AFB791360CF
:1021100000BF0C37BD465DF8047B70473C0E47425C
:1021200080B483B000AF0346FB71044AFB791360AF
:1021300000BF0C37BD465DF8047B7047400E474238
:1021400080B483B000AF7860044A7B68136000BF3E
:102150000C37BD465DF8047B704700BF5C01474209
:1021600080B483B000AF78600B46FB70FB78002B27
:1021700006D00A49094B1A6B7B6813430B6306E0D0
:102180000649064B1A6B7B68DB4313400B6300BFA9
:102190000C37BD465DF8047B704700BF0038024035
:1021A00080B483B000AF78600B46FB70FB78002BE7
:1021B00006D00A49094B5A6B7B6813434B6306E010
:1021C0000649064B5A6B7B68DB4313404B6300BFE9
:1021D0000C37BD465DF8047B704700BF00380240F5
:1021E00080B483B000AF78600B46FB70FB78002BA7
:1021F00006D00A49094B9A6B7B6813438B6306E050
:102200000649064B9A6B7B68DB4313408B6300BF28
:102210000C37BD465DF8047B704700BF00380240B4
:1022200080B483B000AF78600B46FB70FB78002B66
:1022300006D00A49094B1A6C7B6813430B6406E00D
:102240000649064B1A6C7B68DB4313400B6400BFE6
:102250000C37BD465DF8047B704700BF0038024074
:1022600080B483B000AF78600B46FB70FB78002B26
:1022700006D00A49094B5A6C7B6813434B6406E04D
:102280000649064B5A6C7B68DB4313404B6400BF26
:102290000C37BD465DF8047B704700BF0038024034
:1022A00080B483B000AF78600B46FB70FB78002BE6
:1022B00006D00A49094B1A697B6813430B6106E093
:1022C0000649064B1A697B68DB4313400B6100BF6C
:1022D0000C37BD465DF8047B704700BF00380240F4
:1022E00080B483B000AF78600B46FB70FB78002BA6
:1022F00006D00A49094B5A697B6813434B6106E0D3
:102300000649064B5A697B68DB4313404B6100BFAB
:102310000C37BD465DF8047B704700BF00380240B3
:1023200080B483B000AF78600B46FB70FB78002B65
:1023300006D00A49094B9A697B6813438B6106E012
:102340000649064B9A697B68DB4313408B6100BFEB
:102350000C37BD465DF8047B704700BF0038024073
:1023600080B483B000AF78600B46FB70FB78002B25
:1023700006D00A49094B1A6A7B6813430B6206E0D0
:102380000649064B1A6A7B68DB4313400B6200BFA9
:102390000C37BD465DF8047B704700BF0038024033
:1023A00080B483B000AF78600B46FB70FB78002BE5
:1023B00006D00A49094B5A6A7B6813434B6206E010
:1023C0000649064B5A6A7B68DB4313404B6200BFE9
:1023D0000C37BD465DF8047B704700BF00380240F3
:1023E00080B483B000AF78600B46FB70FB78002BA5
:1023F00006D00A49094B1A6D7B6813430B6506E04A
:102400000649064B1A6D7B68DB4313400B6500BF22
:102410000C37BD465DF8047B704700BF00380240B2
:1024200080B483B000AF78600B46FB70FB78002B64
:1024300006D00A49094B5A6D7B6813434B6506E089
:102440000649064B5A6D7B68DB4313404B6500BF62
:102450000C37BD465DF8047B704700BF0038024072
:1024600080B483B000AF78600B46FB70FB78002B24
:1024700006D00A49094B9A6D7B6813438B6506E0C9
:102480000649064B9A6D7B68DB4313408B6500BFA2
:102490000C37BD465DF8047B704700BF0038024032
:1024A00080B483B000AF78600B46FB70FB78002BE4
:1024B00006D00A49094B1A6E7B6813430B6606E087
:1024C0000649064B1A6E7B68DB4313400B6600BF60
:1024D0000C37BD465DF8047B704700BF00380240F2
:1024E00080B483B000AF78600B46FB70FB78002BA4
:1024F00006D00A49094B5A6E7B6813434B6606E0C7
:102500000649064B5A6E7B68DB4313404B6600BF9F
:102510000C37BD465DF8047B704700BF00380240B1
:1025200080B483B000AF03460A46FB711346BB710B
:10253000BB79002B08D00C490B4B1B78DAB2FB7926
:102540001343DBB20B7009E00749074B1B78DAB283
:10255000FB79DB43DBB21340DBB20B7000BF0C37FF
:10256000BD465DF8047B70470D38024080B487B0EB
:1025700000AF0346FB710023FB6000237B61002357
:10258000FB74FB795B09DBB2FB60FB68012B03D1B9
:10259000124B1B687B6109E0FB68022B03D10F4BD8
:1025A0001B6F7B6102E00D4B5B6F7B61FB7903F07E
:1025B0001F03FB607A69FB6822FA03F303F001034F
:1025C000002B02D00123FB7401E00023FB74FB7C91
:1025D00018461C37BD465DF8047B70470038024042
:1025E00080B400AF054A054B5B6F43F080735367BF
:1025F00000BFBD465DF8047B704700BF0038024055
:1026000080B485B000AF0346FB710023FB73094B18
:10261000DA68FB791340002B02D00123FB7301E041
:102620000023FB73FB7B18461437BD465DF8047B23
:10263000704700BF0038024080B483B000AF03464B
:10264000FB71044AFB79137000BF0C37BD465DF87F
:10265000047B70470E38024080B400AF094B002263
:102660001A60084B00225A60064B00229A60054B04
:102670000022DA60034B044A5A6100BFBD465DF890
:10268000047B7047003C0140FFFF7F0080B485B0B1
:1026900000AF78600023FB60344BFB607B689B7964
:1026A000002B4FD03149314B1A687B681B68DB43E4
:1026B00013400B602D492D4B5A687B681B68DB4328
:1026C00013404B607B681B791A46FB681344FB6020
:1026D000FB68FA6811687A6812680A431A6023492D
:1026E000224B9A687B681B68DB4313408B601F4951
:1026F0001E4BDA687B681B68DB431340CB607B684A
:102700005B79102B0ED11949184B9A687B681B68AE
:1027100013438B601549154BDA687B681B681343BC
:10272000CB601DE0114BFB607B685B791A46FB6850
:102730001344FB60FB68FA6811687A6812680A4300
:102740001A600DE07B681B791A46FB681344FB6036
:10275000FB68FA6811687A681268D2430A401A6006
:1027600000BF1437BD465DF8047B7047003C014054
:1027700080B483B000AF78607B6800221A607B6809
:1027800000221A717B680C225A717B6800229A71B0
:1027900000BF0C37BD465DF8047B704780B483B042
:1027A00000AF78600549054B1A697B6813430B61DC
:1027B00000BF0C37BD465DF8047B7047003C01400C
:1027C00080B485B000AF78600023FB73084B5A6972
:1027D0007B681340002B02D00123FB7301E0002330
:1027E000FB73FB7B18461437BD465DF8047B7047CE
:1027F000003C014080B483B000AF7860044A7B683D
:10280000536100BF0C37BD465DF8047B704700BFC5
:10281000003C014080B485B000AF78600023FB73BA
:102820000023BB600C4B1A687B681340BB600A4BEB
:102830005A697B681340002B05D0BB68002B02D07F
:102840000123FB7301E00023FB73FB7B1846143765
:10285000BD465DF8047B7047003C014080B483B006
:1028600000AF7860044A7B68536100BF0C37BD46F7
:102870005DF8047B704700BF003C014080B582B02A
:1028800000AF78607B683C4A934208D10121012067
:10289000FFF706FD00210120FFF702FD68E07B68DD
:1028A000364A934208D101210220FFF7F9FC0021AA
:1028B0000220FFF7F5FC5BE07B68314A934208D1C8
:1028C00001210420FFF7ECFC00210420FFF7E8FCC5
:1028D0004EE07B682B4A934208D101210820FFF784
:1028E000DFFC00210820FFF7DBFC41E07B68264A83
:1028F000934208D101211020FFF7D2FC00211020C3
:10290000FFF7CEFC34E07B68204A934208D10121D6
:102910002020FFF7C5FC00212020FFF7C1FC27E0A5
:102920007B681B4A934208D101214020FFF7B8FC85
:1029300000214020FFF7B4FC1AE07B68154A93425F
:1029400008D101218020FFF7ABFC00218020FFF798
:10295000A7FC0DE07B68104A934209D101214FF496
:102960008070FFF79DFC00214FF48070FFF798FC0A
:1029700000BF0837BD4680BD000002400004024091
:1029800000080240000C0240001002400014024007
:1029900000180240001C02400020024080B487B0B2
:1029A00000AF7860396000237B6100233B61002326
:1029B000FB6000237B6176E001227B6902FA03F36E
:1029C0003B613B681A683B691340FB60FA683B69EE
:1029D0009A4265D17B681A687B695B00032101FA22
:1029E00003F3DB431A407B681A607B681A683B6814
:1029F0001B7919467B695B0001FA03F31A437B6874
:102A00001A603B681B79012B03D03B681B79022BB2
:102A10002ED17B689A687B695B00032101FA03F37E
:102A2000DB431A407B689A607B689A683B685B79F5
:102A300019467B695B0001FA03F31A437B689A60CD
:102A40007B685A687B699BB2194601238B40DB4344
:102A50001A407B685A607B685B683A6892791146D5
:102A60007A6992B201FA02F292B21A437B685A6012
:102A70007B68DA687B699BB25B00032101FA03F390
:102A8000DB431A407B68DA607B68DA683B68DB7995
:102A900019467B695B0001FA03F31A437B68DA602D
:102AA0007B6901337B617B690F2B85D900BF1C37A4
:102AB000BD465DF8047B704780B483B000AF78609A
:102AC0007B684FF6FF721A607B6800221A717B6880
:102AD00000225A717B6800229A717B680022DA71A9
:102AE00000BF0C37BD465DF8047B704780B485B0ED
:102AF00000AF78600B467B804FF48033FB607A88B0
:102B0000FB681343FB60FA687B68DA617A887B684C
:102B1000DA61FA687B68DA617B68DB69FB607B6895
:102B2000DB69FB6000BF1437BD465DF8047B70476E
:102B300080B485B000AF78600B467B800023FB73C8
:102B40007B681A697B881340002B02D00123FB733A
:102B500001E00023FB73FB7B18461437BD465DF88C
:102B6000047B704780B483B000AF78607B681B69DA
:102B70009BB218460C37BD465DF8047B704780B4A5
:102B800085B000AF78600B467B800023FB737B68C9
:102B90005A697B881340002B02D00123FB7301E0AC
:102BA0000023FB73FB7B18461437BD465DF8047B9E
:102BB000704780B483B000AF78607B685B699BB27C
:102BC00018460C37BD465DF8047B704780B483B06F
:102BD00000AF78600B467B807B687A881A8300BFE1
:102BE0000C37BD465DF8047B704780B483B000AFFE
:102BF00078600B467B807B687A885A8300BF0C37ED
:102C0000BD465DF8047B704780B483B000AF786048
:102C10000B467B8013467B707B78002B03D07B6850
:102C20007A881A8302E07B687A885A8300BF0C375F
:102C3000BD465DF8047B704780B483B000AF786018
:102C40000B467B807A887B685A6100BF0C37BD4693
:102C50005DF8047B704780B483B000AF78600B46AA
:102C60007B807B685A697B885A407B685A6100BFC9
:102C70000C37BD465DF8047B704780B485B000AF6B
:102C800078600B467B8013467B700023FB6000233B
:102C9000BB607A787B8803F007039B0002FA03F39A
:102CA000FB607B88DB089BB218467B88DB089BB205
:102CB0001A467B68083253F822207B8803F007030A
:102CC0009B000F2101FA03F3DB4302EA03017B6857
:102CD00000F1080243F822107B88DB089BB21A46F9
:102CE0007B68083253F82220FB681343BB607B8863
:102CF000DB089BB21A467B680832B96843F8221099
:102D000000BF1437BD465DF8047B704780B500AF47
:102D100001214FF48040FFF743FB00214FF4804036
:102D2000FFF73EFB00BF80BD80B483B000AF034619
:102D3000FB71044AFB79136000BF0C37BD465DF898
:102D4000047B70470038014090B484B000AF034664
:102D50000A46FB711346BB710023FB60BB7903F08D
:102D600003039B000F2202FA03F3FB601649BB79B1
:102D70009B08DBB21846144ABB799B08DBB20233CE
:102D800052F82320FB68DB431A40831C41F82320C0
:102D90000D48BB799B08DBB21C460B4ABB799B08EC
:102DA000DBB2023352F82320F979BB7903F0030335
:102DB0009B0001FA03F31A43A31C40F8232000BF31
:102DC0001037BD4690BC70470038014080B483B0D6
:102DD00000AF7860044A7B68136000BF0C37BD46C3
:102DE0005DF8047B704700BFDC00274280B483B0ED
:102DF00000AF0346FB71044AFB79136000BF0C3738
:102E0000BD465DF8047B70470004274280B483B060
:102E100000AF0023FB71094B1B6A03F48073002B86
:102E200002D00123FB7101E00023FB71FB791846FE
:102E30000C37BD465DF8047B704700BF0038014089
:102E400080B582B000AF78607B68604A934208D159
:102E500001210120FFF7A4FA00210120FFF7A0FAC9
:102E6000AFE07B68B3F1804F08D101210120FFF76B
:102E700077FA00210120FFF773FAA2E07B68544A39
:102E8000934208D101210220FFF76AFA00210220B3
:102E9000FFF766FA95E07B684E4A934208D101211C
:102EA0000420FFF75DFA00210420FFF759FA88E0BB
:102EB0007B68494A934208D101210820FFF750FA64
:102EC00000210820FFF74CFA7BE07B68434A9342DD
:102ED00008D101211020FFF743FA00211020FFF74D
:102EE0003FFA6EE07B683E4A934208D101212020E0
:102EF000FFF736FA00212020FFF732FA61E07B6805
:102F0000384A934208D101210220FFF749FA0021F3
:102F10000220FFF745FA54E07B68334A93420AD116
:102F200001214FF48030FFF73BFA00214FF480304D
:102F3000FFF736FA45E07B682C4A93420AD101211B
:102F40004FF40030FFF72CFA00214FF40030FFF768
:102F500027FA36E07B68264A93420AD101214FF4D2
:102F60008020FFF71DFA00214FF48020FFF718FAA8
:102F700027E07B681F4A934208D101214020FFF7D8
:102F8000EFF900214020FFF7EBF91AE07B681A4ABD
:102F9000934208D101218020FFF7E2F9002180202F
:102FA000FFF7DEF90DE07B68144A934209D1012155
:102FB0004FF48070FFF7D4F900214FF48070FFF7D1
:102FC000CFF900BF0837BD4680BD00BF00000140FB
:102FD0000004004000080040000C004000100040C9
:102FE0000014004000040140004001400044014042
:102FF0000048014000180040001C00400020004034
:1030000080B485B000AF786039600023FB817B68B5
:103010001B88FB817B68294A934213D07B68284A2E
:1030200093420FD07B68B3F1804F0BD07B68254A69
:10303000934207D07B68244A934203D07B68234A9B
:10304000934208D1FB8923F07003FB813B685A88C7
:10305000FB891343FB817B681D4A93420CD07B683C
:103060001C4A934208D0FB8923F44073FB813B68E0
:103070001A89FB891343FB817B68FA891A803B68B4
:103080005A687B68DA623B681A887B681A857B68B5
:103090000A4A934203D07B68094A934204D13B68B1
:1030A0009B7A9AB27B681A867B6801229A8200BF5B
:1030B0001437BD465DF8047B704700BF0000014037
:1030C000000401400004004000080040000C0040E3
:1030D000001000400014004080B483B000AF78605E
:1030E0007B684FF0FF325A607B6800221A807B6851
:1030F00000221A817B6800225A807B6800229A7223
:1031000000BF0C37BD465DF8047B704780B483B0C8
:1031100000AF78600B467B8013463B807B687A88E3
:103120001A857B683A889A8200BF0C37BD465DF8E5
:10313000047B704780B485B000AF78600B467B801D
:103140000023FB817B681B88FB81FB8923F07003D4
:10315000FB81FA897B881343FB817B68FA891A809B
:1031600000BF1437BD465DF8047B704780B483B060
:1031700000AF786039607B683A685A6200BF0C37EC
:10318000BD465DF8047B704780B483B000AF7860C3
:1031900039607B683A68DA6200BF0C37BD465DF87B
:1031A000047B704780B483B000AF78607B685B6A53
:1031B00018460C37BD465DF8047B704780B483B079
:1031C00000AF78607B681B8D9BB218460C37BD46FC
:1031D0005DF8047B704780B483B000AF78600B4625
:1031E000FB70FB78002B08D07B681B889BB243F0F8
:1031F00002039AB27B681A8007E07B681B889BB247
:1032000023F002039AB27B681A8000BF0C37BD46D8
:103210005DF8047B704780B483B000AF78600B46E4
:103220007B807B88002B08D07B681B889BB243F097
:1032300004039AB27B681A8007E07B681B889BB204
:1032400023F004039AB27B681A8000BF0C37BD4696
:103250005DF8047B704780B483B000AF78600B46A4
:10326000FB70FB78002B08D07B681B889BB243F077
:1032700080039AB27B681A8007E07B681B889BB248
:1032800023F080039AB27B681A8000BF0C37BD46DA
:103290005DF8047B704780B483B000AF78600B4664
:1032A0007B807B681B889BB223F008039AB27B6803
:1032B0001A807B681B889AB27B8813439AB27B681A
:1032C0001A8000BF0C37BD465DF8047B704780B4A0
:1032D00083B000AF78600B467B807B681B889BB215
:1032E00023F440739AB27B681A807B681B889AB279
:1032F0007B8813439AB27B681A8000BF0C37BD46A7
:103300005DF8047B704780B483B000AF78600B46F3
:10331000FB70FB78002B08D07B681B889BB243F0C6
:1033200001039AB27B681A8007E07B681B889BB216
:1033300023F001039AB27B681A8000BF0C37BD46A8
:103340005DF8047B704780B485B000AF7860396069
:1033500000237B810023FB810023BB817B681B8CC6
:103360009BB223F001039AB27B681A847B681B8CA2
:10337000FB817B689B88BB817B681B8B7B817B8906
:1033800023F070037B817B8923F003037B813B68FF
:103390001A887B8913437B81FB8923F00203FB811D
:1033A0003B689A89FB891343FB813B685A88FB89F8
:1033B0001343FB817B681F4A934203D07B681E4AFC
:1033C000934223D1FB8923F00803FB813B68DA8910
:1033D000FB891343FB81FB8923F00403FB813B68DA
:1033E0009A88FB891343FB81BB8923F48073BB81DB
:1033F000BB8923F40073BB813B681A8ABB891343E2
:10340000BB813B685A8ABB891343BB817B68BA89FD
:103410009A807B687A891A833B689A687B685A63CA
:103420007B68FA891A8400BF1437BD465DF8047BB7
:10343000704700BF000001400004014080B485B027
:1034400000AF7860396000237B810023FB8100237B
:10345000BB817B681B8C9BB223F010039AB27B6804
:103460001A847B681B8CFB817B689B88BB817B6893
:103470001B8B7B817B8923F4E0437B817B8923F455
:1034800040737B813B681B881B029AB27B89134384
:103490007B81FB8923F02003FB813B689B891B0117
:1034A0009AB2FB891343FB813B685B881B019AB28C
:1034B000FB891343FB817B68224A934203D07B68DC
:1034C000214A93422BD1FB8923F08003FB813B6887
:1034D000DB891B019AB2FB891343FB81FB8923F033
:1034E0004003FB813B689B881B019AB2FB89134315
:1034F000FB81BB8923F48063BB81BB8923F4006318
:10350000BB813B681B8A9B009AB2BB891343BB817A
:103510003B685B8A9B009AB2BB891343BB817B6883
:10352000BA899A807B687A891A833B689A687B6833
:103530009A637B68FA891A8400BF1437BD465DF828
:10354000047B7047000001400004014080B485B056
:1035500000AF7860396000237B810023FB8100236A
:10356000BB817B681B8C9BB223F480739AB27B680F
:103570001A847B681B8CFB817B689B88BB817B6882
:103580009B8B7B817B8923F070037B817B8923F07C
:1035900003037B813B681A887B8913437B81FB890A
:1035A00023F40073FB813B689B891B029AB2FB8961
:1035B0001343FB813B685B881B029AB2FB89134370
:1035C000FB817B68224A934203D07B68214A934265
:1035D0002BD1FB8923F40063FB813B68DB891B0251
:1035E0009AB2FB891343FB81FB8923F48063FB813F
:1035F0003B689B881B029AB2FB891343FB81BB8902
:1036000023F48053BB81BB8923F40053BB813B6807
:103610001B8A1B019AB2BB891343BB813B685B8A3F
:103620001B019AB2BB891343BB817B68BA899A801C
:103630007B687A899A833B689A687B68DA637B68DF
:10364000FA891A8400BF1437BD465DF8047B7047C1
:10365000000001400004014080B485B000AF7860F4
:1036600039600023BB8100237B810023FB817B68C1
:103670001B8C9BB223F480539AB27B681A847B68BC
:103680001B8C7B817B689B88FB817B689B8BBB81D0
:10369000BB8923F4E043BB81BB8923F44073BB8126
:1036A0003B681B881B029AB2BB891343BB817B8991
:1036B00023F400537B813B689B891B039AB27B896F
:1036C00013437B813B685B881B039AB27B8913435E
:1036D0007B817B68124A934203D07B68114A9342F4
:1036E0000AD1FB8923F48043FB813B681B8A9B0141
:1036F0009AB2FB891343FB817B68FA899A807B68C5
:10370000BA899A833B689A687B681A647B687A896D
:103710001A8400BF1437BD465DF8047B704700BFB4
:10372000000001400004014080B483B000AF786025
:103730007B6800221A807B6800225A807B68002206
:103740009A807B6800229A607B6800229A817B685D
:103750000022DA817B6800221A827B6800225A826A
:1037600000BF0C37BD465DF8047B704780B485B060
:1037700000AF78600B467B8013463B800023FB60E4
:1037800000237B817B68FB60FB681833FB607B88D0
:10379000012202FA03F37B817B681B8C9AB27B893E
:1037A000DB439BB213409AB27B681A847B88002B60
:1037B00002D07B88082B14D17B885B089BB21A4609
:1037C000FB681344FB60FA68FB6819684FF68F7357
:1037D0000B401360FB68FA6811683A880A431A6064
:1037E00017E07B88043B9BB25B089BB21A46FB68E0
:1037F0001344FB60FA68FB68196848F6FF730B40D6
:103800001360FB68FA6812683988090289B20A43B2
:103810001A6000BF1437BD465DF8047B704780B462
:1038200083B000AF786039607B683A685A6300BF44
:103830000C37BD465DF8047B704780B483B000AFA1
:10384000786039607B683A689A6300BF0C37BD4680
:103850005DF8047B704780B483B000AF7860396056
:103860007B683A68DA6300BF0C37BD465DF8047BBD
:10387000704780B483B000AF786039607B683A6885
:103880001A6400BF0C37BD465DF8047B704780B4F6
:1038900085B000AF78600B467B800023FB817B689E
:1038A0001B8BFB81FB8923F07003FB81FA897B88EA
:1038B0001343FB817B68FA891A8300BF1437BD4626
:1038C0005DF8047B704780B485B000AF78600B462C
:1038D0007B800023FB817B681B8BFB81FB8923F4AE
:1038E000E043FB817B881B029AB2FB891343FB8177
:1038F0007B68FA891A8300BF1437BD465DF8047BE4
:10390000704780B485B000AF78600B467B800023A1
:10391000FB817B689B8BFB81FB8923F07003FB8120
:10392000FA897B881343FB817B68FA899A8300BFFD
:103930001437BD465DF8047B704780B485B000AF96
:1039400078600B467B800023FB817B689B8BFB812F
:10395000FB8923F4E043FB817B881B029AB2FB893D
:103960001343FB817B68FA899A8300BF1437BD46F5
:103970005DF8047B704780B485B000AF78600B467B
:103980007B800023FB817B681B8BFB81FB8923F001
:103990000803FB81FA897B881343FB817B68FA89E2
:1039A0001A8300BF1437BD465DF8047B704780B4AE
:1039B00085B000AF78600B467B800023FB817B687D
:1039C0001B8BFB81FB8923F40063FB817B881B023B
:1039D0009AB2FB891343FB817B68FA891A8300BF83
:1039E0001437BD465DF8047B704780B485B000AFE6
:1039F00078600B467B800023FB817B689B8BFB817F
:103A0000FB8923F00803FB81FA897B881343FB8140
:103A10007B68FA899A8300BF1437BD465DF8047B42
:103A2000704780B485B000AF78600B467B80002380
:103A3000FB817B689B8BFB81FB8923F40063FB810B
:103A40007B881B029AB2FB891343FB817B68FA894E
:103A50009A8300BF1437BD465DF8047B704780B47D
:103A600085B000AF78600B467B800023FB817B68CC
:103A70001B8BFB81FB8923F00403FB81FA897B8884
:103A80001343FB817B68FA891A8300BF1437BD4654
:103A90005DF8047B704780B485B000AF78600B465A
:103AA0007B800023FB817B681B8BFB81FB8923F4DC
:103AB0008063FB817B881B029AB2FB891343FB81E5
:103AC0007B68FA891A8300BF1437BD465DF8047B12
:103AD000704780B485B000AF78600B467B800023D0
:103AE000FB817B689B8BFB81FB8923F00403FB81BB
:103AF000FA897B881343FB817B68FA899A8300BF2C
:103B00001437BD465DF8047B704780B485B000AFC4
:103B100078600B467B800023FB817B689B8BFB815D
:103B2000FB8923F48063FB817B881B029AB2FB89AB
:103B30001343FB817B68FA899A8300BF1437BD4623
:103B40005DF8047B704780B485B000AF78600B46A9
:103B50007B800023FB817B681B8BFB81FB8923F02F
:103B60008003FB81FA897B881343FB817B68FA8998
:103B70001A8300BF1437BD465DF8047B704780B4DC
:103B800085B000AF78600B467B800023FB817B68AB
:103B90001B8BFB81FB89C3F30E03FB817B881B021C
:103BA0009AB2FB891343FB817B68FA891A8300BFB1
:103BB0001437BD465DF8047B704780B485B000AF14
:103BC00078600B467B800023FB817B689B8BFB81AD
:103BD000FB8923F08003FB81FA897B881343FB81F7
:103BE0007B68FA899A8300BF1437BD465DF8047B71
:103BF000704780B485B000AF78600B467B800023AF
:103C0000FB817B689B8BFB81FB89C3F30E03FB81EC
:103C10007B881B029AB2FB891343FB817B68FA897C
:103C20009A8300BF1437BD465DF8047B704780B4AB
:103C300085B000AF78600B467B800023FB817B68FA
:103C40001B8CFB81FB8923F00203FB81FA897B88B3
:103C50001343FB817B68FA891A8400BF1437BD4681
:103C60005DF8047B704780B485B000AF78600B4688
:103C70007B800023FB817B681B8CFB81FB8923F00D
:103C80000803FB81FA897B881343FB817B68FA89EF
:103C90001A8400BF1437BD465DF8047B704780B4BA
:103CA00085B000AF78600B467B800023FB817B688A
:103CB0001B8CFB81FB8923F02003FB817B881B018C
:103CC0009AB2FB891343FB817B68FA891A8400BF8F
:103CD0001437BD465DF8047B704780B485B000AFF3
:103CE00078600B467B800023FB817B681B8CFB810B
:103CF000FB8923F08003FB817B881B019AB2FB893F
:103D00001343FB817B68FA891A8400BF1437BD46D0
:103D10005DF8047B704780B485B000AF78600B46D7
:103D20007B800023FB817B681B8CFB81FB8923F458
:103D30000073FB817B881B029AB2FB891343FB81D2
:103D40007B68FA891A8400BF1437BD465DF8047B8E
:103D5000704780B485B000AF78600B467B8000234D
:103D6000FB817B681B8CFB81FB8923F40063FB8157
:103D70007B881B029AB2FB891343FB817B68FA891B
:103D80001A8400BF1437BD465DF8047B704780B4C9
:103D900085B000AF78600B467B800023FB817B6899
:103DA0001B8CFB81FB8923F40053FB817B881B0365
:103DB0009AB2FB891343FB817B68FA891A8400BF9E
:103DC0001437BD465DF8047B704780B485B000AF02
:103DD00078600B467B8013463B800023FB817B8809
:103DE000012202FA03F3FB817B681B8C9AB2FB89E8
:103DF000DB439BB213409AB27B681A847B681B8CAE
:103E00009AB239887B8801FA03F39BB213439AB2C2
:103E10007B681A8400BF1437BD465DF8047B704789
:103E200080B485B000AF78600B467B8013463B8042
:103E30000023FB817B88042202FA03F3FB817B6869
:103E40001B8C9AB2FB89DB439BB213409AB27B680E
:103E50001A847B681B8C9AB239887B8801FA03F339
:103E60009BB213439AB27B681A8400BF1437BD46D5
:103E70005DF8047B704780B582B000AF7860396030
:103E80003B681B88002B0FD13B6859883B689A8898
:103E90003B681B89786800F0B7FC3B68DB881946F3
:103EA000786800F0E1F836E03B681B88042B0FD1FE
:103EB0003B6859883B689A883B681B89786800F0A2
:103EC000E6FC3B68DB881946786800F0E9F822E0F8
:103ED0003B681B88082B0FD13B6859883B689A8840
:103EE0003B681B89786800F01FFD3B68DB8819463A
:103EF000786800F0F3F80EE03B6859883B689A88D0
:103F00003B681B89786800F057FD3B68DB881946E1
:103F1000786800F0FFF800BF0837BD4680BD80B468
:103F200083B000AF78607B6800221A807B68002233
:103F30005A807B6801229A807B680022DA807B6845
:103F400000221A8100BF0C37BD465DF8047B704724
:103F500080B584B000AF786039600023FB81012315
:103F6000BB813B685B88002B02D10223FB8101E00F
:103F70000023FB813B689B88012B02D10223BB817C
:103F800001E00123BB813B681B88002B1CD13B68EF
:103F900059883B689A883B681B89786800F034FC34
:103FA0003B68DB881946786800F05EF83B681B893F
:103FB000BA89F989786800F06AFC3B68DB881946A1
:103FC000786800F06DF81BE03B6859883B689A8878
:103FD0003B681B89786800F05AFC3B68DB8819460F
:103FE000786800F05DF83B681B89BA89F9897868C0
:103FF00000F00AFC3B68DB881946786800F034F86A
:1040000000BF1037BD4680BD80B483B000AF78607C
:104010007B685B6B18460C37BD465DF8047B7047C8
:1040200080B483B000AF78607B689B6B18460C3718
:10403000BD465DF8047B704780B483B000AF786004
:104040007B68DB6B18460C37BD465DF8047B704718
:1040500080B483B000AF78607B681B6C18460C3767
:10406000BD465DF8047B704780B483B000AF7860D4
:104070000B467B807B681B8B9BB223F00C039AB2B0
:104080007B681A837B681B8B9AB27B8813439AB236
:104090007B681A8300BF0C37BD465DF8047B704710
:1040A00080B483B000AF78600B467B807B681B8B4D
:1040B0009BB223F440639AB27B681A837B681B8BA4
:1040C0009AB27B881B029BB213439AB27B681A8315
:1040D00000BF0C37BD465DF8047B704780B483B0E9
:1040E00000AF78600B467B807B689B8B9BB223F094
:1040F0000C039AB27B689A837B689B8B9AB27B880D
:1041000013439AB27B689A8300BF0C37BD465DF8B3
:10411000047B704780B483B000AF78600B467B802F
:104120007B689B8B9BB223F440639AB27B689A8333
:104130007B689B8B9AB27B881B029BB213439AB21B
:104140007B689A8300BF0C37BD465DF8047B7047DF
:1041500080B483B000AF786039603B681A883B68F0
:104160005B8813439AB23B689B8813439AB23B68BF
:10417000DB8813439AB23B681B8913439AB23B68AE
:104180005B8913439AB23B689B8913439AB27B685D
:10419000A3F8442000BF0C37BD465DF8047B704790
:1041A00080B483B000AF78607B6800221A807B689F
:1041B00000225A807B6800229A807B680022DA8085
:1041C0007B6800221A817B6800225A817B6800226A
:1041D0009A8100BF0C37BD465DF8047B704780B400
:1041E00083B000AF78600B46FB70FB78002B0CD0DF
:1041F0007B68B3F844309BB26FEA43436FEA5343A2
:104200009AB27B68A3F8442009E07B68B3F8443095
:104210009BB2C3F30E039AB27B68A3F8442000BF9D
:104220000C37BD465DF8047B704780B483B000AFA7
:1042300078600B46FB70FB78002B08D07B689B886E
:104240009BB243F004039AB27B689A8007E07B68D4
:104250009B889BB223F004039AB27B689A8000BFCC
:104260000C37BD465DF8047B704780B483B000AF67
:1042700078600B46FB70FB78002B08D07B689B882E
:104280009BB243F001039AB27B689A8007E07B6897
:104290009B889BB223F001039AB27B689A8000BF8F
:1042A0000C37BD465DF8047B704780B483B000AF27
:1042B00078600B467B8013467B707B78002B08D0A0
:1042C0007B689B899AB27B8813439AB27B689A81F8
:1042D00009E07B689B899AB27B88DB439BB21340E1
:1042E0009AB27B689A8100BF0C37BD465DF8047BAB
:1042F000704780B483B000AF78600B467B807B68EA
:104300007A889A8200BF0C37BD465DF8047B7047FF
:1043100080B485B000AF78600B467B800023FB73D0
:104320007B681B8A9AB27B8813409BB2002B02D019
:104330000123FB7301E00023FB73FB7B184614375A
:10434000BD465DF8047B704780B483B000AF7860F1
:104350000B467B807B88DB439AB27B681A8200BF66
:104360000C37BD465DF8047B704780B485B000AF64
:1043700078600B467B800023FB730023BB81002306
:104380007B817B681B8A9AB27B881340BB817B68E8
:104390009B899AB27B8813407B81BB89002B05D017
:1043A0007B89002B02D00123FB7301E00023FB7308
:1043B000FB7B18461437BD465DF8047B704780B41C
:1043C00083B000AF78600B467B807B88DB439AB27A
:1043D0007B681A8200BF0C37BD465DF8047B7047CE
:1043E00080B483B000AF78600B467B8013463B807F
:1043F0007A883B8813439AB27B68A3F8482000BFB1
:104400000C37BD465DF8047B704780B483B000AFC5
:1044100078600B467B8013467B707B78002B08D03E
:104420007B689B899AB27B8813439AB27B689A8196
:1044300009E07B689B899AB27B88DB439BB213407F
:104440009AB27B689A8100BF0C37BD465DF8047B49
:10445000704780B483B000AF78600B46FB70FB7888
:10446000002B08D07B689B889BB243F008039AB26C
:104470007B689A8007E07B689B889BB223F00803E7
:104480009AB27B689A8000BF0C37BD465DF8047B0A
:10449000704780B483B000AF78607B681B899BB2A3
:1044A00023F007039AB27B681A8100BF0C37BD4620
:1044B0005DF8047B704780B582B000AF78600B4632
:1044C0007B807B881946786800F088F87B681B89B8
:1044D0009BB243F007039AB27B681A8100BF08378A
:1044E000BD4680BD80B584B000AFF8600846114677
:1044F0001A4603467B810B463B811346FB807B8932
:10450000602B06D1FB8839890122F86800F0BFF9D9
:1045100005E0FB8839890122F86800F075F97B898C
:104520001946F86800F05AF8FB681B899BB243F003
:1045300007039AB2FB681A8100BF1037BD4680BDE1
:1045400080B586B000AFF860084611461A460346AB
:104550007B810B463B811346FB800023FB82FB885B
:104560003A897989F86800F0A9F8FB681B89FB8211
:10457000FB8A23F00703FB82FB8A43F00703FB82DD
:10458000FB8A23F07003FB82FB8A43F07003FB82FB
:10459000FB68FA8A1A8100BF1837BD4680BD80B516
:1045A00084B000AFF860084611461A4603467B8186
:1045B0000B463B811346FB80FB883A897989F86872
:1045C00000F07CF8FB681B899BB243F480439AB2ED
:1045D000FB681A8100BF1037BD4680BD80B485B02E
:1045E00000AF78600B467B800023FB817B681B89D2
:1045F000FB81FB8923F07003FB81FA897B881343DD
:10460000FB817B68FA891A8100BF1437BD465DF8CB
:10461000047B704780B483B000AF78600B467B802A
:104620007B689B889BB223F070039AB27B689A8068
:104630007B689B889AB27B8813439AB27B689A8086
:1046400000BF0C37BD465DF8047B704780B483B073
:1046500000AF78600B467B807B681B899BB223F0A0
:1046600007039AB27B681A817B681B899AB27B88A0
:1046700013439AB27B681A8100BF0C37BD465DF8C0
:10468000047B704780B483B000AF78600B467B80BA
:104690007B681B899BB223F080039AB27B681A81E6
:1046A0007B681B899AB27B8813439AB27B681A8114
:1046B00000BF0C37BD465DF8047B704780B487B0FF
:1046C00000AFF860084611461A4603467B810B4648
:1046D0003B811346FB800023FB82FB681B89FB8226
:1046E000FB8ADBB2FB82FB881B029AB23B89134335
:1046F0009AB27B8913439AB2FB8A1343FB82FB680D
:10470000FA8A1A8100BF1C37BD465DF8047B7047EA
:1047100080B487B000AFF860084611461A460346D9
:104720007B810B463B811346FB800023FB820023E9
:10473000BB8200237B82FB681B89FB82FB681B8B8F
:10474000BB82FB681B8C7B82FB8A23F00703FB8206
:10475000FA8A7B891343FB82BB8A23F4407323F0DC
:104760000303BB82BB8A43F4807343F00103BB8223
:104770007B8A23F022037B82FB881B019AB23B8950
:1047800013439AB27B8A13437B82FB68FA8A1A81AD
:10479000FB68BA8A1A83FB687A8A1A8400BF1C37BE
:1047A000BD465DF8047B704780B483B000AF78608D
:1047B0000B46FB70FB78002B08D07B689B889BB274
:1047C00043F080039AB27B689A8007E07B689B88FD
:1047D0009BB223F080039AB27B689A8000BF0C37AB
:1047E000BD465DF8047B704780B483B000AF78604D
:1047F0000B467B807B687A88A3F8502000BF0C377B
:10480000BD465DF8047B704780B487B000AFF860A8
:10481000084611461A4603467B810B463B811346E8
:10482000FB800023FB820023BB82FB681B8C9BB2B6
:1048300023F001039AB2FB681A84FB681B8BFB828E
:10484000FB681B8CBB82FB8A23F0F303FB82FB8893
:104850001B019AB23B8913439AB2FB8A1343FB8232
:10486000BB8A23F00A03BB827A89BB8A13439BB2BB
:1048700043F00103BB82FB68FA8A1A83FB68BA8A99
:104880001A8400BF1C37BD465DF8047B704780B4B6
:1048900087B000AFF860084611461A4603467B8190
:1048A0000B463B811346FB800023FB820023BB8227
:1048B00000237B82FB681B8C9BB223F010039AB20F
:1048C000FB681A84FB681B8BFB82FB681B8CBB821A
:1048D0007B891B017B82FB8A23F440731B051B0D24
:1048E000FB82FB881B039AB2FB8A1343FB823B8942
:1048F0001B029AB2FB8A1343FB82BB8A23F0A003FC
:10490000BB827A8ABB8A13439BB243F01003BB82FB
:10491000FB68FA8A1A83FB68BA8A1A8400BF1C37BC
:10492000BD465DF8047B704780B487B000AFF86087
:10493000084611461A4603467B810B463B811346C7
:10494000FB800023FB820023BB8200237B82FB6869
:104950001B8C9BB223F480739AB2FB681A84FB68A9
:104960009B8BFB82FB681B8CBB827B891B027B823F
:10497000FB8A23F0F303FB82FB881B019AB23B897D
:1049800013439AB2FB8A1343FB82BB8A23F420634E
:10499000BB827A8ABB8A13439BB243F48073BB8287
:1049A000FB68FA8A9A83FB68BA8A1A8400BF1C37AC
:1049B000BD465DF8047B704780B487B000AFF860F7
:1049C000084611461A4603467B810B463B81134637
:1049D000FB800023FB820023BB8200237B82FB68D9
:1049E0001B8C9BB223F480539AB2FB681A84FB6839
:1049F0009B8BFB82FB681B8CBB827B891B037B82AE
:104A0000FB8A23F440731B051B0DFB823B891B02B1
:104A10009AB2FB8A1343FB82FB881B039AB2FB8A80
:104A20001343FB82BB8A23F400535B045B0CBB8201
:104A30007A8ABB8A13439BB243F48053BB82FB68E0
:104A4000FA8A9A83FB68BA8A1A8400BF1C37BD466B
:104A50005DF8047B704700BF80B485B000AF0346AB
:104A6000FB800023FB60B7F90630842B05D0B7F933
:104A70000620FB6813440333FB60FB6818461437B9
:104A8000BD465DF8047B704780B485B000AF7860A8
:104A90008423FB817B68062B04D87B689BB2033B95
:104AA0009BB2FB81B7F90E3018461437BD465DF84E
:104AB000047B704780B483B000AFEFF305837B6065
:104AC0007B68002B14BF01230023DBB218460C3790
:104AD000BD465DF8047B704780B500AF01F0F6FB82
:104AE0000023184680BD80B500AF02F06FFA034680
:104AF000012B01D1002300E00123184680BD80B5C1
:104B000000AFFFF7D7FF0346002B03D001F0F6FC00
:104B1000034602E001F0E2FC0346184680BDF0B512
:104B200087B002AF786039607B685C687B681D681D
:104B30007B681B699EB27B68B3F908301846FFF7A3
:104B40008BFF024607F10C03019300923B6832464B
:104B50002946204600F0E8FE0346012B01D0002341
:104B600000E0FB6818461437BD46F0BD80B500AFC5
:104B700002F01CFA0346184680BD80B582B000AF33
:104B80007860786801F006F8002318460837BD46BB
:104B900080BD80B400AF074B4FF080521A60BFF366
:104BA0004F8FBFF36F8F00231846BD465DF8047B1F
:104BB000704700BF04ED00E080B582B000AF7860C0
:104BC0000B467B80B7F902301846FFF745FF0346D6
:104BD0001946786801F03EF9002318460837BD46AB
:104BE00080BD80B582B000AF7860FFF763FF0346F9
:104BF000002B08D0786801F001F903461846FFF74A
:104C000043FF034607E0786801F0DEF803461846E4
:104C1000FFF73AFF034618460837BD4680BD80B50A
:104C200084B000AF78607B68FB60FB68002B01D02C
:104C3000FB6800E00123184601F03AF8002318460B
:104C40001037BD4680BD80B485B000AFF8600B461C
:104C50007A60FB72002318461437BD465DF8047B6A
:104C6000704780B485B000AF786039600023FB6086
:104C7000FF23FB60FB6818461437BD465DF8047BD4
:104C8000704780B485B000AF78600023FB60FF23DD
:104C9000FB60FB6818461437BD465DF8047B70471F
:104CA00080B485B000AF78600023FB60FF23FB6019
:104CB000FB6818461437BD465DF8047B704780B525
:104CC00086B002AF786039600023FB600023BB60D0
:104CD000FFF7F0FE0346002B1CD0396807F10802ED
:104CE00007F10C03009313460122786802F0F4FBED
:104CF0000346012B02D04FF0004319E0FB68002B64
:104D000015D00D4B4FF080521A60BFF34F8FBFF399
:104D10006F8F0CE0396807F108030122786802F010
:104D20003BFB0346012B02D04FF0004300E0BB6881
:104D300018461037BD4680BD04ED00E090B589B03F
:104D400000AFF860B9607A6000237B610023FB61EB
:104D50007B68B3F1FF3F03D14FF0FF33FB6109E004
:104D60007B68002B06D07B68FB61FB69002B01D1BF
:104D70000123FB61FFF79EFE0346002B02D0822336
:104D80003B611BE0B96807F110031A1DFB690020A5
:104D900002F0A8FA0346012B08D0FB69002B02D1D0
:104DA00000233B610AE040233B6107E07B69002B65
:104DB00002DA86233B6101E008233B61FB681C4665
:104DC00007F1100393E8070084E80700F868243728
:104DD000BD4690BD80B582B000AF7860012002F082
:104DE0003BFE034618460837BD4680BD80B584B0FB
:104DF00000AF786039600023BB607B68002B01D175
:104E000080233CE00023FB603B68B3F1FF3F03D10C
:104E10004FF0FF33FB6009E03B68002B06D03B6896
:104E2000FB60FB68002B01D10123FB60FFF742FE12
:104E30000346002B17D007F108031A4600217868B3
:104E400003F04CF90346012B01D0FF2317E0BB68A8
:104E5000002B13D00C4B4FF080521A60BFF34F8FD2
:104E6000BFF36F8F0AE00023FA680021786803F02F
:104E700022F80346012B01D0FF2300E0002318464F
:104E80001037BD4680BD00BF04ED00E080B584B0A2
:104E900000AF78600023FB600023BB60FFF70AFED1
:104EA0000346002B16D007F108031946786802F074
:104EB00079FF0346012B01D0FF2317E0BB68002BCD
:104EC00013D00C4B4FF080521A60BFF34F8FBFF3DB
:104ED0006F8F0AE0002300220021786802F0D4FDE1
:104EE0000346012B01D0FF23FB60FB6818461037F7
:104EF000BD4680BD04ED00E080B582B000AF7860B3
:104F0000FFF7D8FD0346002B01D0822303E0786829
:104F100003F020FA002318460837BD4680BD80B54F
:104F200084B000AF786039603B68012B10D1032258
:104F30000021012002F01AFDF860FB68002B05D06B
:104F4000002300220021F86802F09EFDFB6800E0CB
:104F5000002318461037BD4680BD80B584B000AF31
:104F6000786039600023BB607B68002B01D180230F
:104F70003CE00023FB603B68B3F1FF3F03D14FF0FF
:104F8000FF33FB6009E03B68002B06D03B68FB6009
:104F9000FB68002B01D10123FB60FFF78BFD03466B
:104FA000002B17D007F108031A460021786803F098
:104FB00095F80346012B01D0FF2317E0BB68002BB7
:104FC00013D00C4B4FF080521A60BFF34F8FBFF3DA
:104FD0006F8F0AE00023FA680021786802F06BFF07
:104FE0000346012B01D0FF2300E0002318461037B1
:104FF000BD4680BD04ED00E080B584B000AF7860B0
:105000000023FB600023BB60FFF754FD0346002B29
:1050100016D007F108031946786802F0C3FE03466C
:10502000012B01D0FF2317E0BB68002B13D00C4BE2
:105030004FF080521A60BFF34F8FBFF36F8F0AE0BB
:10504000002300220021786802F01EFD0346012B98
:1050500001D0FF23FB60FB6818461037BD4680BDBA
:1050600004ED00E080B582B000AF7860FFF722FD6C
:105070000346002B01D0822303E0786803F06AF92D
:10508000002318460837BD4680BD80B586B000AF06
:1050900078607B685B68033323F00303FB601420B4
:1050A00003F01CFC78617B69002B46D07B681A6892
:1050B0007B699A60FA687B69DA607B6900221A6111
:1050C0007B681B68184603F009FC02467B695A603E
:1050D0007B695B68002B2BD07B681B68FA6802FB3E
:1050E00003F3184603F0FAFB02467B691A607B69FA
:1050F0001B68002B11D000233B6108E07B695A68D4
:105100003B69134400221A703B6901333B617B68A1
:105110001A683B699A42F1D80FE07B695B681846D0
:1051200003F09EFC786903F09BFC00237B6104E0A4
:10513000786903F095FC00237B617B69184618377A
:10514000BD4680BD80B58AB000AF786000237B6229
:1051500000233B62FFF7AEFC0346002B0ED0EFF3BB
:1051600011824FF0500383F31188BFF36F8FBFF3A9
:105170004F8F7A613B617B697B6201E003F0C0FE87
:105180000023FB6129E07B681A69FB691344BB615A
:105190007B689A68BB699A4201D80023BB617B682F
:1051A0005A68BB6913441B78002B13D17B685A687B
:1051B000BB69134401221A707B681B6819467B681F
:1051C000DB68BA6902FB03F30B443B627B68BA6994
:1051D0001A6107E0FB690133FB617B689A68FB6930
:1051E0009A42D0D8FFF766FC0346002B05D07B6AB5
:1051F000FB60FB6883F3118801E003F0AFFE3B6ABC
:1052000018462837BD4680BD80B584B000AF7860B1
:105210007868FFF797FFF860FB68002B04D0042242
:105220000021F86808F000FBFB6818461037BD46FF
:1052300080BD80B485B000AF786039607B68002B9A
:1052400001D1802330E03B68002B01D180232BE08B
:105250007B681A683B689A4201D9802324E03B6846
:105260007A6812689B1AFB607B68DA68FB68B3FB9C
:10527000F2F102FB01F29B1A002B01D0802313E014
:105280007B68DB68FA68B2FBF3F3FB607B689A68C3
:10529000FB689A4201D8802306E07B685A68FB6865
:1052A000134400221A70002318461437BD465DF8D7
:1052B000047B704780B582B000AF786039607B684E
:1052C00018687B685B680022194602F04FFB0346B2
:1052D00018460837BD4680BD80B586B000AFF8607F
:1052E000B9607A6000233B617B687B617B69002B3E
:1052F00001D101237B61FFF7DDFB0346002B18D0B2
:1053000007F1100207F108010023F86802F0B6FC6B
:105310000346012B01D0FF2318E03B69002B14D07A
:105320000C4B4FF080521A60BFF34F8FBFF36F8F5B
:105330000BE007F1080100237A69F86802F0A4FB8A
:105340000346012B01D0FF2300E000231846183745
:10535000BD4680BD04ED00E090B58BB000AFF860B5
:10536000B9607A60BB68FB610023BB61BB68002B3E
:105370000AD180237B61FB681C4607F1140393E884
:10538000070084E8070054E000233B6200237B62AF
:105390007B68B3F1FF3F03D14FF0FF337B6209E03D
:1053A0007B68002B06D07B687B627B6A002B01D177
:1053B00001237B62FFF77EFB0346002B1CD007F125
:1053C000200207F1140304331946B86802F086FE80
:1053D0000346012B02D110237B6101E000237B6196
:1053E0003B6A002B1DD0154B4FF080521A60BFF363
:1053F0004F8FBFF36F8F14E007F11403191D0023C3
:105400007A6AB86802F057FD0346012B02D11023D7
:105410007B6106E07B6A002B01D1002300E0402382
:105420007B61FB681C4607F1140393E8070084E8DE
:105430000700F8682C37BD4690BD00BF04ED00E0C2
:1054400090B587B000AF786039607B681B68FB60FF
:105450007B685B683B6100237B617B689C680C20F8
:1054600003F03CFA034623607B689B681B68002BB3
:1054700001D1002339E07B689B681B687A681A6059
:105480007B689B681C687B681B68002204211846A7
:1054900002F06CFA034663607B689B681B685B687C
:1054A000002B07D17B689B681B68184603F0D8FA6D
:1054B00000231AE07B689B681C6807F10C03184600
:1054C000FFF7E3FD0346A3607B689B681B689B684E
:1054D000002B07D17B689B681B68184603F0C0FA55
:1054E000002302E07B689B681B6818461C37BD469A
:1054F00090BD80B584B000AF786039607B68002BC8
:1055000001D1002306E07B689B681846FFF71AFE6E
:10551000F860FB6818461037BD4680BD80B584B082
:1055200000AF7860396039687868FFF7E2FFB860EB
:10553000BB68002B10D00023FB6007E0BA68FB6853
:10554000134400221A70FB680133FB607B681B6800
:105550005A68FB689A42F1D8BB6818461037BD46B6
:1055600080BD80B584B000AF786039607B68002B67
:1055700001D180232CE00023FB60FFF79BFA034658
:10558000002B18D07B68586807F10C0239460023BD
:1055900002F074FB0346012B01D0FF2318E0FB68E7
:1055A000002B14D00C4B4FF080521A60BFF34F8F7A
:1055B000BFF36F8F0BE07B685868394600230022E9
:1055C00002F062FA0346012B01D0FF2300E0002322
:1055D00018461037BD4680BD04ED00E090B58BB095
:1055E00000AFF860B9607A60BB68FB61BB68002BF4
:1055F0000AD180237B61FB681C4607F1140393E802
:10560000070084E8070056E000233B6200237B622A
:105610007B68B3F1FF3F03D14FF0FF337B6209E0BA
:105620007B68002B06D07B687B627B6A002B01D1F4
:1056300001237B62FFF73EFA0346002B1DD0BB68B7
:10564000586807F1200207F114030433194602F0E9
:1056500045FD0346012B02D120237B6101E000239D
:105660007B613B6A002B1ED0154B4FF080521A60B5
:10567000BFF34F8FBFF36F8F15E0BB68586807F11A
:105680001403191D00237A6A02F015FC0346012B4E
:1056900002D120237B6106E07B6A002B01D100232D
:1056A00000E040237B61FB681C4607F1140393E88C
:1056B000070084E80700F8682C37BD4690BD00BF9E
:1056C00004ED00E080B582B000AF786039607B689F
:1056D000002B01D1802306E07B689B68396818465F
:1056E000FFF7A7FD034618460837BD4680BD80B5C5
:1056F00000AF01F06BFC0346012B01D003F08BFCE3
:1057000000BF80BD80B582B000AF7860786800F0DF
:105710004FFC002318460837BD4680BD80B582B0D7
:1057200000AF7860FFF7C6F90346002B0ED078680B
:1057300000F05CFD0346012B0BD1084B4FF080526B
:105740001A60BFF34F8FBFF36F8F02E0786800F0ED
:10575000F1FC002318460837BD4680BD04ED00E08B
:1057600080B500AF00F010FE0023184680BD80B564
:1057700000AF00F017FE0346012B01D1002300E02B
:10578000FF23184680BD80B483B000AF78603960D5
:10579000812318460C37BD465DF8047B704780B402
:1057A00083B000AF7860812318460C37BD465DF8A2
:1057B000047B704780B483B000AF78600023184644
:1057C0000C37BD465DF8047B704790B589B000AFDB
:1057D000F860B9607A60BB68BB61BB68002B0AD116
:1057E00080233B61FB681C4607F1100393E8070028
:1057F00084E8070030E00023FB617B68B3F1FF3FE2
:1058000003D14FF0FF33FB6109E07B68002B06D02A
:105810007B68FB61FB69002B01D10123FB6107F170
:105820001003191D0123FA69B86802F044FB03460E
:10583000012B02D110233B6106E0FB69002B01D153
:10584000002300E040233B61FB681C4607F1100386
:1058500093E8070084E80700F8682437BD4690BD48
:1058600080B582B000AF7860FFF724F90346002BC3
:1058700004D0786802F053FD034603E0786802F034
:105880000FFD034618460837BD4680BD80B582B07F
:1058900000AF7860786802F020FD034618460837AC
:1058A000BD4680BD80B582B000AF7860FFF702F9D9
:1058B0000346002B01D0822303E0786802F04AFD02
:1058C000002318460837BD4680BD80B483B000AFC2
:1058D0007860002318460C37BD465DF8047B70479E
:1058E00080B483B000AF7860812318460C37BD4682
:1058F0005DF8047B704780B483B000AF7860396096
:10590000812318460C37BD465DF8047B704780B58F
:1059100082B000AF7860786802F0C2FC0346184697
:105920000837BD4680BD00BF80B58CB004AFF860BD
:10593000B9603B601346FB80FB889B00184602F071
:10594000CDFF78617B69002B0ED05C2002F0C6FF92
:10595000F861FB69002B03D0FB697A691A6305E0E3
:10596000786903F07DF801E00023FB61FB69002BFF
:1059700013D0FA8800230393FB690293FB6A019317
:10598000BB6A00933B68B968F86800F00EF8F869E4
:1059900000F091F80123BB6102E04FF0FF33BB61DF
:1059A000BB6918462037BD4680BD80B588B000AFC2
:1059B000F860B9607A603B603B6B186B7B689B005A
:1059C0001A46A52107F030FF3B6B1A6B7B6803F189
:1059D0008043013B9B001344BB61BB6923F0070379
:1059E000BB61BB6903F00703002B09D04FF05003E4
:1059F00083F31188BFF36F8FBFF34F8F7B61FEE797
:105A00000023FB6112E0BA68FB69134419783A6B12
:105A1000FB69134434330A461A70BA68FB691344AD
:105A20001B78002B06D0FB690133FB61FB690F2B50
:105A3000E9D900E000BF3B6B002283F84320BB6A3A
:105A4000062B01D90623BB623B6BBA6ADA623B6B59
:105A5000BA6ADA643B6B00221A653B6B0433184662
:105A600002F0A8FE3B6B1833184602F0A3FE3B6B16
:105A70003A6B1A61BB6AC3F107023B6B9A613B6BDD
:105A80003A6B5A623B6B00225A653B6B002283F8EB
:105A900058203A68F968B86903F01AF902463B6B76
:105AA0001A60FB6A002B02D0FB6A3A6B1A6000BFD7
:105AB0002037BD4680BD80B582B000AF786003F06E
:105AC0001FFA2D4B1B6801332B4A13602B4B1B68AD
:105AD000002B09D1294A7B681360274B1B68012BD7
:105AE00010D101F0E5F80DE0254B1B68002B09D122
:105AF000224B1B68DA6A7B68DB6A9A4202D81F4A2B
:105B00007B6813601F4B1B6801331E4A13601D4BDB
