:020000040800F2
:100000000000022079180008090500080D05000805
:10001000110500081505000819050008000000007A
:100020000000000000000000000000001D050008A6
:10003000210500080000000025050008290500082A
:10004000C1180008C1180008C1180008C11800082C
:10005000C1180008C1180008C1180008C11800081C
:10006000C1180008C1180008C1180008C11800080C
:10007000C1180008C1180008C1180008C1180008FC
:10008000C1180008C1010008C1180008C118000803
:10009000C1180008C1180008C1180008C1180008DC
:1000A000C1180008C1180008C1180008C1180008CC
:1000B000C1180008C1180008C1180008C1180008BC
:1000C000C1180008C1180008C1180008C1180008AC
:1000D000C1180008C11800081D020008C118000856
:1000E000C1180008C1180008C1180008C11800088C
:1000F000C1180008C1180008C1180008C11800087C
:10010000C1180008C1180008C1180008C11800086B
:10011000C1180008C1180008C1180008C11800085B
:10012000C1180008C1180008C1180008C11800084B
:10013000C1180008C1180008C1180008C11800083B
:10014000C1180008C1180008C1180008C11800082B
:10015000C1180008C1180008C1180008C11800081B
:10016000C1180008C1180008C1180008C11800080B
:10017000C1180008C1180008C1180008C1180008FB
:08018000C1180008C1180008B5
:1001C00008B50649064800F051FC00B908BD0349CE
:1001D0000348BDE8084000F073BC00BF0080202049
:1001E000A060024070B5064601F0AAFA094B0A4C1D
:1001F00085B223F8045B31462A46184601F004FA1A
:100200002946204600F0C6FB20460121BDE870408B
:1002100000F0A2BB60080020A060024070B5164C40
:1002200040F22441204601F0C1F920B3134D144897
:10023000144E4FF4804100F0B3FF204640F22441B9
:100240002388A38801F0D8F90021284600F084FB18
:10025000284600F0A1FBC0F1800006FA80F0802360
:10026000002280F8842001216B60284600F074FB96
:100270000123C6F8043170BD00440040886002408C
:10028000000C0240600800202DE9F04F012199B0D8
:10029000DFF8B481684E694FDFF8B0B18246084696
:1002A00000F070FD01214FF4003000F08FFD40465A
:1002B0000722022100F078FF072240460321002494
:1002C00000F072FF01254FF00209404603A9042304
:1002D0008DF810908DF8119003938DF812408DF8E1
:1002E000135000F0CDFE03A9404608238DF810906E
:1002F000039300F0C5FE0C23304605A9ADF81E306F
:10030000CDF814A0ADF81840ADF81A40ADF81C4077
:10031000ADF8204000F0C2FF2946304601F044F815
:1003200029464FF4001000F02DFD384600F03EFA4B
:10033000434A0E944FF00063914609930193414B59
:100340000A934FF4806339F884EB0F934FF0400821
:100350004FF400330432384609A94FF0030ACDF8B0
:1003600034E013930B9210941194129414941694F5
:100370001794CDF83080CDF854A000F0AFFA2A469B
:100380003046802101F0E0F82A463846102100F07E
:100390004DFB2146384600F0DFFA4FF40033183F9A
:1003A000CBF8003029464FF4001000F0EBFC384643
:1003B00000F0FCF9019B0993224B0A934FF0800C4B
:1003C0004FF4807E4FF4806309A938464FF44032E1
:1003D000CDF834C0CDF848E00F931392CDF82C90AF
:1003E0000C940E94109411941494CDF854A0169477
:1003F000179400F073FA2A464146304601F0A4F8FB
:100400002946384600F0A8FA262302A88DF80830BD
:100410008DF809408DF80A408DF80B5000F06EF908
:100420002A46304640F2244101F098F8CBF8048087
:1004300019B0BDE8F08F00BF00440040A06002404A
:1004400060080020044400400000024000E100E099
:1004500030B5012183B0082000F094FC4FF47045C2
:100460000023032201246946064800958DF80440C4
:100470008DF806308DF807308DF8052000F000FE6D
:1004800003B030BD000C024038B50C4B0C491B6862
:100490000C4A0D4CA1FB03139B09013B0020F025E6
:1004A0000721536084F8235090601160FFF7D0FF5C
:1004B0004FF4E120BDE83840FFF7E6BE1000002011
:1004C000D34D621010E000E000ED00E0054B1A682B
:1004D00012B11A68013A1A60034A136801331360B3
:1004E000704700BFA0090020A409002082B0044A80
:1004F0000190019B13601368002BFCD102B0704780
:10050000A0090020704700BF704700BFFEE700BF92
:10051000FEE700BFFEE700BFFEE700BF704700BF79
:10052000704700BF704700BFFFF7D0BF3849394B55
:10053000D1F88820384842F47002C1F888201A683F
:10054000002142F001021A6099601A6822F0847258
:1005500022F480321A6058601A6882B022F4802235
:100560001A60D960009101911A6842F480321A60D1
:100570001A4603E0009BB3F5A06F09D0136803F49B
:1005800000330193009B01330093019B002BF1D0BA
:10059000204B1B6813F4003318BF01230193019B08
:1005A000012B05D01A4B4FF000629A6002B07047E1
:1005B000184B1A491A6C1A4842F080521A640A6899
:1005C00042F480420A609A689A609A6842F4004253
:1005D0009A609A6842F4A0529A6058601A6842F091
:1005E00080721A601A689201FCD50E49094A40F2DD
:1005F00005600860996821F003019960996841F0ED
:1006000002019960936803F00C03082BFAD1C9E743
:1006100000ED00E00038024010300024007000407F
:1006200008544007003C0240154A936803F00C034D
:10063000042B23D0082B09D0124B114A124992687F
:10064000C2F303128A5CD3400B6170475068516853
:1006500052684302C2F3881201F03F014CBF0B4BBA
:10066000084BB3FBF1F303FB02F3054A5268C2F3F4
:10067000014201325200B3FBF2F3DEE7034BDCE749
:10068000003802400024F4000000002000127A002C
:1006900000207047002070470120704700207047FD
:1006A0004FF0FF30704700BF064B186838B1014467
:1006B0006A46914294BF19604FF0FF30704702487C
:1006C0001860F4E768090020D4090020104670473C
:1006D00010467047F02C0008000000206008002041
:1006E00060080020D409002040F0BF60024B40F4B5
:1006F0000030D860704700BF00ED00E0C3785BB900
:10070000037816485A09203203F01F03012101FA29
:1007100003F340F822307047114A70B4D26843782E
:10072000867801780D48D243C2F30222C2F1040553
:10073000EDB20F24AB4044FA02F23240DBB2134375
:1007400044181B0101F01F0501224909DBB2AA4030
:1007500084F8003370BC40F82120704700E100E0CD
:1007600000ED00E021F0604121F07F01014B0143E9
:100770009960704700ED00E029B9054A136923EA42
:10078000000010617047024B1A69104318617047EE
:1007900000ED00E0044A136804280CBF43F0040392
:1007A00023F004031360704710E000E0026837494B
:1007B000002310B422F00102212488420260036069
:1007C00043608360C360036144614DD0304B984205
:1007D00035D0304B984239D02F4B98423DD02F4BDB
:1007E000984247D02E4B984248D02E4B98421DD06D
:1007F0002D4B98421ED02D4B984243D02C4B984203
:100800001DD02C4B984221D02B4B984225D02B4BFE
:1008100098422FD02A4B984230D02A4B984205D08C
:10082000294B984206D05DF8044B7047274A43F89D
:10083000942CF8E74FF03D5243F8AC2CF3E74FF41B
:10084000746243F8202C5DF8044B70474FF4741227
:1008500043F8382C5DF8044B70474FF0746243F84E
:10086000502C5DF8044B7047194B5DF8044B3D224A
:100870009A607047174A43F8642CD4E7164A43F845
:100880007C2CD0E73D2243F8082CCCE710600240D6
:1008900028600240406002405860024070600240A0
:1008A00088600240A0600240B860024010640240CC
:1008B0002864024040640240586402407064024070
:1008C00088640240A0640240B864024000003D20F9
:1008D000006002403D000020400F00200B68CA6904
:1008E000F0B4CE684D698C690F6A33432B432343C0
:1008F0004E6A8D6A4C6B13433B4333438A6B0768E4
:100900000B4E2B4323433E4013433343CD6A0360D6
:1009100042690B6B0E694C6889682B4322F0070211
:100920001343436146608460C160F0BC704700BF00
:100930003F801CF00023036043608360C360036159
:1009400043618361C361036243628362C362036381
:1009500043638363704700BF036819B923F0010341
:100960000360704743F0010303607047036819B9DF
:1009700023F400430360704743F40043036070476F
:10098000036819B923F020030360704743F0200384
:100990000360704741607047406880B2704700BF95
:1009A000036822B923F4002303600161704743F414
:1009B0000023036001617047036819B923F48023A1
:1009C0000360704743F48023036070470AB9C16035
:1009D00070470161704700BF0068C0F3C0407047B6
:1009E000006800F001007047406900F0380070476F
:1009F0000B4B0C4A10B40C4CA04294BF1846104646
:100A00008B004CBF436803685DF8044B21F0F02174
:100A100021F08211194214BF01200020704700BF4D
:100A200000600240006402400F6402400B060CD5D7
:100A30004369AAB143F08003802943610FD0036862
:100A400001F01E01194301607047802907D0002A78
:100A5000F5D1036801F01E0123EA0101016070472E
:100A600023F0800380294361F3D1704730B4114BE8
:100A7000114D124A21F0F02424F0C314A84298BF6B
:100A80001A469CB1006800EAD12000F01E038800DD
:100A90004CBF5068106821F0F02121F0821108400D
:100AA00002D0181C18BF012030BC7047436903F006
:100AB0008003ECE7006002400F64024000640240E3
:100AC00010B4094B094C0A4AA04294BF184610467C
:100AD00011F0005F21F0F02121F0821114BFC160FC
:100AE00081605DF8044B7047006002400F64024073
:100AF00000640240FFF7E4BF0A4B0B481A6800216C
:100B000042F001021A6099601A6822F0847222F49D
:100B100080321A6058601A6822F480221A60D96004
:100B2000704700BF0038024010300024024B002202
:100B30001A701870704700BF0238024082B000235C
:100B40000A4A019302E0B3F5A06F08D0136813F4CA
:100B5000003F019B03F101030193019BF3D0034B81
:100B60001868C0F3404002B0704700BF0038024030
:100B7000034A136823F0F80343EAC000106070478B
:100B800000380240014B1860704700BF0000474228
:100B9000064B002201281A701A7005D0042802D1D1
:100BA00005221A70704770471870704770380240FD
:100BB000014B1860704700BF800E474230B4029C62
:100BC000064D40EA04605B080843013B40EA82109E
:100BD00040EA0340686030BC704700BF0038024004
:100BE000014B1860704700BF600047420907034B84
:100BF00041EA8011C3F88410704700BF00380240FA
:100C0000014B1860704700BF68004742014B1860F5
:100C1000704700BF4C004742034A936823F0EC63DF
:100C2000194301439160704700380240034A9368BA
:100C300023F0784319430143916070470038024024
:100C4000034A936823F0030318439060704700BF82
:100C500000380240024B986800F00C00704700BF5B
:100C600000380240034A936823F0F0031843906071
:100C7000704700BF00380240034A936823F4E053F2
:100C800018439060704700BF00380240034A9368E1
:100C900023F4604343EAC00090607047003802408C
:100CA0001F4A936803F00C03042B10B41BD0082BCD
:100CB0001CD01C4B03601A4A1B499468C4F30314EC
:100CC0000C5DE34043609468C4F382240C5D23FA16
:100CD00004F4846092685DF8044BC2F342328A5C8B
:100CE000D340C3607047114B0360E4E75468516818
:100CF00052686302C2F3881201F03F014CBF0B4BF4
:100D0000084BB3FBF1F303FB02F3054A5268C2F34D
:100D1000014201325200B3FBF2F30360CBE700BFA4
:100D2000003802400024F4001400002000127A0071
:100D300000F44073B3F5407F09D108498A6820F078
:100D4000704322F4F81223F4407313438B60034B77
:100D50001A6FC0F30B001043186770470038024049
:100D6000014B1860704700BF3C0E4742014B1860B2
:100D7000704700BF400E4742014B1860704700BFEC
:100D80005C014742044A136B19B923EA000010635F
:100D9000704718431063704700380240044A536B91
:100DA00019B923EA00005063704718435063704735
:100DB00000380240044A936B19B923EA000090639B
:100DC000704718439063704700380240044A136C20
:100DD00019B923EA00001064704718431064704783
:100DE00000380240044A536C19B923EA00005064E9
:100DF000704718435064704700380240044A136932
:100E000019B923EA00001061704718431061704758
:100E100000380240044A536919B923EA00005061BE
:100E2000704718435061704700380240044A936984
:100E300019B923EA00009061704718439061704728
:100E400000380240044A136A19B923EA000010620C
:100E5000704718431062704700380240044A536AD2
:100E600019B923EA00005062704718435062704776
:100E700000380240044A136D19B923EA00001065D6
:100E8000704718431065704700380240044A536D9C
:100E900019B923EA00005065704718435065704740
:100EA00000380240044A936D19B923EA00009065A6
:100EB000704718439065704700380240044A136E2B
:100EC00019B923EA0000106670471843106670478E
:100ED00000380240044A536E19B923EA00005066F4
:100EE000704718435066704700380240044A137830
:100EF00019B923EA0000107070471843107070474A
:100F00000D3802404309012B0BD0022B094B0CBFBB
:100F10001B6F5B6F00F01F0023FA00F000F0010070
:100F20007047044B1B6800F01F0023FA00F000F02C
:100F30000100704700380240024A536F43F080734B
:100F40005367704700380240034BDB68184214BFF8
:100F500001200020704700BF00380240014B18708C
:100F6000704700BF0E38024008B53C4B984224D071
:100F70003B4B98422BD03B4B984232D03A4B984255
:100F800039D03A4B984240D0394B984247D0394BF0
:100F900098424ED0384B984255D0384B984200D0AA
:100FA00008BD01214FF48070FFF728FF00214FF4A6
:100FB0008070BDE80840FFF721BF01210846FFF718
:100FC0001DFF00210120BDE80840FFF717BF0121E8
:100FD0000220FFF713FF00210220BDE80840FFF7C1
:100FE0000DBF01210420FFF709FF00210420BDE807
:100FF0000840FFF703BF01210820FFF7FFFE002193
:101000000820BDE80840FFF7F9BE01211020FFF7D6
:10101000F5FE00211020BDE80840FFF7EFBE0121DA
:101020002020FFF7EBFE00212020BDE80840FFF75D
:10103000E5BE01214020FFF7E1FE00214020BDE890
:101040000840FFF7DBBE01218020FFF7D7FE00211B
:101050008020BDE80840FFF7D1BE00BF000002407D
:101060000004024000080240000C02400010024050
:101070000014024000180240001C02400020024000
:1010800000222DE9F0471346D1F800E001274FF088
:10109000030C04E00133102B02F1020229D007FAFD
:1010A00003F434EA0E05F5D1D0F800800E790CFA7D
:1010B00002F5ED4308EA0508C0F80080D0F800A06A
:1010C00006FA02F9013E49EA0A09012E0CFA02F871
:1010D000C0F800900FD9C568CC7925EA0805C5602D
:1010E000C568944001332C43102BC46002F1020206
:1010F000D5D1BDE8F087D0F808904E7905EA09050A
:101100008560D0F808908D79964046EA0906866099
:10111000466826EA04044460466805FA03F4A4B26B
:1011200034434460D7E700BF00234FF6FF720260EC
:10113000037143718371C371704700BF82B04FF474
:1011400080330193019B0B430193019BC361C161F8
:10115000019BC361C3690193C369019302B07047E6
:101160000369194214BF012000207047006980B252
:10117000704700BF4369194214BF01200020704727
:10118000406980B2704700BF018370474183704758
:101190000AB9418370470183704700BF41617047BE
:1011A0004369594041617047CB0800EB830001F06F
:1011B000070110B4036A89000F248C4023EA04035A
:1011C0000362036A5DF8044B02FA01F119430162FC
:1011D000704700BF08B52B4B984219D02A4B984254
:1011E00020D02A4B984229D0294B984232D0294B03
:1011F00098423BD0284B984200D008BD01212020C6
:10120000FFF72CFE00212020BDE80840FFF726BE96
:1012100001211020FFF722FE00211020BDE8084028
:10122000FFF71CBE01214FF40030FFF70BFE002139
:101230004FF40030BDE80840FFF704BE01214FF431
:101240008020FFF7FFFD00214FF48020BDE808401B
:10125000FFF7F8BD01214FF40020FFF7F3FD002157
:101260004FF40020BDE80840FFF7ECBD01214FF42A
:101270008010FFF7E7FD00214FF48010BDE8084023
:10128000FFF7E0BD0010014000440040004800406E
:10129000004C00400050004000140140028AF0B5AC
:1012A00092B20446C8880D4622F44052024389890E
:1012B000AB882F896E892282A28922F4B05222F053
:1012C0000C023B4312043343120C9BB21343A38121
:1012D000A38A9BB223F440730B4385B0A382684674
:1012E000FFF7DEFC1C4B9C4228D003F580639C4238
:1012F00024D0029AA389A18913F4004F2B68174DBB
:1013000002EB820214BF5B009B0002EB8202B2FB85
:10131000F3F0A5FB00325209642303FB1203100112
:101320000A040DD41B013233A5FB0323C3F343137B
:1013300043EA000292B2228105B0F0BD039AD9E7D8
:10134000D9003231A5FB0131C1F34212024392B2FE
:10135000228105B0F0BD00BF001001401F85EB5198
:1013600000234FF416510C22016042818380C38018
:1013700003818381704700BF30B40B884D888C880F
:10138000028AC9882B4323430B4392B29BB222F4B7
:1013900070621343038230BC704700BF0023038098
:1013A00043808380C3807047838929B923F4005325
:1013B0001B041B0C838170479BB243F40053838151
:1013C000704700BF038B03F47F430383038B9BB2FF
:1013D00019430183704700BF838919B9C3F30E0312
:1013E000838170476FEA43436FEA53439BB2838123
:1013F000704700BF838A29B923F400631B041B0CC8
:10140000838270479BB243F400638382704700BFBE
:10141000C1F30801818070478088C0F308007047DD
:10142000038A23F00F031B041B0C0382038A9BB265
:1014300019430182704700BF838929B923F0020351
:101440001B041B0C838170479BB243F00203838112
:10145000704700BF838923F400631B041B0C838146
:1014600083899BB219438181704700BF038A23F0AF
:1014700020031B041B0C0382038A9BB219430182C5
:10148000704700BF038A29B923F480431B041B0C57
:10149000038270479BB243F480430382704700BFCE
:1014A00083899BB243F0010383817047838A29B902
:1014B00023F008031B041B0C838270479BB243F08C
:1014C00008038382704700BF038BDBB20383038B67
:1014D0009BB243EA01210183704700BF838A29B987
:1014E00023F020031B041B0C838270479BB243F044
:1014F00020038382704700BF838A29B923F0100339
:101500001B041B0C838270479BB243F01003838241
:10151000704700BF838A23F004031B041B0C8382E3
:10152000838A9BB219438182704700BF838A29B99D
:1015300023F002031B041B0C838270479BB243F011
:1015400002038382704700BF838A9BB21AB923EAE1
:1015500001018182704719438182704710B401F004
:101560001F04C1F342110123012903FA04F311D02E
:1015700002290CBF1030143032B902685DF8044BF8
:1015800022EA03030360704702685DF8044B1343CB
:10159000036070470C30EFE70388194214BF012045
:1015A00000207047C94389B201807047C1F34212DD
:1015B00010B4012301F01F04012A03FA04F317D029
:1015C000022A0CBF028A828A92B21340028892B227
:1015D00053B10123090A03FA01F10A4214BF184664
:1015E00000205DF8044B704718465DF8044B7047C7
:1015F000828992B21340E9E7090A012303FA01F153
:10160000C94389B201807047844641EA000313F060
:1016100003036DD1403A41D351F8043B40F8043BF9
:1016200051F8043B40F8043B51F8043B40F8043BBC
:1016300051F8043B40F8043B51F8043B40F8043BAC
:1016400051F8043B40F8043B51F8043B40F8043B9C
:1016500051F8043B40F8043B51F8043B40F8043B8C
:1016600051F8043B40F8043B51F8043B40F8043B7C
:1016700051F8043B40F8043B51F8043B40F8043B6C
:1016800051F8043B40F8043B51F8043B40F8043B5C
:1016900051F8043B40F8043B403ABDD2303211D3FC
:1016A00051F8043B40F8043B51F8043B40F8043B3C
:1016B00051F8043B40F8043B51F8043B40F8043B2C
:1016C000103AEDD20C3205D351F8043B40F8043BFC
:1016D000043AF9D2043208D0D2071CBF11F8013BFA
:1016E00000F8013B01D30B8803806046704700BFC0
:1016F000082A13D38B078DD010F003038AD0C3F1CF
:101700000403D21ADB071CBF11F8013B00F8013BB0
:1017100080D331F8023B20F8023B7BE7043AD9D36F
:10172000013A11F8013B00F8013BF9D20B78037044
:101730004B7843708B7883706046704700000000E0
:1017400090F800F06DE9024520F007016FF0000C01
:1017500010F0070491F820F040F049804FF00004A9
:101760006FF00700D1E9002391F840F000F1080084
:1017700082FA4CF2A4FA8CF283FA4CF3A2FA8CF3BC
:101780004BBBD1E9022382FA4CF200F10800A4FA23
:101790008CF283FA4CF3A2FA8CF3E3B9D1E9042377
:1017A00082FA4CF200F10800A4FA8CF283FA4CF3AE
:1017B000A2FA8CF37BB9D1E9062301F1200182FA68
:1017C0004CF200F10800A4FA8CF283FA4CF3A2FA6E
:1017D0008CF3002BC6D0002A04BF04301A4612BA7C
:1017E000B2FA82F2FDE8024500EBD2007047D1E97F
:1017F000002304F00305C4F100004FEAC50514F00E
:10180000040F91F840F00CFA05F562EA05021CBFDE
:1018100063EA050362464FF00004A9E700B5A1B0F2
:10182000FEF732FE104B114C1B68114E98680021D8
:1018300000F070F80F48FEF7D5FC04F184054FF472
:1018400000513046FFF7ACFCD4F80431002BFBD03C
:10185000002329466846C4F8043100F02BF9684695
:10186000FEF7C0FCEBE700BF24000020600800206A
:10187000000C0240C82C0008002103E00B4B5B5811
:10188000435004310A480B4B42189A42F6D30A4A95
:1018900002E0002342F8043B084B9A42F9D3FEF7DA
:1018A00045FE00F00FF8FFF7B9FF7047F02C000875
:1018B000000000206008002060080020D4090020FB
:1018C000FEE7000070B50F4E0F4D761BB61018BF27
:1018D000002405D0013455F8043B9847A642F9D1BD
:1018E0000A4E0B4D761BFEF70DFEB61018BF0024F6
:1018F00006D0013455F8043B9847A642F9D170BD93
:1019000070BD00BFF02C0008F02C0008F02C00087F
:10191000F02C000800290CBF022200224FF4806343
:1019200000F000B82DE9F043614C256883B004460F
:101930000F4690461E4615B1AB6B002B64D0B8F134
:10194000020F06D0B8F1010F00F29F80002EC0F206
:101950009C80636ED80734D52146284600F0A8F94C
:10196000216B41B104F14003994202D0284600F0B6
:1019700053FB00232363B4F90C300022A2616260A0
:101980001A063AD423F44A6323F00303B8F1020F92
:10199000A3811DD001AB6A462146284600F086FC93
:1019A000A3891843A081002E32D1009E304600F05A
:1019B000F5FC074600286BD0A38943F08003A38180
:1019C00028E0A3899905C7D4A06D00F065FCC3E7A2
:1019D0000025616E002604F1430243F0020301205A
:1019E000A660CE07A38122602261606101D49805C0
:1019F0003ED5284603B0BDE8F0832169284600F0B3
:101A00000BFBB4F90C30BDE7284600F0F9F996E776
:101A1000002FCBD0AB6B002B33D0009BB4F90C2044
:101A200027609E421CBF42F40062A281B8F1010F00
:101A300004BF42F00102A28192B212F008032761B2
:101A400066610ED0D1071AD5656E7642002315F077
:101A50000105A661A36009D00025284603B0BDE8B2
:101A6000F083A360656E15F00105F5D19305C0D430
:101A7000A06D00F019FC284603B0BDE8F083A66015
:101A8000F0E7284600F0BCF9C7E74FF0FF35B0E7B4
:101A9000DDF80090B14504D0484600F07FFC0746D1
:101AA00020B9B4F90C304FF0FF3592E74E4683E78A
:101AB0002400002080EA0102844612F0030F4FD177
:101AC00011F0030F32D14DF8044D11F0040F51F80D
:101AD000043B0BD0A3F101329A4312F0803F04BFC4
:101AE0004CF8043B51F8043B16D100BF51F8044BAD
:101AF000A3F101329A4312F0803FA4F101320BD1DD
:101B00004CF8043BA24312F0803F04BF51F8043B61
:101B10004CF8044BEAD023460CF8013B13F0FF0FBE
:101B20004FEA3323F8D15DF8044B704711F0010FF1
:101B300006D011F8012B0CF8012B002A08BF7047C2
:101B400011F0020FBFD031F8022B12F0FF0F16BFB9
:101B50002CF8022B8CF8002012F47F4FB3D1704781
:101B600011F8012B0CF8012B002AF9D1704700BFA6
:101B7000B1F90C309AB22DE9F0410D4611078046BB
:101B80003AD46A6843F40063002AAB816FDDAC6A23
:101B9000002C49D000229BB2D8F80060C8F8002081
:101BA00013F4805267D02A6D5F0705D569682B6BE7
:101BB000521A0BB1EB6BD21A0023E9694046A047D9
:101BC000441C3CD0B5F90C302A692A6023F4006328
:101BD0000022AB81DB046A6047D4296BC8F800603F
:101BE00011B305F14003994202D0404600F014FAC7
:101BF00000202863BDE8F0812E69AEB12C682E600C
:101C000091070CBF6B690023A41BAB600AE023465D
:101C100032466F6AE9694046B8470028A4EB0004E1
:101C2000064404DD002CF2DC0020BDE8F081AB8925
:101C300043F04003AB814FF0FF30BDE8F081D8F8AE
:101C400000401D2CF3D8194BE340DB4313F0010394
:101C5000EDD1B5F90C206B6022F400632969AB81EA
:101C6000DA042960B9D5002CB7D12865B5E7EA6B4D
:101C7000002A8CDCD8E70123E9694046A047431CD1
:101C8000024602D0AB89AC6A8EE7D8F80030002B50
:101C9000F8D01D2B01D0162B02D1C8F80060C3E785
:101CA000AB8943F04003AB81BDE8F08101004020E7
:101CB00038B50D46044608B1836BBBB1B5F90C00CD
:101CC00088B16B6EDB0701D4810517D52046294604
:101CD000FFF74EFF6B6EDA07044602D4AB899B0513
:101CE00007D5204638BD0446204638BD00F088F8A8
:101CF000E4E7A86D00F0D8FA204638BDA86D00F0E2
:101D0000CBFAE3E720B1054B01461868FFF7D0BFD7
:101D1000034B0449186800F08BBA00BF2400002070
:101D2000EC2C0008B11C0008014900F081BA00BF8A
:101D3000AD2A000810B5002304468181C2810360EA
:101D400043608360436603614361836119460822EF
:101D50005C3000F0E3FD07480749084A084B206261
:101D6000E4616162A262E36204F15800BDE81040E0
:101D700000F08ABAD1290008F9290008352A00089C
:101D8000552A000808B5436EDA0702D483899B05FB
:101D900001D5002008BD806D00F07EFA002008BD4E
:101DA00008B5436EDA0702D483899B0501D500206C
:101DB00008BD806D00F078FA002008BD70B54A1E9D
:101DC000682505FB02F50E4605F1740100F0F6FAF0
:101DD000044640B100210C30666005F168022160C4
:101DE000A06000F09BFD204670BD00BF024B034980
:101DF000186800F01DBA00BFEC2C0008AD2A0008DE
:101E000010B50446124800F047FAA26BD2B904F5A7
:101E10003B731048C4F8E8320321C4F8E022E063C1
:101E2000C4F8E41260680421FFF784FF012209214D
:101E3000A068FFF77FFF02221221E068FFF77AFF18
:101E40000123A3630248BDE8104000F02DBA00BF93
:101E5000B8090020291D000870B50646264800F084
:101E60001BFA264B1D68AB6B002B33D005F538757C
:101E70006B68AC68013B05D528E0013B5A1C04F1B6
:101E8000680423D0B4F90C20002AF6D100254FF6BF
:101E9000FF720123E281A38104F15800656600F01E
:101EA000F3F9154800F000FA2560A560656025612A
:101EB0006561A5612946082204F15C0000F02EFD51
:101EC000256365636564A564204670BD2C682CB1EC
:101ED0002546CDE72846FFF793FFC7E704213046A4
:101EE000FFF76CFF044628600028F1D1024800F09B
:101EF000DBF90C233360E7E7CC090020EC2C000869
:101F0000014800F0C9B900BFCC090020014800F029
:101F1000CBB900BFCC090020014800F0BDB900BF1B
:101F2000B8090020014800F0BFB900BFB80900207F
:101F300008B5054800F0B0F9044B05491868BDE83C
:101F4000084000F04FB900BFCC0900202400002059
:101F5000851D000808B5054B0549186800F042F9D1
:101F60000448BDE8084000F09FB900BF24000020ED
:101F7000A11D0008CC090020F8B5244F0C460646E8
:101F800000F01AFDBB685D68C4F57E610F3125F075
:101F90000305294421F47F6121F00F01A1F580544C
:101FA000B4F5805F07DB00213046FEF77DFBBB68A0
:101FB0002B44984204D0304600F004FD0020F8BDC8
:101FC00061423046FEF770FB01300DD0104BBA680D
:101FD00019682D1B45F001053046091B5560196035
:101FE00000F0F0FC0120F8BD00213046FEF75CFB5C
:101FF000BA68831A0F2BDEDD064C0549246843F0CE
:102000000103001B53600860D5E700BF50040020A7
:102010006C09002058080020002944D02DE9F04127
:102020000D46804600F0C8FC55F8047C694927F04D
:102030000103A5F10804E2188E685068B24220F04E
:1020400003005ED0FE0750600BD455F8087CE41BFB
:1020500001F1080EA56875453B446DD0E768EF6057
:10206000BD6015186D68ED073ED543F00102626052
:10207000E350B3F5007F17D2DB08581C9A104D6867
:1020800051F83070A7600123934001EBC0022B434D
:10209000083AE2604B6041F83040FC604046BDE8E1
:1020A000F04100F08FBC70475A0A042A52D89A09AE
:1020B00002F13907FF0002F13805C819CA5908387A
:1020C00090424FD0516821F003018B4232D2926886
:1020D0009042F7D1C368A060E3609C60C460404652
:1020E000BDE8F04100F06EBC95683B4FBD42034433
:1020F00040D0D068E86043F0010285606260E35040
:10210000B7E7FF07034407D455F8082CA41A134473
:10211000A068E268C2609060304A126843F0010033
:10212000934260608C60B9D32D4B40461968FFF72D
:1021300023FFB3E71046CDE711184968C90744D417
:102140009168D268CA60034443F001009160606006
:10215000E350A3E7142A16D802F15C07FF0002F14E
:102160005B05AAE7AA1001234D6893402B434B60FF
:102170000346B0E743F001024C610C61E560A560E5
:102180006260E3508AE7542A06D81A0B02F16F07FF
:10219000FF0002F16E0590E7B2F5AA7F06D8DA0BD0
:1021A00002F17807FF0002F1770586E740F254500C
:1021B000824206D89A0C02F17D07FF0002F17C05ED
:1021C0007BE74FF47E777E2577E743F0010161607E
:1021D000136063E750040020580400205C080020CE
:1021E0009C0900202DE9F04110F538771BD0884676
:1021F00000267D68BC68013D0FD4A389012B05F141
:10220000FF3506D9B4F90E300133204601D0C0475E
:1022100006436B1C04F16804EFD13F68002FE8D13E
:102220003046BDE8F0813E463046BDE8F08100BF53
:102230002DE9F84310F538771FD0884606464FF051
:1022400000097D68BC68013D11D4A389012B05F10B
:10225000FF3508D9B4F90E3001332146304602D09B
:10226000C04749EA00096B1C04F16804EDD13F68DE
:10227000002FE6D14846BDE8F883B9464846BDE898
:10228000F88300BF704700BF704700BF704700BFB2
:10229000704700BF704700BF704700BF0120704704
:1022A00001207047704700BF704700BF70B50C46F3
:1022B000B1F90E10002990B015461E4614DB01AA94
:1022C00000F05EFC00280FDB029A02F47042A2F5D7
:1022D0000052B2FA82F252094FF480634FF4006068
:1022E00032602B6010B070BDA289002312F0800014
:1022F000336004D0402218462A6010B070BD4FF4FD
:1023000080632B6010B070BD8A8992070B4606D59A
:1023100001F1430201211A601A6159617047F0B559
:1023200083B001AB6A460C460646FFF7BFFF009933
:102330000546304600F042F8B4F90C30D8B1019AA5
:10234000154F0099F76343F08003A381206020615B
:1023500061611AB92B43A38103B0F0BD3046B4F9D3
:102360000E1000F021FCA0B1A38923F0030343F079
:1023700001031BB2EEE79A05EED423F0030304F148
:10238000430243F002030121A381226022616161C3
:10239000E2E7B4F90C30DDE7291D0008024B0146E5
:1023A000186800F00BB800BF24000020024B014663
:1023B0001868FFF731BE00BF240000202DE9F04F60
:1023C00001F10B06162E83B0054640F29E8036F0D2
:1023D000070600F1BD80B14200F2BA8000F0ECFACD
:1023E000B6F5FC7FC0F09382730A00F0B880042B2E
:1023F00000F27981B30903F1390003F1380EC3000B
:10240000BF4F3B44A3F108015C68A14206D10CE038
:10241000002A80F2AA80E468A14206D0636823F013
:1024200003039A1B0F2AF3DD70463C69DFF8E4E2F0
:10243000744500F0AB81636823F003039A1B0F2AF5
:1024400000F39081002AC7F814E0C7F810E080F28A
:102450009D80B3F5007F80F06181DB0803F1010C02
:1024600099107A6857F83C80C4F8088001238B40A3
:1024700007EBCC0113430839E1607B6047F83C402F
:10248000C8F80C408210012494409C4200F28B80DA
:102490001C4206D120F0030064001C4200F104003D
:1024A000FAD007EBC009CC468046DCF80C309C45DE
:1024B00007D16DE1002A80F27B81DB689C4500F04A
:1024C0006781596821F003018A1B0F2AF2DDD3F8D6
:1024D0000CC0D3F8088000939C19284646F00106EA
:1024E00042F001055E60C8F80CC0CCF808807C6141
:1024F0003C61C4F80CE0C4F808E065605A5000F094
:1025000061FA009B03F108041EE0102920D800F0B6
:1025100053FA102618230220794F3B44A3F10802F6
:102520005C68944200F03D816368E168A66823F02E
:102530000303234428465A68F16042F001028E608A
:102540005A6000F03FFA0834204603B0BDE8F08F2F
:1025500000240C2320462B6003B0BDE8F08F402000
:102560004FF400734FF03F0E4AE72344E1685A6886
:10257000A66842F00102F16028468E605A6000F0C1
:1025800021FA0834204603B0BDE8F08F23442846E2
:102590005A6842F001025A6000F014FA08342046EA
:1025A00003B0BDE8F08FBC68636823F00308B04552
:1025B00004D3A8EB06030F2B00F38580DFF85891B6
:1025C000504BD9F800201B680132334404EB080A51
:1025D00000F0558103F580530F3323F47F6B2BF00C
:1025E0000F0B59462846FEF75FF8411C024600F0E3
:1025F000FC80824500F2F780434B1968594419600A
:1026000000F04D81D9F8000001301BBFA2EB0A0A8F
:102610005144C9F80020196012F0070100F015813B
:10262000C1F10800C1F580510244083102EB0B09E9
:10263000C9F30B09A1EB0909494628460193009209
:10264000FEF732F8431C9DE80C0000F04381801A2D
:10265000484440F001001968BA604944BC425060E7
:10266000196017D0B8F10F0F40F2FB806068A8F135
:102670000C0222F0070204EB020E00F001004FF002
:10268000050C10430F2A6060CEF804C0CEF808C0D5
:1026900000F217811D4BBC681A68914288BF19600F
:1026A0001B4B1A689142626888BF196022F00302CE
:1026B0009642A2EB060301D80F2B04DC284600F05B
:1026C00081F9002440E7A21943F0010346F0010616
:1026D00066602846BA60536000F074F908342046FA
:1026E00003B0BDE8F08F142B71D9542B00F2A380F6
:1026F000330B03F16F0003F16E0EC30080E600BFE1
:10270000500400209C0900206C090020940900203E
:102710009809002058040020580800205A0A042A6A
:102720005BD9142A00F2AE8002F15C01C9005B3271
:1027300007EB010C7958ACF1080C8C4500F088804F
:102740004A6822F00302934273D289688C45F7D11C
:10275000DCF80C207B68E260C4F808C09460CCF818
:102760000C408FE6A11946F0010C42F00106C4F8B6
:1027700004C0284679613961C1F80CE0C1F808E06D
:102780004E60E25000F01EF90834DDE67B6879E621
:1027900008F1010818F0030F0CF1080C7FF485AE66
:1027A0002DE0DC68A34208BF02303FF43EAEBBE63A
:1027B00019441C464A68DB6854F8086F42F001026D
:1027C0004A602846F3609E6000F0FCF8BCE603F126
:1027D0005C0003F15B0EC30012E69A0902F13901B5
:1027E000C9003832A4E7BC4254D0BC68626822F009
:1027F00003025DE759F80839994540F0868010F0EA
:10280000030F00F1FF30F5D17B6823EA04037B60FE
:1028100064009C423FF6C7AE002C3FF4C4AE1C429D
:1028200040467FF43EAE64001C4200F10400FAD042
:1028300037E68C468CE7B3F5AA7F15D8F30B03F186
:10284000780003F1770EC300DAE54FF48051EDE62E
:102850007B689210012101FA02F213437B60624609
:1028600079E70123536029E740F25452934222D87A
:10287000B30C03F17D0003F17C0EC300C0E503F14E
:10288000100BAEE6542A29D81A0B02F16F01C900C9
:102890006E324DE7204B196859441960B2E6CAF30D
:1028A0000B0000287FF4AEAE08EB0B03BA6843F0D0
:1028B00001035360EEE67F204FF47E734FF07E0EEF
:1028C0009EE504F1080128460093FFF7A5FB009B55
:1028D0001968DFE601204FF00009BCE6B2F5AA7FD7
:1028E00005D8DA0B02F17801C900773220E740F20F
:1028F00054518A4205D89A0C02F17D01C9007C32FC
:1029000016E74FF47E717E2212E77B6880E7F008BD
:1029100006F1080300E600BF6C09002070B48607CA
:1029200046D0541E002A41D0CAB2034602E014F138
:10293000FF343BD303F8012B9D07F8D1032C2ED98C
:10294000CDB245EA05250F2C45EA054519D903F115
:1029500010022646103E0F2E42F8105C42F80C5C26
:1029600042F8085C42F8045C02F11002F2D8A4F1CB
:10297000100222F00F0204F00F041032032C134453
:102980000DD91E462246043A032A46F8045BFAD8BB
:10299000221F22F003020432134404F003042CB17A
:1029A000C9B21C4403F8011B9C42FBD170BC7047A8
:1029B00014460346C2E700BF0148FFF76DBC00BFE5
:1029C000BC0900200148FFF76FBC00BFBC09002014
:1029D00010B50C46B1F90E1000F00EF9002803DB1B
:1029E000236D0344236510BDA38923F48053A38181
:1029F00010BD00BF002070472DE9F0411646B1F927
:102A00000C201F46D3050C46054607D5002202239D
:102A1000B1F90E1000F0DAF8B4F90C20B4F90E1088
:102A200022F48052A2813B4632462846BDE8F0415E
:102A300000F014B810B50C46B1F90E1000F0C6F84D
:102A4000A389421C0EBF23F4805343F480532065B6
:102A5000A38110BDB1F90E1000F016B870B50D4687
:102A6000084C114606461A46284600232360FDF707
:102A70002DFE431C00D070BD2368002BFBD03360BB
:102A800070BD00BFD009002038B5074C00230546B3
:102A900008462360FDF7FCFD431C00D038BD2368C9
:102AA000002BFBD02B6038BDD009002070B559B188
:102AB00005460C4610B1836B002B3CD0636ED807E3
:102AC00005D5B4F90C302BB90026304670BDA3896A
:102AD00099053CD521462846FFF74AF8E36A0646A1
:102AE00033B1E169284698470028B8BF4FF0FF3658
:102AF000A3891A0622D4216B41B104F14003994203
:102B000002D02846FFF788FA00232363616C21B1C5
:102B10002846FFF781FA00236364FFF7F1F9636E3B
:102B20000022DB07A2810ED5A06DFFF7B1FBFFF7F6
:102B3000EDF9304670BDFFF763F9BFE7216928461C
:102B4000FFF76AFAD7E7A06DFFF7AEFBECE7A06DE1
:102B5000FFF7A2FBB4F90C30002BBBD1666E16F068
:102B60000106B1D1A06DFFF79FFB304670BD00BFDD
:102B7000024B01461868FFF799BF00BF24000020F0
:102B800038B50B46074C054611461846002323600E
:102B9000FDF780FD431C00D038BD2368002BFBD01F
:102BA0002B6038BDD009002038B5074C00230546FE
:102BB00008462360FDF770FD431C00D038BD236834
:102BC000002BFBD02B6038BDD009002070B50D461E
:102BD000084C114606461A46284600232360FDF796
:102BE0005DFD431C00D070BD2368002BFBD033601B
:102BF00070BD00BFD009002070B50D46084C1146CD
:102C000006461A46284600232360FDF761FD431C53
:102C100000D070BD2368002BFBD0336070BD00BFB7
:102C2000D009002038B50C460968054609B1FFF700
:102C3000F9FF21462846BDE83840FFF7EDB900BF4F
:102C4000204B1B6883423CD0C36C70B505468BB1EA
:102C50000026995939B10C682846FFF7DDF921465D
:102C6000002CF8D1EB6C0436802EF2D119462846A0
:102C7000FFF7D2F9296C11B12846FFF7CDF9D5F845
:102C8000481151B105F5A676B14206D00C68284628
:102C9000FFF7C2F9A6422146F8D1696D11B1284665
:102CA000FFF7BAF9AB6B03B970BDEB6B28469847D9
:102CB000D5F8E0120029F7D02846BDE87040FFF7AC
:102CC000B1BF704724000020496E697420636F6DA6
:102CD000706C657465212048656C6C6F20576F724D
:102CE0006C6420444D4120210D0A00002800002082
:102CF00000000000000000000102030406070809AC
:102D0000007A030A00000000010203040102030428
:102D10000607080928000020000000001403002016
:102D20007C030020E40300200000000000000000FD
:102D30000000000000000000000000000000000093
:102D40000000000000000000000000000000000083
:102D50000000000000000000000000000000000073
:102D60000000000000000000000000000000000063
:102D70000000000000000000000000000000000053
:102D80000000000000000000000000000000000043
:102D90000000000000000000000000000000000033
:102DA0000000000000000000000000000000000023
:102DB0000000000000000000000000000000000013
:102DC00001000000000000000E33CDAB34126DE6B0
:102DD000ECDE05000B000000000000000000000019
:102DE00000000000000000000000000000000000E3
:102DF00000000000000000000000000000000000D3
:102E000000000000000000000000000000000000C2
:102E100000000000000000000000000000000000B2
:103140000000000000000000500400205004002097
:10315000580400205804002060040020600400206F
:10316000680400206804002070040020700400201F
:1031700078040020780400208004002080040020CF
:10318000880400208804002090040020900400207F
:103190009804002098040020A0040020A00400202F
:1031A000A8040020A8040020B0040020B0040020DF
:1031B000B8040020B8040020C0040020C00400208F
:1031C000C8040020C8040020D0040020D00400203F
:1031D000D8040020D8040020E0040020E0040020EF
:1031E000E8040020E8040020F0040020F00400209F
:1031F000F8040020F804002000050020000500204D
:1032000008050020080500201005002010050020FA
:1032100018050020180500202005002020050020AA
:10322000280500202805002030050020300500205A
:10323000380500203805002040050020400500200A
:1032400048050020480500205005002050050020BA
:10325000580500205805002060050020600500206A
:10326000680500206805002070050020700500201A
:1032700078050020780500208005002080050020CA
:10328000880500208805002090050020900500207A
:103290009805002098050020A0050020A00500202A
:1032A000A8050020A8050020B0050020B0050020DA
:1032B000B8050020B8050020C0050020C00500208A
:1032C000C8050020C8050020D0050020D00500203A
:1032D000D8050020D8050020E0050020E0050020EA
:1032E000E8050020E8050020F0050020F00500209A
:1032F000F8050020F8050020000600200006002048
:1033000008060020080600201006002010060020F5
:1033100018060020180600202006002020060020A5
:103320002806002028060020300600203006002055
:103330003806002038060020400600204006002005
:1033400048060020480600205006002050060020B5
:103350005806002058060020600600206006002065
:103360006806002068060020700600207006002015
:1033700078060020780600208006002080060020C5
:103380008806002088060020900600209006002075
:103390009806002098060020A0060020A006002025
:1033A000A8060020A8060020B0060020B0060020D5
:1033B000B8060020B8060020C0060020C006002085
:1033C000C8060020C8060020D0060020D006002035
:1033D000D8060020D8060020E0060020E0060020E5
:1033E000E8060020E8060020F0060020F006002095
:1033F000F8060020F8060020000700200007002043
:1034000008070020080700201007002010070020F0
:1034100018070020180700202007002020070020A0
:103420002807002028070020300700203007002050
:103430003807002038070020400700204007002000
:1034400048070020480700205007002050070020B0
:103450005807002058070020600700206007002060
:103460006807002068070020700700207007002010
:1034700078070020780700208007002080070020C0
:103480008807002088070020900700209007002070
:103490009807002098070020A0070020A007002020
:1034A000A8070020A8070020B0070020B0070020D0
:1034B000B8070020B8070020C0070020C007002080
:1034C000C8070020C8070020D0070020D007002030
:1034D000D8070020D8070020E0070020E0070020E0
:1034E000E8070020E8070020F0070020F007002090
:1034F000F8070020F807002000080020000800203E
:1035000008080020080800201008002010080020EB
:10351000180800201808002020080020200800209B
:10352000280800202808002030080020300800204B
:1035300038080020380800204008002040080020FB
:103540004808002048080020FFFFFFFF000002009D
:04000005080018795E
:00000001FF
